{
	"contracts/6_Mapping.sol": {
		"Map": {
			"abi": [
				{
					"inputs": [],
					"stateMutability": "nonpayable",
					"type": "constructor"
				},
				{
					"inputs": [
						{
							"internalType": "uint256",
							"name": "_id",
							"type": "uint256"
						},
						{
							"internalType": "uint256",
							"name": "_page",
							"type": "uint256"
						},
						{
							"internalType": "string",
							"name": "_title",
							"type": "string"
						},
						{
							"internalType": "string",
							"name": "_author",
							"type": "string"
						}
					],
					"name": "AddBook",
					"outputs": [],
					"stateMutability": "nonpayable",
					"type": "function"
				},
				{
					"inputs": [
						{
							"internalType": "uint256",
							"name": "_id",
							"type": "uint256"
						},
						{
							"internalType": "uint256",
							"name": "_page",
							"type": "uint256"
						},
						{
							"internalType": "string",
							"name": "_title",
							"type": "string"
						},
						{
							"internalType": "string",
							"name": "_author",
							"type": "string"
						}
					],
					"name": "AddMyAllBooks",
					"outputs": [],
					"stateMutability": "nonpayable",
					"type": "function"
				},
				{
					"inputs": [
						{
							"internalType": "uint256",
							"name": "",
							"type": "uint256"
						}
					],
					"name": "books",
					"outputs": [
						{
							"internalType": "uint256",
							"name": "page",
							"type": "uint256"
						},
						{
							"internalType": "string",
							"name": "title",
							"type": "string"
						},
						{
							"internalType": "string",
							"name": "author",
							"type": "string"
						}
					],
					"stateMutability": "view",
					"type": "function"
				},
				{
					"inputs": [
						{
							"internalType": "address",
							"name": "",
							"type": "address"
						},
						{
							"internalType": "uint256",
							"name": "",
							"type": "uint256"
						}
					],
					"name": "myAllBooks",
					"outputs": [
						{
							"internalType": "uint256",
							"name": "page",
							"type": "uint256"
						},
						{
							"internalType": "string",
							"name": "title",
							"type": "string"
						},
						{
							"internalType": "string",
							"name": "author",
							"type": "string"
						}
					],
					"stateMutability": "view",
					"type": "function"
				},
				{
					"inputs": [],
					"name": "myBook1",
					"outputs": [
						{
							"internalType": "uint256",
							"name": "page",
							"type": "uint256"
						},
						{
							"internalType": "string",
							"name": "title",
							"type": "string"
						},
						{
							"internalType": "string",
							"name": "author",
							"type": "string"
						}
					],
					"stateMutability": "view",
					"type": "function"
				},
				{
					"inputs": [
						{
							"internalType": "uint256",
							"name": "",
							"type": "uint256"
						}
					],
					"name": "names",
					"outputs": [
						{
							"internalType": "string",
							"name": "",
							"type": "string"
						}
					],
					"stateMutability": "view",
					"type": "function"
				}
			],
			"devdoc": {
				"kind": "dev",
				"methods": {},
				"version": 1
			},
			"evm": {
				"assembly": "    /* \"contracts/6_Mapping.sol\":56:1308  contract Map {... */\n  mstore(0x40, 0x80)\n    /* \"contracts/6_Mapping.sol\":503:529  Book(7, \"finance\", \"Alex\") */\n  mload(0x40)\n  dup1\n  0x60\n  add\n  0x40\n  mstore\n  dup1\n    /* \"contracts/6_Mapping.sol\":508:509  7 */\n  0x07\n    /* \"contracts/6_Mapping.sol\":503:529  Book(7, \"finance\", \"Alex\") */\n  dup2\n  mstore\n  0x20\n  add\n  mload(0x40)\n  dup1\n  0x40\n  add\n  0x40\n  mstore\n  dup1\n  0x07\n  dup2\n  mstore\n  0x20\n  add\n  0x66696e616e636500000000000000000000000000000000000000000000000000\n  dup2\n  mstore\n  pop\n  dup2\n  mstore\n  0x20\n  add\n  mload(0x40)\n  dup1\n  0x40\n  add\n  0x40\n  mstore\n  dup1\n  0x04\n  dup2\n  mstore\n  0x20\n  add\n  0x416c657800000000000000000000000000000000000000000000000000000000\n  dup2\n  mstore\n  pop\n  dup2\n  mstore\n  pop\n    /* \"contracts/6_Mapping.sol\":481:529  Book public myBook1 = Book(7, \"finance\", \"Alex\") */\n  0x01\n  0x00\n  dup3\n  add\n  mload\n  dup2\n  0x00\n  add\n  sstore\n  0x20\n  dup3\n  add\n  mload\n  dup2\n  0x01\n  add\n  swap1\n  dup2\n  tag_1\n  swap2\n  swap1\n  tag_2\n  jump\t// in\ntag_1:\n  pop\n  0x40\n  dup3\n  add\n  mload\n  dup2\n  0x02\n  add\n  swap1\n  dup2\n  tag_3\n  swap2\n  swap1\n  tag_2\n  jump\t// in\ntag_3:\n  pop\n  pop\n  pop\n    /* \"contracts/6_Mapping.sol\":249:331  constructor() {... */\n  callvalue\n  dup1\n  iszero\n  tag_4\n  jumpi\n  revert(0x00, 0x00)\ntag_4:\n  pop\n    /* \"contracts/6_Mapping.sol\":273:294  names[1] = \"suanicks\" */\n  mload(0x40)\n  dup1\n  0x40\n  add\n  0x40\n  mstore\n  dup1\n  0x08\n  dup2\n  mstore\n  0x20\n  add\n  0x7375616e69636b73000000000000000000000000000000000000000000000000\n  dup2\n  mstore\n  pop\n    /* \"contracts/6_Mapping.sol\":273:278  names */\n  0x00\n    /* \"contracts/6_Mapping.sol\":273:281  names[1] */\n  0x00\n    /* \"contracts/6_Mapping.sol\":279:280  1 */\n  0x01\n    /* \"contracts/6_Mapping.sol\":273:281  names[1] */\n  dup2\n  mstore\n  0x20\n  add\n  swap1\n  dup2\n  mstore\n  0x20\n  add\n  0x00\n  keccak256\n    /* \"contracts/6_Mapping.sol\":273:294  names[1] = \"suanicks\" */\n  swap1\n  dup2\n  tag_7\n  swap2\n  swap1\n  tag_2\n  jump\t// in\ntag_7:\n  pop\n    /* \"contracts/6_Mapping.sol\":304:324  names[2] = \"chauhan\" */\n  mload(0x40)\n  dup1\n  0x40\n  add\n  0x40\n  mstore\n  dup1\n  0x07\n  dup2\n  mstore\n  0x20\n  add\n  0x6368617568616e00000000000000000000000000000000000000000000000000\n  dup2\n  mstore\n  pop\n    /* \"contracts/6_Mapping.sol\":304:309  names */\n  0x00\n    /* \"contracts/6_Mapping.sol\":304:312  names[2] */\n  0x00\n    /* \"contracts/6_Mapping.sol\":310:311  2 */\n  0x02\n    /* \"contracts/6_Mapping.sol\":304:312  names[2] */\n  dup2\n  mstore\n  0x20\n  add\n  swap1\n  dup2\n  mstore\n  0x20\n  add\n  0x00\n  keccak256\n    /* \"contracts/6_Mapping.sol\":304:324  names[2] = \"chauhan\" */\n  swap1\n  dup2\n  tag_8\n  swap2\n  swap1\n  tag_2\n  jump\t// in\ntag_8:\n  pop\n    /* \"contracts/6_Mapping.sol\":56:1308  contract Map {... */\n  jump(tag_9)\n    /* \"#utility.yul\":7:106   */\ntag_10:\n    /* \"#utility.yul\":59:65   */\n  0x00\n    /* \"#utility.yul\":93:98   */\n  dup2\n    /* \"#utility.yul\":87:99   */\n  mload\n    /* \"#utility.yul\":77:99   */\n  swap1\n  pop\n    /* \"#utility.yul\":7:106   */\n  swap2\n  swap1\n  pop\n  jump\t// out\n    /* \"#utility.yul\":112:292   */\ntag_11:\n    /* \"#utility.yul\":160:237   */\n  0x4e487b7100000000000000000000000000000000000000000000000000000000\n    /* \"#utility.yul\":157:158   */\n  0x00\n    /* \"#utility.yul\":150:238   */\n  mstore\n    /* \"#utility.yul\":257:261   */\n  0x41\n    /* \"#utility.yul\":254:255   */\n  0x04\n    /* \"#utility.yul\":247:262   */\n  mstore\n    /* \"#utility.yul\":281:285   */\n  0x24\n    /* \"#utility.yul\":278:279   */\n  0x00\n    /* \"#utility.yul\":271:286   */\n  revert\n    /* \"#utility.yul\":298:478   */\ntag_12:\n    /* \"#utility.yul\":346:423   */\n  0x4e487b7100000000000000000000000000000000000000000000000000000000\n    /* \"#utility.yul\":343:344   */\n  0x00\n    /* \"#utility.yul\":336:424   */\n  mstore\n    /* \"#utility.yul\":443:447   */\n  0x22\n    /* \"#utility.yul\":440:441   */\n  0x04\n    /* \"#utility.yul\":433:448   */\n  mstore\n    /* \"#utility.yul\":467:471   */\n  0x24\n    /* \"#utility.yul\":464:465   */\n  0x00\n    /* \"#utility.yul\":457:472   */\n  revert\n    /* \"#utility.yul\":484:804   */\ntag_13:\n    /* \"#utility.yul\":528:534   */\n  0x00\n    /* \"#utility.yul\":565:566   */\n  0x02\n    /* \"#utility.yul\":559:563   */\n  dup3\n    /* \"#utility.yul\":555:567   */\n  div\n    /* \"#utility.yul\":545:567   */\n  swap1\n  pop\n    /* \"#utility.yul\":612:613   */\n  0x01\n    /* \"#utility.yul\":606:610   */\n  dup3\n    /* \"#utility.yul\":602:614   */\n  and\n    /* \"#utility.yul\":633:651   */\n  dup1\n    /* \"#utility.yul\":623:704   */\n  tag_35\n  jumpi\n    /* \"#utility.yul\":689:693   */\n  0x7f\n    /* \"#utility.yul\":681:687   */\n  dup3\n    /* \"#utility.yul\":677:694   */\n  and\n    /* \"#utility.yul\":667:694   */\n  swap2\n  pop\n    /* \"#utility.yul\":623:704   */\ntag_35:\n    /* \"#utility.yul\":751:753   */\n  0x20\n    /* \"#utility.yul\":743:749   */\n  dup3\n    /* \"#utility.yul\":740:754   */\n  lt\n    /* \"#utility.yul\":720:738   */\n  dup2\n    /* \"#utility.yul\":717:755   */\n  sub\n    /* \"#utility.yul\":714:798   */\n  tag_36\n  jumpi\n    /* \"#utility.yul\":770:788   */\n  tag_37\n  tag_12\n  jump\t// in\ntag_37:\n    /* \"#utility.yul\":714:798   */\ntag_36:\n    /* \"#utility.yul\":535:804   */\n  pop\n    /* \"#utility.yul\":484:804   */\n  swap2\n  swap1\n  pop\n  jump\t// out\n    /* \"#utility.yul\":810:951   */\ntag_14:\n    /* \"#utility.yul\":859:863   */\n  0x00\n    /* \"#utility.yul\":882:885   */\n  dup2\n    /* \"#utility.yul\":874:885   */\n  swap1\n  pop\n    /* \"#utility.yul\":905:908   */\n  dup2\n    /* \"#utility.yul\":902:903   */\n  0x00\n    /* \"#utility.yul\":895:909   */\n  mstore\n    /* \"#utility.yul\":939:943   */\n  0x20\n    /* \"#utility.yul\":936:937   */\n  0x00\n    /* \"#utility.yul\":926:944   */\n  keccak256\n    /* \"#utility.yul\":918:944   */\n  swap1\n  pop\n    /* \"#utility.yul\":810:951   */\n  swap2\n  swap1\n  pop\n  jump\t// out\n    /* \"#utility.yul\":957:1050   */\ntag_15:\n    /* \"#utility.yul\":994:1000   */\n  0x00\n    /* \"#utility.yul\":1041:1043   */\n  0x20\n    /* \"#utility.yul\":1036:1038   */\n  0x1f\n    /* \"#utility.yul\":1029:1034   */\n  dup4\n    /* \"#utility.yul\":1025:1039   */\n  add\n    /* \"#utility.yul\":1021:1044   */\n  div\n    /* \"#utility.yul\":1011:1044   */\n  swap1\n  pop\n    /* \"#utility.yul\":957:1050   */\n  swap2\n  swap1\n  pop\n  jump\t// out\n    /* \"#utility.yul\":1056:1163   */\ntag_16:\n    /* \"#utility.yul\":1100:1108   */\n  0x00\n    /* \"#utility.yul\":1150:1155   */\n  dup3\n    /* \"#utility.yul\":1144:1148   */\n  dup3\n    /* \"#utility.yul\":1140:1156   */\n  shl\n    /* \"#utility.yul\":1119:1156   */\n  swap1\n  pop\n    /* \"#utility.yul\":1056:1163   */\n  swap3\n  swap2\n  pop\n  pop\n  jump\t// out\n    /* \"#utility.yul\":1169:1562   */\ntag_17:\n    /* \"#utility.yul\":1238:1244   */\n  0x00\n    /* \"#utility.yul\":1288:1289   */\n  0x08\n    /* \"#utility.yul\":1276:1286   */\n  dup4\n    /* \"#utility.yul\":1272:1290   */\n  mul\n    /* \"#utility.yul\":1311:1408   */\n  tag_42\n    /* \"#utility.yul\":1341:1407   */\n  0xffffffffffffffffffffffffffffffffffffffffffffffffffffffffffffffff\n    /* \"#utility.yul\":1330:1339   */\n  dup3\n    /* \"#utility.yul\":1311:1408   */\n  tag_16\n  jump\t// in\ntag_42:\n    /* \"#utility.yul\":1429:1468   */\n  tag_43\n    /* \"#utility.yul\":1459:1467   */\n  dup7\n    /* \"#utility.yul\":1448:1457   */\n  dup4\n    /* \"#utility.yul\":1429:1468   */\n  tag_16\n  jump\t// in\ntag_43:\n    /* \"#utility.yul\":1417:1468   */\n  swap6\n  pop\n    /* \"#utility.yul\":1501:1505   */\n  dup1\n    /* \"#utility.yul\":1497:1506   */\n  not\n    /* \"#utility.yul\":1490:1495   */\n  dup5\n    /* \"#utility.yul\":1486:1507   */\n  and\n    /* \"#utility.yul\":1477:1507   */\n  swap4\n  pop\n    /* \"#utility.yul\":1550:1554   */\n  dup1\n    /* \"#utility.yul\":1540:1548   */\n  dup7\n    /* \"#utility.yul\":1536:1555   */\n  and\n    /* \"#utility.yul\":1529:1534   */\n  dup5\n    /* \"#utility.yul\":1526:1556   */\n  or\n    /* \"#utility.yul\":1516:1556   */\n  swap3\n  pop\n    /* \"#utility.yul\":1245:1562   */\n  pop\n  pop\n    /* \"#utility.yul\":1169:1562   */\n  swap4\n  swap3\n  pop\n  pop\n  pop\n  jump\t// out\n    /* \"#utility.yul\":1568:1645   */\ntag_18:\n    /* \"#utility.yul\":1605:1612   */\n  0x00\n    /* \"#utility.yul\":1634:1639   */\n  dup2\n    /* \"#utility.yul\":1623:1639   */\n  swap1\n  pop\n    /* \"#utility.yul\":1568:1645   */\n  swap2\n  swap1\n  pop\n  jump\t// out\n    /* \"#utility.yul\":1651:1711   */\ntag_19:\n    /* \"#utility.yul\":1679:1682   */\n  0x00\n    /* \"#utility.yul\":1700:1705   */\n  dup2\n    /* \"#utility.yul\":1693:1705   */\n  swap1\n  pop\n    /* \"#utility.yul\":1651:1711   */\n  swap2\n  swap1\n  pop\n  jump\t// out\n    /* \"#utility.yul\":1717:1859   */\ntag_20:\n    /* \"#utility.yul\":1767:1776   */\n  0x00\n    /* \"#utility.yul\":1800:1853   */\n  tag_47\n    /* \"#utility.yul\":1818:1852   */\n  tag_48\n    /* \"#utility.yul\":1827:1851   */\n  tag_49\n    /* \"#utility.yul\":1845:1850   */\n  dup5\n    /* \"#utility.yul\":1827:1851   */\n  tag_18\n  jump\t// in\ntag_49:\n    /* \"#utility.yul\":1818:1852   */\n  tag_19\n  jump\t// in\ntag_48:\n    /* \"#utility.yul\":1800:1853   */\n  tag_18\n  jump\t// in\ntag_47:\n    /* \"#utility.yul\":1787:1853   */\n  swap1\n  pop\n    /* \"#utility.yul\":1717:1859   */\n  swap2\n  swap1\n  pop\n  jump\t// out\n    /* \"#utility.yul\":1865:1940   */\ntag_21:\n    /* \"#utility.yul\":1908:1911   */\n  0x00\n    /* \"#utility.yul\":1929:1934   */\n  dup2\n    /* \"#utility.yul\":1922:1934   */\n  swap1\n  pop\n    /* \"#utility.yul\":1865:1940   */\n  swap2\n  swap1\n  pop\n  jump\t// out\n    /* \"#utility.yul\":1946:2215   */\ntag_22:\n    /* \"#utility.yul\":2056:2095   */\n  tag_52\n    /* \"#utility.yul\":2087:2094   */\n  dup4\n    /* \"#utility.yul\":2056:2095   */\n  tag_20\n  jump\t// in\ntag_52:\n    /* \"#utility.yul\":2117:2208   */\n  tag_53\n    /* \"#utility.yul\":2166:2207   */\n  tag_54\n    /* \"#utility.yul\":2190:2206   */\n  dup3\n    /* \"#utility.yul\":2166:2207   */\n  tag_21\n  jump\t// in\ntag_54:\n    /* \"#utility.yul\":2158:2164   */\n  dup5\n    /* \"#utility.yul\":2151:2155   */\n  dup5\n    /* \"#utility.yul\":2145:2156   */\n  sload\n    /* \"#utility.yul\":2117:2208   */\n  tag_17\n  jump\t// in\ntag_53:\n    /* \"#utility.yul\":2111:2115   */\n  dup3\n    /* \"#utility.yul\":2104:2209   */\n  sstore\n    /* \"#utility.yul\":2022:2215   */\n  pop\n    /* \"#utility.yul\":1946:2215   */\n  pop\n  pop\n  pop\n  jump\t// out\n    /* \"#utility.yul\":2221:2294   */\ntag_23:\n    /* \"#utility.yul\":2266:2269   */\n  0x00\n    /* \"#utility.yul\":2287:2288   */\n  0x00\n    /* \"#utility.yul\":2280:2288   */\n  swap1\n  pop\n    /* \"#utility.yul\":2221:2294   */\n  swap1\n  jump\t// out\n    /* \"#utility.yul\":2300:2489   */\ntag_24:\n    /* \"#utility.yul\":2377:2409   */\n  tag_57\n  tag_23\n  jump\t// in\ntag_57:\n    /* \"#utility.yul\":2418:2483   */\n  tag_58\n    /* \"#utility.yul\":2476:2482   */\n  dup2\n    /* \"#utility.yul\":2468:2474   */\n  dup5\n    /* \"#utility.yul\":2462:2466   */\n  dup5\n    /* \"#utility.yul\":2418:2483   */\n  tag_22\n  jump\t// in\ntag_58:\n    /* \"#utility.yul\":2353:2489   */\n  pop\n    /* \"#utility.yul\":2300:2489   */\n  pop\n  pop\n  jump\t// out\n    /* \"#utility.yul\":2495:2681   */\ntag_25:\n    /* \"#utility.yul\":2555:2675   */\ntag_60:\n    /* \"#utility.yul\":2572:2575   */\n  dup2\n    /* \"#utility.yul\":2565:2570   */\n  dup2\n    /* \"#utility.yul\":2562:2576   */\n  lt\n    /* \"#utility.yul\":2555:2675   */\n  iszero\n  tag_62\n  jumpi\n    /* \"#utility.yul\":2626:2665   */\n  tag_63\n    /* \"#utility.yul\":2663:2664   */\n  0x00\n    /* \"#utility.yul\":2656:2661   */\n  dup3\n    /* \"#utility.yul\":2626:2665   */\n  tag_24\n  jump\t// in\ntag_63:\n    /* \"#utility.yul\":2599:2600   */\n  0x01\n    /* \"#utility.yul\":2592:2597   */\n  dup2\n    /* \"#utility.yul\":2588:2601   */\n  add\n    /* \"#utility.yul\":2579:2601   */\n  swap1\n  pop\n    /* \"#utility.yul\":2555:2675   */\n  jump(tag_60)\ntag_62:\n    /* \"#utility.yul\":2495:2681   */\n  pop\n  pop\n  jump\t// out\n    /* \"#utility.yul\":2687:3230   */\ntag_26:\n    /* \"#utility.yul\":2788:2790   */\n  0x1f\n    /* \"#utility.yul\":2783:2786   */\n  dup3\n    /* \"#utility.yul\":2780:2791   */\n  gt\n    /* \"#utility.yul\":2777:3223   */\n  iszero\n  tag_65\n  jumpi\n    /* \"#utility.yul\":2822:2860   */\n  tag_66\n    /* \"#utility.yul\":2854:2859   */\n  dup2\n    /* \"#utility.yul\":2822:2860   */\n  tag_14\n  jump\t// in\ntag_66:\n    /* \"#utility.yul\":2906:2935   */\n  tag_67\n    /* \"#utility.yul\":2924:2934   */\n  dup5\n    /* \"#utility.yul\":2906:2935   */\n  tag_15\n  jump\t// in\ntag_67:\n    /* \"#utility.yul\":2896:2904   */\n  dup2\n    /* \"#utility.yul\":2892:2936   */\n  add\n    /* \"#utility.yul\":3089:3091   */\n  0x20\n    /* \"#utility.yul\":3077:3087   */\n  dup6\n    /* \"#utility.yul\":3074:3092   */\n  lt\n    /* \"#utility.yul\":3071:3120   */\n  iszero\n  tag_68\n  jumpi\n    /* \"#utility.yul\":3110:3118   */\n  dup2\n    /* \"#utility.yul\":3095:3118   */\n  swap1\n  pop\n    /* \"#utility.yul\":3071:3120   */\ntag_68:\n    /* \"#utility.yul\":3133:3213   */\n  tag_69\n    /* \"#utility.yul\":3189:3211   */\n  tag_70\n    /* \"#utility.yul\":3207:3210   */\n  dup6\n    /* \"#utility.yul\":3189:3211   */\n  tag_15\n  jump\t// in\ntag_70:\n    /* \"#utility.yul\":3179:3187   */\n  dup4\n    /* \"#utility.yul\":3175:3212   */\n  add\n    /* \"#utility.yul\":3162:3173   */\n  dup3\n    /* \"#utility.yul\":3133:3213   */\n  tag_25\n  jump\t// in\ntag_69:\n    /* \"#utility.yul\":2792:3223   */\n  pop\n  pop\n    /* \"#utility.yul\":2777:3223   */\ntag_65:\n    /* \"#utility.yul\":2687:3230   */\n  pop\n  pop\n  pop\n  jump\t// out\n    /* \"#utility.yul\":3236:3353   */\ntag_27:\n    /* \"#utility.yul\":3290:3298   */\n  0x00\n    /* \"#utility.yul\":3340:3345   */\n  dup3\n    /* \"#utility.yul\":3334:3338   */\n  dup3\n    /* \"#utility.yul\":3330:3346   */\n  shr\n    /* \"#utility.yul\":3309:3346   */\n  swap1\n  pop\n    /* \"#utility.yul\":3236:3353   */\n  swap3\n  swap2\n  pop\n  pop\n  jump\t// out\n    /* \"#utility.yul\":3359:3528   */\ntag_28:\n    /* \"#utility.yul\":3403:3409   */\n  0x00\n    /* \"#utility.yul\":3436:3487   */\n  tag_73\n    /* \"#utility.yul\":3484:3485   */\n  0x00\n    /* \"#utility.yul\":3480:3486   */\n  not\n    /* \"#utility.yul\":3472:3477   */\n  dup5\n    /* \"#utility.yul\":3469:3470   */\n  0x08\n    /* \"#utility.yul\":3465:3478   */\n  mul\n    /* \"#utility.yul\":3436:3487   */\n  tag_27\n  jump\t// in\ntag_73:\n    /* \"#utility.yul\":3432:3488   */\n  not\n    /* \"#utility.yul\":3517:3521   */\n  dup1\n    /* \"#utility.yul\":3511:3515   */\n  dup4\n    /* \"#utility.yul\":3507:3522   */\n  and\n    /* \"#utility.yul\":3497:3522   */\n  swap2\n  pop\n    /* \"#utility.yul\":3410:3528   */\n  pop\n    /* \"#utility.yul\":3359:3528   */\n  swap3\n  swap2\n  pop\n  pop\n  jump\t// out\n    /* \"#utility.yul\":3533:3828   */\ntag_29:\n    /* \"#utility.yul\":3609:3613   */\n  0x00\n    /* \"#utility.yul\":3755:3784   */\n  tag_75\n    /* \"#utility.yul\":3780:3783   */\n  dup4\n    /* \"#utility.yul\":3774:3778   */\n  dup4\n    /* \"#utility.yul\":3755:3784   */\n  tag_28\n  jump\t// in\ntag_75:\n    /* \"#utility.yul\":3747:3784   */\n  swap2\n  pop\n    /* \"#utility.yul\":3817:3820   */\n  dup3\n    /* \"#utility.yul\":3814:3815   */\n  0x02\n    /* \"#utility.yul\":3810:3821   */\n  mul\n    /* \"#utility.yul\":3804:3808   */\n  dup3\n    /* \"#utility.yul\":3801:3822   */\n  or\n    /* \"#utility.yul\":3793:3822   */\n  swap1\n  pop\n    /* \"#utility.yul\":3533:3828   */\n  swap3\n  swap2\n  pop\n  pop\n  jump\t// out\n    /* \"#utility.yul\":3833:5228   */\ntag_2:\n    /* \"#utility.yul\":3950:3987   */\n  tag_77\n    /* \"#utility.yul\":3983:3986   */\n  dup3\n    /* \"#utility.yul\":3950:3987   */\n  tag_10\n  jump\t// in\ntag_77:\n    /* \"#utility.yul\":4052:4070   */\n  0xffffffffffffffff\n    /* \"#utility.yul\":4044:4050   */\n  dup2\n    /* \"#utility.yul\":4041:4071   */\n  gt\n    /* \"#utility.yul\":4038:4094   */\n  iszero\n  tag_78\n  jumpi\n    /* \"#utility.yul\":4074:4092   */\n  tag_79\n  tag_11\n  jump\t// in\ntag_79:\n    /* \"#utility.yul\":4038:4094   */\ntag_78:\n    /* \"#utility.yul\":4118:4156   */\n  tag_80\n    /* \"#utility.yul\":4150:4154   */\n  dup3\n    /* \"#utility.yul\":4144:4155   */\n  sload\n    /* \"#utility.yul\":4118:4156   */\n  tag_13\n  jump\t// in\ntag_80:\n    /* \"#utility.yul\":4203:4270   */\n  tag_81\n    /* \"#utility.yul\":4263:4269   */\n  dup3\n    /* \"#utility.yul\":4255:4261   */\n  dup3\n    /* \"#utility.yul\":4249:4253   */\n  dup6\n    /* \"#utility.yul\":4203:4270   */\n  tag_26\n  jump\t// in\ntag_81:\n    /* \"#utility.yul\":4297:4298   */\n  0x00\n    /* \"#utility.yul\":4321:4325   */\n  0x20\n    /* \"#utility.yul\":4308:4325   */\n  swap1\n  pop\n    /* \"#utility.yul\":4353:4355   */\n  0x1f\n    /* \"#utility.yul\":4345:4351   */\n  dup4\n    /* \"#utility.yul\":4342:4356   */\n  gt\n    /* \"#utility.yul\":4370:4371   */\n  0x01\n    /* \"#utility.yul\":4365:4983   */\n  dup2\n  eq\n  tag_83\n  jumpi\n    /* \"#utility.yul\":5027:5028   */\n  0x00\n    /* \"#utility.yul\":5044:5050   */\n  dup5\n    /* \"#utility.yul\":5041:5118   */\n  iszero\n  tag_84\n  jumpi\n    /* \"#utility.yul\":5093:5102   */\n  dup3\n    /* \"#utility.yul\":5088:5091   */\n  dup8\n    /* \"#utility.yul\":5084:5103   */\n  add\n    /* \"#utility.yul\":5078:5104   */\n  mload\n    /* \"#utility.yul\":5069:5104   */\n  swap1\n  pop\n    /* \"#utility.yul\":5041:5118   */\ntag_84:\n    /* \"#utility.yul\":5144:5211   */\n  tag_85\n    /* \"#utility.yul\":5204:5210   */\n  dup6\n    /* \"#utility.yul\":5197:5202   */\n  dup3\n    /* \"#utility.yul\":5144:5211   */\n  tag_29\n  jump\t// in\ntag_85:\n    /* \"#utility.yul\":5138:5142   */\n  dup7\n    /* \"#utility.yul\":5131:5212   */\n  sstore\n    /* \"#utility.yul\":5000:5222   */\n  pop\n    /* \"#utility.yul\":4335:5222   */\n  jump(tag_82)\n    /* \"#utility.yul\":4365:4983   */\ntag_83:\n    /* \"#utility.yul\":4417:4421   */\n  0x1f\n    /* \"#utility.yul\":4413:4422   */\n  not\n    /* \"#utility.yul\":4405:4411   */\n  dup5\n    /* \"#utility.yul\":4401:4423   */\n  and\n    /* \"#utility.yul\":4451:4488   */\n  tag_86\n    /* \"#utility.yul\":4483:4487   */\n  dup7\n    /* \"#utility.yul\":4451:4488   */\n  tag_14\n  jump\t// in\ntag_86:\n    /* \"#utility.yul\":4510:4511   */\n  0x00\n    /* \"#utility.yul\":4524:4732   */\ntag_87:\n    /* \"#utility.yul\":4538:4545   */\n  dup3\n    /* \"#utility.yul\":4535:4536   */\n  dup2\n    /* \"#utility.yul\":4532:4546   */\n  lt\n    /* \"#utility.yul\":4524:4732   */\n  iszero\n  tag_89\n  jumpi\n    /* \"#utility.yul\":4617:4626   */\n  dup5\n    /* \"#utility.yul\":4612:4615   */\n  dup10\n    /* \"#utility.yul\":4608:4627   */\n  add\n    /* \"#utility.yul\":4602:4628   */\n  mload\n    /* \"#utility.yul\":4594:4600   */\n  dup3\n    /* \"#utility.yul\":4587:4629   */\n  sstore\n    /* \"#utility.yul\":4668:4669   */\n  0x01\n    /* \"#utility.yul\":4660:4666   */\n  dup3\n    /* \"#utility.yul\":4656:4670   */\n  add\n    /* \"#utility.yul\":4646:4670   */\n  swap2\n  pop\n    /* \"#utility.yul\":4715:4717   */\n  0x20\n    /* \"#utility.yul\":4704:4713   */\n  dup6\n    /* \"#utility.yul\":4700:4718   */\n  add\n    /* \"#utility.yul\":4687:4718   */\n  swap5\n  pop\n    /* \"#utility.yul\":4561:4565   */\n  0x20\n    /* \"#utility.yul\":4558:4559   */\n  dup2\n    /* \"#utility.yul\":4554:4566   */\n  add\n    /* \"#utility.yul\":4549:4566   */\n  swap1\n  pop\n    /* \"#utility.yul\":4524:4732   */\n  jump(tag_87)\ntag_89:\n    /* \"#utility.yul\":4760:4766   */\n  dup7\n    /* \"#utility.yul\":4751:4758   */\n  dup4\n    /* \"#utility.yul\":4748:4767   */\n  lt\n    /* \"#utility.yul\":4745:4924   */\n  iszero\n  tag_90\n  jumpi\n    /* \"#utility.yul\":4818:4827   */\n  dup5\n    /* \"#utility.yul\":4813:4816   */\n  dup10\n    /* \"#utility.yul\":4809:4828   */\n  add\n    /* \"#utility.yul\":4803:4829   */\n  mload\n    /* \"#utility.yul\":4861:4909   */\n  tag_91\n    /* \"#utility.yul\":4903:4907   */\n  0x1f\n    /* \"#utility.yul\":4895:4901   */\n  dup10\n    /* \"#utility.yul\":4891:4908   */\n  and\n    /* \"#utility.yul\":4880:4889   */\n  dup3\n    /* \"#utility.yul\":4861:4909   */\n  tag_28\n  jump\t// in\ntag_91:\n    /* \"#utility.yul\":4853:4859   */\n  dup4\n    /* \"#utility.yul\":4846:4910   */\n  sstore\n    /* \"#utility.yul\":4768:4924   */\n  pop\n    /* \"#utility.yul\":4745:4924   */\ntag_90:\n    /* \"#utility.yul\":4970:4971   */\n  0x01\n    /* \"#utility.yul\":4966:4967   */\n  0x02\n    /* \"#utility.yul\":4958:4964   */\n  dup9\n    /* \"#utility.yul\":4954:4968   */\n  mul\n    /* \"#utility.yul\":4950:4972   */\n  add\n    /* \"#utility.yul\":4944:4948   */\n  dup9\n    /* \"#utility.yul\":4937:4973   */\n  sstore\n    /* \"#utility.yul\":4372:4983   */\n  pop\n  pop\n  pop\n    /* \"#utility.yul\":4335:5222   */\ntag_82:\n  pop\n    /* \"#utility.yul\":3925:5228   */\n  pop\n  pop\n  pop\n    /* \"#utility.yul\":3833:5228   */\n  pop\n  pop\n  jump\t// out\n    /* \"contracts/6_Mapping.sol\":56:1308  contract Map {... */\ntag_9:\n  dataSize(sub_0)\n  dup1\n  dataOffset(sub_0)\n  0x00\n  codecopy\n  0x00\n  return\nstop\n\nsub_0: assembly {\n        /* \"contracts/6_Mapping.sol\":56:1308  contract Map {... */\n      mstore(0x40, 0x80)\n      callvalue\n      dup1\n      iszero\n      tag_1\n      jumpi\n      revert(0x00, 0x00)\n    tag_1:\n      pop\n      jumpi(tag_2, lt(calldatasize, 0x04))\n      shr(0xe0, calldataload(0x00))\n      dup1\n      0x248752df\n      eq\n      tag_3\n      jumpi\n      dup1\n      0x34556801\n      eq\n      tag_4\n      jumpi\n      dup1\n      0x4622ab03\n      eq\n      tag_5\n      jumpi\n      dup1\n      0x68744046\n      eq\n      tag_6\n      jumpi\n      dup1\n      0x963b0cb8\n      eq\n      tag_7\n      jumpi\n      dup1\n      0x9d748d16\n      eq\n      tag_8\n      jumpi\n    tag_2:\n      revert(0x00, 0x00)\n        /* \"contracts/6_Mapping.sol\":937:996  mapping(address => mapping(uint => Book)) public myAllBooks */\n    tag_3:\n      tag_9\n      0x04\n      dup1\n      calldatasize\n      sub\n      dup2\n      add\n      swap1\n      tag_10\n      swap2\n      swap1\n      tag_11\n      jump\t// in\n    tag_10:\n      tag_12\n      jump\t// in\n    tag_9:\n      mload(0x40)\n      tag_13\n      swap4\n      swap3\n      swap2\n      swap1\n      tag_14\n      jump\t// in\n    tag_13:\n      mload(0x40)\n      dup1\n      swap2\n      sub\n      swap1\n      return\n        /* \"contracts/6_Mapping.sol\":1003:1213  function AddMyAllBooks(... */\n    tag_4:\n      tag_15\n      0x04\n      dup1\n      calldatasize\n      sub\n      dup2\n      add\n      swap1\n      tag_16\n      swap2\n      swap1\n      tag_17\n      jump\t// in\n    tag_16:\n      tag_18\n      jump\t// in\n    tag_15:\n      stop\n        /* \"contracts/6_Mapping.sol\":161:197  mapping(uint => string) public names */\n    tag_5:\n      tag_19\n      0x04\n      dup1\n      calldatasize\n      sub\n      dup2\n      add\n      swap1\n      tag_20\n      swap2\n      swap1\n      tag_21\n      jump\t// in\n    tag_20:\n      tag_22\n      jump\t// in\n    tag_19:\n      mload(0x40)\n      tag_23\n      swap2\n      swap1\n      tag_24\n      jump\t// in\n    tag_23:\n      mload(0x40)\n      dup1\n      swap2\n      sub\n      swap1\n      return\n        /* \"contracts/6_Mapping.sol\":575:609  mapping(uint => Book) public books */\n    tag_6:\n      tag_25\n      0x04\n      dup1\n      calldatasize\n      sub\n      dup2\n      add\n      swap1\n      tag_26\n      swap2\n      swap1\n      tag_21\n      jump\t// in\n    tag_26:\n      tag_27\n      jump\t// in\n    tag_25:\n      mload(0x40)\n      tag_28\n      swap4\n      swap3\n      swap2\n      swap1\n      tag_14\n      jump\t// in\n    tag_28:\n      mload(0x40)\n      dup1\n      swap2\n      sub\n      swap1\n      return\n        /* \"contracts/6_Mapping.sol\":617:804  function AddBook(... */\n    tag_7:\n      tag_29\n      0x04\n      dup1\n      calldatasize\n      sub\n      dup2\n      add\n      swap1\n      tag_30\n      swap2\n      swap1\n      tag_17\n      jump\t// in\n    tag_30:\n      tag_31\n      jump\t// in\n    tag_29:\n      stop\n        /* \"contracts/6_Mapping.sol\":481:529  Book public myBook1 = Book(7, \"finance\", \"Alex\") */\n    tag_8:\n      tag_32\n      tag_33\n      jump\t// in\n    tag_32:\n      mload(0x40)\n      tag_34\n      swap4\n      swap3\n      swap2\n      swap1\n      tag_14\n      jump\t// in\n    tag_34:\n      mload(0x40)\n      dup1\n      swap2\n      sub\n      swap1\n      return\n        /* \"contracts/6_Mapping.sol\":937:996  mapping(address => mapping(uint => Book)) public myAllBooks */\n    tag_12:\n      mstore(0x20, 0x05)\n      dup2\n      0x00\n      mstore\n      mstore(0x20, keccak256(0x00, 0x40))\n      dup1\n      0x00\n      mstore\n      keccak256(0x00, 0x40)\n      0x00\n      swap2\n      pop\n      swap2\n      pop\n      pop\n      dup1\n      0x00\n      add\n      sload\n      swap1\n      dup1\n      0x01\n      add\n      dup1\n      sload\n      tag_35\n      swap1\n      tag_36\n      jump\t// in\n    tag_35:\n      dup1\n      0x1f\n      add\n      0x20\n      dup1\n      swap2\n      div\n      mul\n      0x20\n      add\n      mload(0x40)\n      swap1\n      dup2\n      add\n      0x40\n      mstore\n      dup1\n      swap3\n      swap2\n      swap1\n      dup2\n      dup2\n      mstore\n      0x20\n      add\n      dup3\n      dup1\n      sload\n      tag_37\n      swap1\n      tag_36\n      jump\t// in\n    tag_37:\n      dup1\n      iszero\n      tag_38\n      jumpi\n      dup1\n      0x1f\n      lt\n      tag_39\n      jumpi\n      0x0100\n      dup1\n      dup4\n      sload\n      div\n      mul\n      dup4\n      mstore\n      swap2\n      0x20\n      add\n      swap2\n      jump(tag_38)\n    tag_39:\n      dup3\n      add\n      swap2\n      swap1\n      0x00\n      mstore\n      keccak256(0x00, 0x20)\n      swap1\n    tag_40:\n      dup2\n      sload\n      dup2\n      mstore\n      swap1\n      0x01\n      add\n      swap1\n      0x20\n      add\n      dup1\n      dup4\n      gt\n      tag_40\n      jumpi\n      dup3\n      swap1\n      sub\n      0x1f\n      and\n      dup3\n      add\n      swap2\n    tag_38:\n      pop\n      pop\n      pop\n      pop\n      pop\n      swap1\n      dup1\n      0x02\n      add\n      dup1\n      sload\n      tag_41\n      swap1\n      tag_36\n      jump\t// in\n    tag_41:\n      dup1\n      0x1f\n      add\n      0x20\n      dup1\n      swap2\n      div\n      mul\n      0x20\n      add\n      mload(0x40)\n      swap1\n      dup2\n      add\n      0x40\n      mstore\n      dup1\n      swap3\n      swap2\n      swap1\n      dup2\n      dup2\n      mstore\n      0x20\n      add\n      dup3\n      dup1\n      sload\n      tag_42\n      swap1\n      tag_36\n      jump\t// in\n    tag_42:\n      dup1\n      iszero\n      tag_43\n      jumpi\n      dup1\n      0x1f\n      lt\n      tag_44\n      jumpi\n      0x0100\n      dup1\n      dup4\n      sload\n      div\n      mul\n      dup4\n      mstore\n      swap2\n      0x20\n      add\n      swap2\n      jump(tag_43)\n    tag_44:\n      dup3\n      add\n      swap2\n      swap1\n      0x00\n      mstore\n      keccak256(0x00, 0x20)\n      swap1\n    tag_45:\n      dup2\n      sload\n      dup2\n      mstore\n      swap1\n      0x01\n      add\n      swap1\n      0x20\n      add\n      dup1\n      dup4\n      gt\n      tag_45\n      jumpi\n      dup3\n      swap1\n      sub\n      0x1f\n      and\n      dup3\n      add\n      swap2\n    tag_43:\n      pop\n      pop\n      pop\n      pop\n      pop\n      swap1\n      pop\n      dup4\n      jump\t// out\n        /* \"contracts/6_Mapping.sol\":1003:1213  function AddMyAllBooks(... */\n    tag_18:\n        /* \"contracts/6_Mapping.sol\":1178:1206  Book(_page, _title, _author) */\n      mload(0x40)\n      dup1\n      0x60\n      add\n      0x40\n      mstore\n      dup1\n        /* \"contracts/6_Mapping.sol\":1183:1188  _page */\n      dup5\n        /* \"contracts/6_Mapping.sol\":1178:1206  Book(_page, _title, _author) */\n      dup2\n      mstore\n      0x20\n      add\n        /* \"contracts/6_Mapping.sol\":1190:1196  _title */\n      dup4\n        /* \"contracts/6_Mapping.sol\":1178:1206  Book(_page, _title, _author) */\n      dup2\n      mstore\n      0x20\n      add\n        /* \"contracts/6_Mapping.sol\":1198:1205  _author */\n      dup3\n        /* \"contracts/6_Mapping.sol\":1178:1206  Book(_page, _title, _author) */\n      dup2\n      mstore\n      pop\n        /* \"contracts/6_Mapping.sol\":1148:1158  myAllBooks */\n      0x05\n        /* \"contracts/6_Mapping.sol\":1148:1170  myAllBooks[msg.sender] */\n      0x00\n        /* \"contracts/6_Mapping.sol\":1159:1169  msg.sender */\n      caller\n        /* \"contracts/6_Mapping.sol\":1148:1170  myAllBooks[msg.sender] */\n      0xffffffffffffffffffffffffffffffffffffffff\n      and\n      0xffffffffffffffffffffffffffffffffffffffff\n      and\n      dup2\n      mstore\n      0x20\n      add\n      swap1\n      dup2\n      mstore\n      0x20\n      add\n      0x00\n      keccak256\n        /* \"contracts/6_Mapping.sol\":1148:1175  myAllBooks[msg.sender][_id] */\n      0x00\n        /* \"contracts/6_Mapping.sol\":1171:1174  _id */\n      dup7\n        /* \"contracts/6_Mapping.sol\":1148:1175  myAllBooks[msg.sender][_id] */\n      dup2\n      mstore\n      0x20\n      add\n      swap1\n      dup2\n      mstore\n      0x20\n      add\n      0x00\n      keccak256\n        /* \"contracts/6_Mapping.sol\":1148:1206  myAllBooks[msg.sender][_id] = Book(_page, _title, _author) */\n      0x00\n      dup3\n      add\n      mload\n      dup2\n      0x00\n      add\n      sstore\n      0x20\n      dup3\n      add\n      mload\n      dup2\n      0x01\n      add\n      swap1\n      dup2\n      tag_47\n      swap2\n      swap1\n      tag_48\n      jump\t// in\n    tag_47:\n      pop\n      0x40\n      dup3\n      add\n      mload\n      dup2\n      0x02\n      add\n      swap1\n      dup2\n      tag_49\n      swap2\n      swap1\n      tag_48\n      jump\t// in\n    tag_49:\n      pop\n      swap1\n      pop\n      pop\n        /* \"contracts/6_Mapping.sol\":1003:1213  function AddMyAllBooks(... */\n      pop\n      pop\n      pop\n      pop\n      jump\t// out\n        /* \"contracts/6_Mapping.sol\":161:197  mapping(uint => string) public names */\n    tag_22:\n      mstore(0x20, 0x00)\n      dup1\n      0x00\n      mstore\n      keccak256(0x00, 0x40)\n      0x00\n      swap2\n      pop\n      swap1\n      pop\n      dup1\n      sload\n      tag_50\n      swap1\n      tag_36\n      jump\t// in\n    tag_50:\n      dup1\n      0x1f\n      add\n      0x20\n      dup1\n      swap2\n      div\n      mul\n      0x20\n      add\n      mload(0x40)\n      swap1\n      dup2\n      add\n      0x40\n      mstore\n      dup1\n      swap3\n      swap2\n      swap1\n      dup2\n      dup2\n      mstore\n      0x20\n      add\n      dup3\n      dup1\n      sload\n      tag_51\n      swap1\n      tag_36\n      jump\t// in\n    tag_51:\n      dup1\n      iszero\n      tag_52\n      jumpi\n      dup1\n      0x1f\n      lt\n      tag_53\n      jumpi\n      0x0100\n      dup1\n      dup4\n      sload\n      div\n      mul\n      dup4\n      mstore\n      swap2\n      0x20\n      add\n      swap2\n      jump(tag_52)\n    tag_53:\n      dup3\n      add\n      swap2\n      swap1\n      0x00\n      mstore\n      keccak256(0x00, 0x20)\n      swap1\n    tag_54:\n      dup2\n      sload\n      dup2\n      mstore\n      swap1\n      0x01\n      add\n      swap1\n      0x20\n      add\n      dup1\n      dup4\n      gt\n      tag_54\n      jumpi\n      dup3\n      swap1\n      sub\n      0x1f\n      and\n      dup3\n      add\n      swap2\n    tag_52:\n      pop\n      pop\n      pop\n      pop\n      pop\n      dup2\n      jump\t// out\n        /* \"contracts/6_Mapping.sol\":575:609  mapping(uint => Book) public books */\n    tag_27:\n      mstore(0x20, 0x04)\n      dup1\n      0x00\n      mstore\n      keccak256(0x00, 0x40)\n      0x00\n      swap2\n      pop\n      swap1\n      pop\n      dup1\n      0x00\n      add\n      sload\n      swap1\n      dup1\n      0x01\n      add\n      dup1\n      sload\n      tag_55\n      swap1\n      tag_36\n      jump\t// in\n    tag_55:\n      dup1\n      0x1f\n      add\n      0x20\n      dup1\n      swap2\n      div\n      mul\n      0x20\n      add\n      mload(0x40)\n      swap1\n      dup2\n      add\n      0x40\n      mstore\n      dup1\n      swap3\n      swap2\n      swap1\n      dup2\n      dup2\n      mstore\n      0x20\n      add\n      dup3\n      dup1\n      sload\n      tag_56\n      swap1\n      tag_36\n      jump\t// in\n    tag_56:\n      dup1\n      iszero\n      tag_57\n      jumpi\n      dup1\n      0x1f\n      lt\n      tag_58\n      jumpi\n      0x0100\n      dup1\n      dup4\n      sload\n      div\n      mul\n      dup4\n      mstore\n      swap2\n      0x20\n      add\n      swap2\n      jump(tag_57)\n    tag_58:\n      dup3\n      add\n      swap2\n      swap1\n      0x00\n      mstore\n      keccak256(0x00, 0x20)\n      swap1\n    tag_59:\n      dup2\n      sload\n      dup2\n      mstore\n      swap1\n      0x01\n      add\n      swap1\n      0x20\n      add\n      dup1\n      dup4\n      gt\n      tag_59\n      jumpi\n      dup3\n      swap1\n      sub\n      0x1f\n      and\n      dup3\n      add\n      swap2\n    tag_57:\n      pop\n      pop\n      pop\n      pop\n      pop\n      swap1\n      dup1\n      0x02\n      add\n      dup1\n      sload\n      tag_60\n      swap1\n      tag_36\n      jump\t// in\n    tag_60:\n      dup1\n      0x1f\n      add\n      0x20\n      dup1\n      swap2\n      div\n      mul\n      0x20\n      add\n      mload(0x40)\n      swap1\n      dup2\n      add\n      0x40\n      mstore\n      dup1\n      swap3\n      swap2\n      swap1\n      dup2\n      dup2\n      mstore\n      0x20\n      add\n      dup3\n      dup1\n      sload\n      tag_61\n      swap1\n      tag_36\n      jump\t// in\n    tag_61:\n      dup1\n      iszero\n      tag_62\n      jumpi\n      dup1\n      0x1f\n      lt\n      tag_63\n      jumpi\n      0x0100\n      dup1\n      dup4\n      sload\n      div\n      mul\n      dup4\n      mstore\n      swap2\n      0x20\n      add\n      swap2\n      jump(tag_62)\n    tag_63:\n      dup3\n      add\n      swap2\n      swap1\n      0x00\n      mstore\n      keccak256(0x00, 0x20)\n      swap1\n    tag_64:\n      dup2\n      sload\n      dup2\n      mstore\n      swap1\n      0x01\n      add\n      swap1\n      0x20\n      add\n      dup1\n      dup4\n      gt\n      tag_64\n      jumpi\n      dup3\n      swap1\n      sub\n      0x1f\n      and\n      dup3\n      add\n      swap2\n    tag_62:\n      pop\n      pop\n      pop\n      pop\n      pop\n      swap1\n      pop\n      dup4\n      jump\t// out\n        /* \"contracts/6_Mapping.sol\":617:804  function AddBook(... */\n    tag_31:\n        /* \"contracts/6_Mapping.sol\":769:797  Book(_page, _title, _author) */\n      mload(0x40)\n      dup1\n      0x60\n      add\n      0x40\n      mstore\n      dup1\n        /* \"contracts/6_Mapping.sol\":774:779  _page */\n      dup5\n        /* \"contracts/6_Mapping.sol\":769:797  Book(_page, _title, _author) */\n      dup2\n      mstore\n      0x20\n      add\n        /* \"contracts/6_Mapping.sol\":781:787  _title */\n      dup4\n        /* \"contracts/6_Mapping.sol\":769:797  Book(_page, _title, _author) */\n      dup2\n      mstore\n      0x20\n      add\n        /* \"contracts/6_Mapping.sol\":789:796  _author */\n      dup3\n        /* \"contracts/6_Mapping.sol\":769:797  Book(_page, _title, _author) */\n      dup2\n      mstore\n      pop\n        /* \"contracts/6_Mapping.sol\":756:761  books */\n      0x04\n        /* \"contracts/6_Mapping.sol\":756:766  books[_id] */\n      0x00\n        /* \"contracts/6_Mapping.sol\":762:765  _id */\n      dup7\n        /* \"contracts/6_Mapping.sol\":756:766  books[_id] */\n      dup2\n      mstore\n      0x20\n      add\n      swap1\n      dup2\n      mstore\n      0x20\n      add\n      0x00\n      keccak256\n        /* \"contracts/6_Mapping.sol\":756:797  books[_id] = Book(_page, _title, _author) */\n      0x00\n      dup3\n      add\n      mload\n      dup2\n      0x00\n      add\n      sstore\n      0x20\n      dup3\n      add\n      mload\n      dup2\n      0x01\n      add\n      swap1\n      dup2\n      tag_66\n      swap2\n      swap1\n      tag_48\n      jump\t// in\n    tag_66:\n      pop\n      0x40\n      dup3\n      add\n      mload\n      dup2\n      0x02\n      add\n      swap1\n      dup2\n      tag_67\n      swap2\n      swap1\n      tag_48\n      jump\t// in\n    tag_67:\n      pop\n      swap1\n      pop\n      pop\n        /* \"contracts/6_Mapping.sol\":617:804  function AddBook(... */\n      pop\n      pop\n      pop\n      pop\n      jump\t// out\n        /* \"contracts/6_Mapping.sol\":481:529  Book public myBook1 = Book(7, \"finance\", \"Alex\") */\n    tag_33:\n      0x01\n      dup1\n      0x00\n      add\n      sload\n      swap1\n      dup1\n      0x01\n      add\n      dup1\n      sload\n      tag_68\n      swap1\n      tag_36\n      jump\t// in\n    tag_68:\n      dup1\n      0x1f\n      add\n      0x20\n      dup1\n      swap2\n      div\n      mul\n      0x20\n      add\n      mload(0x40)\n      swap1\n      dup2\n      add\n      0x40\n      mstore\n      dup1\n      swap3\n      swap2\n      swap1\n      dup2\n      dup2\n      mstore\n      0x20\n      add\n      dup3\n      dup1\n      sload\n      tag_69\n      swap1\n      tag_36\n      jump\t// in\n    tag_69:\n      dup1\n      iszero\n      tag_70\n      jumpi\n      dup1\n      0x1f\n      lt\n      tag_71\n      jumpi\n      0x0100\n      dup1\n      dup4\n      sload\n      div\n      mul\n      dup4\n      mstore\n      swap2\n      0x20\n      add\n      swap2\n      jump(tag_70)\n    tag_71:\n      dup3\n      add\n      swap2\n      swap1\n      0x00\n      mstore\n      keccak256(0x00, 0x20)\n      swap1\n    tag_72:\n      dup2\n      sload\n      dup2\n      mstore\n      swap1\n      0x01\n      add\n      swap1\n      0x20\n      add\n      dup1\n      dup4\n      gt\n      tag_72\n      jumpi\n      dup3\n      swap1\n      sub\n      0x1f\n      and\n      dup3\n      add\n      swap2\n    tag_70:\n      pop\n      pop\n      pop\n      pop\n      pop\n      swap1\n      dup1\n      0x02\n      add\n      dup1\n      sload\n      tag_73\n      swap1\n      tag_36\n      jump\t// in\n    tag_73:\n      dup1\n      0x1f\n      add\n      0x20\n      dup1\n      swap2\n      div\n      mul\n      0x20\n      add\n      mload(0x40)\n      swap1\n      dup2\n      add\n      0x40\n      mstore\n      dup1\n      swap3\n      swap2\n      swap1\n      dup2\n      dup2\n      mstore\n      0x20\n      add\n      dup3\n      dup1\n      sload\n      tag_74\n      swap1\n      tag_36\n      jump\t// in\n    tag_74:\n      dup1\n      iszero\n      tag_75\n      jumpi\n      dup1\n      0x1f\n      lt\n      tag_76\n      jumpi\n      0x0100\n      dup1\n      dup4\n      sload\n      div\n      mul\n      dup4\n      mstore\n      swap2\n      0x20\n      add\n      swap2\n      jump(tag_75)\n    tag_76:\n      dup3\n      add\n      swap2\n      swap1\n      0x00\n      mstore\n      keccak256(0x00, 0x20)\n      swap1\n    tag_77:\n      dup2\n      sload\n      dup2\n      mstore\n      swap1\n      0x01\n      add\n      swap1\n      0x20\n      add\n      dup1\n      dup4\n      gt\n      tag_77\n      jumpi\n      dup3\n      swap1\n      sub\n      0x1f\n      and\n      dup3\n      add\n      swap2\n    tag_75:\n      pop\n      pop\n      pop\n      pop\n      pop\n      swap1\n      pop\n      dup4\n      jump\t// out\n        /* \"#utility.yul\":7:82   */\n    tag_78:\n        /* \"#utility.yul\":40:46   */\n      0x00\n        /* \"#utility.yul\":73:75   */\n      0x40\n        /* \"#utility.yul\":67:76   */\n      mload\n        /* \"#utility.yul\":57:76   */\n      swap1\n      pop\n        /* \"#utility.yul\":7:82   */\n      swap1\n      jump\t// out\n        /* \"#utility.yul\":88:205   */\n    tag_79:\n        /* \"#utility.yul\":197:198   */\n      0x00\n        /* \"#utility.yul\":194:195   */\n      0x00\n        /* \"#utility.yul\":187:199   */\n      revert\n        /* \"#utility.yul\":211:328   */\n    tag_80:\n        /* \"#utility.yul\":320:321   */\n      0x00\n        /* \"#utility.yul\":317:318   */\n      0x00\n        /* \"#utility.yul\":310:322   */\n      revert\n        /* \"#utility.yul\":334:460   */\n    tag_81:\n        /* \"#utility.yul\":371:378   */\n      0x00\n        /* \"#utility.yul\":411:453   */\n      0xffffffffffffffffffffffffffffffffffffffff\n        /* \"#utility.yul\":404:409   */\n      dup3\n        /* \"#utility.yul\":400:454   */\n      and\n        /* \"#utility.yul\":389:454   */\n      swap1\n      pop\n        /* \"#utility.yul\":334:460   */\n      swap2\n      swap1\n      pop\n      jump\t// out\n        /* \"#utility.yul\":466:562   */\n    tag_82:\n        /* \"#utility.yul\":503:510   */\n      0x00\n        /* \"#utility.yul\":532:556   */\n      tag_125\n        /* \"#utility.yul\":550:555   */\n      dup3\n        /* \"#utility.yul\":532:556   */\n      tag_81\n      jump\t// in\n    tag_125:\n        /* \"#utility.yul\":521:556   */\n      swap1\n      pop\n        /* \"#utility.yul\":466:562   */\n      swap2\n      swap1\n      pop\n      jump\t// out\n        /* \"#utility.yul\":568:690   */\n    tag_83:\n        /* \"#utility.yul\":641:665   */\n      tag_127\n        /* \"#utility.yul\":659:664   */\n      dup2\n        /* \"#utility.yul\":641:665   */\n      tag_82\n      jump\t// in\n    tag_127:\n        /* \"#utility.yul\":634:639   */\n      dup2\n        /* \"#utility.yul\":631:666   */\n      eq\n        /* \"#utility.yul\":621:684   */\n      tag_128\n      jumpi\n        /* \"#utility.yul\":680:681   */\n      0x00\n        /* \"#utility.yul\":677:678   */\n      0x00\n        /* \"#utility.yul\":670:682   */\n      revert\n        /* \"#utility.yul\":621:684   */\n    tag_128:\n        /* \"#utility.yul\":568:690   */\n      pop\n      jump\t// out\n        /* \"#utility.yul\":696:835   */\n    tag_84:\n        /* \"#utility.yul\":742:747   */\n      0x00\n        /* \"#utility.yul\":780:786   */\n      dup2\n        /* \"#utility.yul\":767:787   */\n      calldataload\n        /* \"#utility.yul\":758:787   */\n      swap1\n      pop\n        /* \"#utility.yul\":796:829   */\n      tag_130\n        /* \"#utility.yul\":823:828   */\n      dup2\n        /* \"#utility.yul\":796:829   */\n      tag_83\n      jump\t// in\n    tag_130:\n        /* \"#utility.yul\":696:835   */\n      swap3\n      swap2\n      pop\n      pop\n      jump\t// out\n        /* \"#utility.yul\":841:918   */\n    tag_85:\n        /* \"#utility.yul\":878:885   */\n      0x00\n        /* \"#utility.yul\":907:912   */\n      dup2\n        /* \"#utility.yul\":896:912   */\n      swap1\n      pop\n        /* \"#utility.yul\":841:918   */\n      swap2\n      swap1\n      pop\n      jump\t// out\n        /* \"#utility.yul\":924:1046   */\n    tag_86:\n        /* \"#utility.yul\":997:1021   */\n      tag_133\n        /* \"#utility.yul\":1015:1020   */\n      dup2\n        /* \"#utility.yul\":997:1021   */\n      tag_85\n      jump\t// in\n    tag_133:\n        /* \"#utility.yul\":990:995   */\n      dup2\n        /* \"#utility.yul\":987:1022   */\n      eq\n        /* \"#utility.yul\":977:1040   */\n      tag_134\n      jumpi\n        /* \"#utility.yul\":1036:1037   */\n      0x00\n        /* \"#utility.yul\":1033:1034   */\n      0x00\n        /* \"#utility.yul\":1026:1038   */\n      revert\n        /* \"#utility.yul\":977:1040   */\n    tag_134:\n        /* \"#utility.yul\":924:1046   */\n      pop\n      jump\t// out\n        /* \"#utility.yul\":1052:1191   */\n    tag_87:\n        /* \"#utility.yul\":1098:1103   */\n      0x00\n        /* \"#utility.yul\":1136:1142   */\n      dup2\n        /* \"#utility.yul\":1123:1143   */\n      calldataload\n        /* \"#utility.yul\":1114:1143   */\n      swap1\n      pop\n        /* \"#utility.yul\":1152:1185   */\n      tag_136\n        /* \"#utility.yul\":1179:1184   */\n      dup2\n        /* \"#utility.yul\":1152:1185   */\n      tag_86\n      jump\t// in\n    tag_136:\n        /* \"#utility.yul\":1052:1191   */\n      swap3\n      swap2\n      pop\n      pop\n      jump\t// out\n        /* \"#utility.yul\":1197:1671   */\n    tag_11:\n        /* \"#utility.yul\":1265:1271   */\n      0x00\n        /* \"#utility.yul\":1273:1279   */\n      0x00\n        /* \"#utility.yul\":1322:1324   */\n      0x40\n        /* \"#utility.yul\":1310:1319   */\n      dup4\n        /* \"#utility.yul\":1301:1308   */\n      dup6\n        /* \"#utility.yul\":1297:1320   */\n      sub\n        /* \"#utility.yul\":1293:1325   */\n      slt\n        /* \"#utility.yul\":1290:1409   */\n      iszero\n      tag_138\n      jumpi\n        /* \"#utility.yul\":1328:1407   */\n      tag_139\n      tag_79\n      jump\t// in\n    tag_139:\n        /* \"#utility.yul\":1290:1409   */\n    tag_138:\n        /* \"#utility.yul\":1448:1449   */\n      0x00\n        /* \"#utility.yul\":1473:1526   */\n      tag_140\n        /* \"#utility.yul\":1518:1525   */\n      dup6\n        /* \"#utility.yul\":1509:1515   */\n      dup3\n        /* \"#utility.yul\":1498:1507   */\n      dup7\n        /* \"#utility.yul\":1494:1516   */\n      add\n        /* \"#utility.yul\":1473:1526   */\n      tag_84\n      jump\t// in\n    tag_140:\n        /* \"#utility.yul\":1463:1526   */\n      swap3\n      pop\n        /* \"#utility.yul\":1419:1536   */\n      pop\n        /* \"#utility.yul\":1575:1577   */\n      0x20\n        /* \"#utility.yul\":1601:1654   */\n      tag_141\n        /* \"#utility.yul\":1646:1653   */\n      dup6\n        /* \"#utility.yul\":1637:1643   */\n      dup3\n        /* \"#utility.yul\":1626:1635   */\n      dup7\n        /* \"#utility.yul\":1622:1644   */\n      add\n        /* \"#utility.yul\":1601:1654   */\n      tag_87\n      jump\t// in\n    tag_141:\n        /* \"#utility.yul\":1591:1654   */\n      swap2\n      pop\n        /* \"#utility.yul\":1546:1664   */\n      pop\n        /* \"#utility.yul\":1197:1671   */\n      swap3\n      pop\n      swap3\n      swap1\n      pop\n      jump\t// out\n        /* \"#utility.yul\":1677:1795   */\n    tag_88:\n        /* \"#utility.yul\":1764:1788   */\n      tag_143\n        /* \"#utility.yul\":1782:1787   */\n      dup2\n        /* \"#utility.yul\":1764:1788   */\n      tag_85\n      jump\t// in\n    tag_143:\n        /* \"#utility.yul\":1759:1762   */\n      dup3\n        /* \"#utility.yul\":1752:1789   */\n      mstore\n        /* \"#utility.yul\":1677:1795   */\n      pop\n      pop\n      jump\t// out\n        /* \"#utility.yul\":1801:1900   */\n    tag_89:\n        /* \"#utility.yul\":1853:1859   */\n      0x00\n        /* \"#utility.yul\":1887:1892   */\n      dup2\n        /* \"#utility.yul\":1881:1893   */\n      mload\n        /* \"#utility.yul\":1871:1893   */\n      swap1\n      pop\n        /* \"#utility.yul\":1801:1900   */\n      swap2\n      swap1\n      pop\n      jump\t// out\n        /* \"#utility.yul\":1906:2075   */\n    tag_90:\n        /* \"#utility.yul\":1990:2001   */\n      0x00\n        /* \"#utility.yul\":2024:2030   */\n      dup3\n        /* \"#utility.yul\":2019:2022   */\n      dup3\n        /* \"#utility.yul\":2012:2031   */\n      mstore\n        /* \"#utility.yul\":2064:2068   */\n      0x20\n        /* \"#utility.yul\":2059:2062   */\n      dup3\n        /* \"#utility.yul\":2055:2069   */\n      add\n        /* \"#utility.yul\":2040:2069   */\n      swap1\n      pop\n        /* \"#utility.yul\":1906:2075   */\n      swap3\n      swap2\n      pop\n      pop\n      jump\t// out\n        /* \"#utility.yul\":2081:2220   */\n    tag_91:\n        /* \"#utility.yul\":2170:2176   */\n      dup3\n        /* \"#utility.yul\":2165:2168   */\n      dup2\n        /* \"#utility.yul\":2160:2163   */\n      dup4\n        /* \"#utility.yul\":2154:2177   */\n      mcopy\n        /* \"#utility.yul\":2211:2212   */\n      0x00\n        /* \"#utility.yul\":2202:2208   */\n      dup4\n        /* \"#utility.yul\":2197:2200   */\n      dup4\n        /* \"#utility.yul\":2193:2209   */\n      add\n        /* \"#utility.yul\":2186:2213   */\n      mstore\n        /* \"#utility.yul\":2081:2220   */\n      pop\n      pop\n      pop\n      jump\t// out\n        /* \"#utility.yul\":2226:2328   */\n    tag_92:\n        /* \"#utility.yul\":2267:2273   */\n      0x00\n        /* \"#utility.yul\":2318:2320   */\n      0x1f\n        /* \"#utility.yul\":2314:2321   */\n      not\n        /* \"#utility.yul\":2309:2311   */\n      0x1f\n        /* \"#utility.yul\":2302:2307   */\n      dup4\n        /* \"#utility.yul\":2298:2312   */\n      add\n        /* \"#utility.yul\":2294:2322   */\n      and\n        /* \"#utility.yul\":2284:2322   */\n      swap1\n      pop\n        /* \"#utility.yul\":2226:2328   */\n      swap2\n      swap1\n      pop\n      jump\t// out\n        /* \"#utility.yul\":2334:2711   */\n    tag_93:\n        /* \"#utility.yul\":2422:2425   */\n      0x00\n        /* \"#utility.yul\":2450:2489   */\n      tag_149\n        /* \"#utility.yul\":2483:2488   */\n      dup3\n        /* \"#utility.yul\":2450:2489   */\n      tag_89\n      jump\t// in\n    tag_149:\n        /* \"#utility.yul\":2505:2576   */\n      tag_150\n        /* \"#utility.yul\":2569:2575   */\n      dup2\n        /* \"#utility.yul\":2564:2567   */\n      dup6\n        /* \"#utility.yul\":2505:2576   */\n      tag_90\n      jump\t// in\n    tag_150:\n        /* \"#utility.yul\":2498:2576   */\n      swap4\n      pop\n        /* \"#utility.yul\":2585:2650   */\n      tag_151\n        /* \"#utility.yul\":2643:2649   */\n      dup2\n        /* \"#utility.yul\":2638:2641   */\n      dup6\n        /* \"#utility.yul\":2631:2635   */\n      0x20\n        /* \"#utility.yul\":2624:2629   */\n      dup7\n        /* \"#utility.yul\":2620:2636   */\n      add\n        /* \"#utility.yul\":2585:2650   */\n      tag_91\n      jump\t// in\n    tag_151:\n        /* \"#utility.yul\":2675:2704   */\n      tag_152\n        /* \"#utility.yul\":2697:2703   */\n      dup2\n        /* \"#utility.yul\":2675:2704   */\n      tag_92\n      jump\t// in\n    tag_152:\n        /* \"#utility.yul\":2670:2673   */\n      dup5\n        /* \"#utility.yul\":2666:2705   */\n      add\n        /* \"#utility.yul\":2659:2705   */\n      swap2\n      pop\n        /* \"#utility.yul\":2426:2711   */\n      pop\n        /* \"#utility.yul\":2334:2711   */\n      swap3\n      swap2\n      pop\n      pop\n      jump\t// out\n        /* \"#utility.yul\":2717:3341   */\n    tag_14:\n        /* \"#utility.yul\":2906:2910   */\n      0x00\n        /* \"#utility.yul\":2944:2946   */\n      0x60\n        /* \"#utility.yul\":2933:2942   */\n      dup3\n        /* \"#utility.yul\":2929:2947   */\n      add\n        /* \"#utility.yul\":2921:2947   */\n      swap1\n      pop\n        /* \"#utility.yul\":2957:3028   */\n      tag_154\n        /* \"#utility.yul\":3025:3026   */\n      0x00\n        /* \"#utility.yul\":3014:3023   */\n      dup4\n        /* \"#utility.yul\":3010:3027   */\n      add\n        /* \"#utility.yul\":3001:3007   */\n      dup7\n        /* \"#utility.yul\":2957:3028   */\n      tag_88\n      jump\t// in\n    tag_154:\n        /* \"#utility.yul\":3075:3084   */\n      dup2\n        /* \"#utility.yul\":3069:3073   */\n      dup2\n        /* \"#utility.yul\":3065:3085   */\n      sub\n        /* \"#utility.yul\":3060:3062   */\n      0x20\n        /* \"#utility.yul\":3049:3058   */\n      dup4\n        /* \"#utility.yul\":3045:3063   */\n      add\n        /* \"#utility.yul\":3038:3086   */\n      mstore\n        /* \"#utility.yul\":3103:3181   */\n      tag_155\n        /* \"#utility.yul\":3176:3180   */\n      dup2\n        /* \"#utility.yul\":3167:3173   */\n      dup6\n        /* \"#utility.yul\":3103:3181   */\n      tag_93\n      jump\t// in\n    tag_155:\n        /* \"#utility.yul\":3095:3181   */\n      swap1\n      pop\n        /* \"#utility.yul\":3228:3237   */\n      dup2\n        /* \"#utility.yul\":3222:3226   */\n      dup2\n        /* \"#utility.yul\":3218:3238   */\n      sub\n        /* \"#utility.yul\":3213:3215   */\n      0x40\n        /* \"#utility.yul\":3202:3211   */\n      dup4\n        /* \"#utility.yul\":3198:3216   */\n      add\n        /* \"#utility.yul\":3191:3239   */\n      mstore\n        /* \"#utility.yul\":3256:3334   */\n      tag_156\n        /* \"#utility.yul\":3329:3333   */\n      dup2\n        /* \"#utility.yul\":3320:3326   */\n      dup5\n        /* \"#utility.yul\":3256:3334   */\n      tag_93\n      jump\t// in\n    tag_156:\n        /* \"#utility.yul\":3248:3334   */\n      swap1\n      pop\n        /* \"#utility.yul\":2717:3341   */\n      swap5\n      swap4\n      pop\n      pop\n      pop\n      pop\n      jump\t// out\n        /* \"#utility.yul\":3347:3464   */\n    tag_94:\n        /* \"#utility.yul\":3456:3457   */\n      0x00\n        /* \"#utility.yul\":3453:3454   */\n      0x00\n        /* \"#utility.yul\":3446:3458   */\n      revert\n        /* \"#utility.yul\":3470:3587   */\n    tag_95:\n        /* \"#utility.yul\":3579:3580   */\n      0x00\n        /* \"#utility.yul\":3576:3577   */\n      0x00\n        /* \"#utility.yul\":3569:3581   */\n      revert\n        /* \"#utility.yul\":3593:3773   */\n    tag_96:\n        /* \"#utility.yul\":3641:3718   */\n      0x4e487b7100000000000000000000000000000000000000000000000000000000\n        /* \"#utility.yul\":3638:3639   */\n      0x00\n        /* \"#utility.yul\":3631:3719   */\n      mstore\n        /* \"#utility.yul\":3738:3742   */\n      0x41\n        /* \"#utility.yul\":3735:3736   */\n      0x04\n        /* \"#utility.yul\":3728:3743   */\n      mstore\n        /* \"#utility.yul\":3762:3766   */\n      0x24\n        /* \"#utility.yul\":3759:3760   */\n      0x00\n        /* \"#utility.yul\":3752:3767   */\n      revert\n        /* \"#utility.yul\":3779:4060   */\n    tag_97:\n        /* \"#utility.yul\":3862:3889   */\n      tag_161\n        /* \"#utility.yul\":3884:3888   */\n      dup3\n        /* \"#utility.yul\":3862:3889   */\n      tag_92\n      jump\t// in\n    tag_161:\n        /* \"#utility.yul\":3854:3860   */\n      dup2\n        /* \"#utility.yul\":3850:3890   */\n      add\n        /* \"#utility.yul\":3992:3998   */\n      dup2\n        /* \"#utility.yul\":3980:3990   */\n      dup2\n        /* \"#utility.yul\":3977:3999   */\n      lt\n        /* \"#utility.yul\":3956:3974   */\n      0xffffffffffffffff\n        /* \"#utility.yul\":3944:3954   */\n      dup3\n        /* \"#utility.yul\":3941:3975   */\n      gt\n        /* \"#utility.yul\":3938:4000   */\n      or\n        /* \"#utility.yul\":3935:4023   */\n      iszero\n      tag_162\n      jumpi\n        /* \"#utility.yul\":4003:4021   */\n      tag_163\n      tag_96\n      jump\t// in\n    tag_163:\n        /* \"#utility.yul\":3935:4023   */\n    tag_162:\n        /* \"#utility.yul\":4043:4053   */\n      dup1\n        /* \"#utility.yul\":4039:4041   */\n      0x40\n        /* \"#utility.yul\":4032:4054   */\n      mstore\n        /* \"#utility.yul\":3822:4060   */\n      pop\n        /* \"#utility.yul\":3779:4060   */\n      pop\n      pop\n      jump\t// out\n        /* \"#utility.yul\":4066:4195   */\n    tag_98:\n        /* \"#utility.yul\":4100:4106   */\n      0x00\n        /* \"#utility.yul\":4127:4147   */\n      tag_165\n      tag_78\n      jump\t// in\n    tag_165:\n        /* \"#utility.yul\":4117:4147   */\n      swap1\n      pop\n        /* \"#utility.yul\":4156:4189   */\n      tag_166\n        /* \"#utility.yul\":4184:4188   */\n      dup3\n        /* \"#utility.yul\":4176:4182   */\n      dup3\n        /* \"#utility.yul\":4156:4189   */\n      tag_97\n      jump\t// in\n    tag_166:\n        /* \"#utility.yul\":4066:4195   */\n      swap2\n      swap1\n      pop\n      jump\t// out\n        /* \"#utility.yul\":4201:4509   */\n    tag_99:\n        /* \"#utility.yul\":4263:4267   */\n      0x00\n        /* \"#utility.yul\":4353:4371   */\n      0xffffffffffffffff\n        /* \"#utility.yul\":4345:4351   */\n      dup3\n        /* \"#utility.yul\":4342:4372   */\n      gt\n        /* \"#utility.yul\":4339:4395   */\n      iszero\n      tag_168\n      jumpi\n        /* \"#utility.yul\":4375:4393   */\n      tag_169\n      tag_96\n      jump\t// in\n    tag_169:\n        /* \"#utility.yul\":4339:4395   */\n    tag_168:\n        /* \"#utility.yul\":4413:4442   */\n      tag_170\n        /* \"#utility.yul\":4435:4441   */\n      dup3\n        /* \"#utility.yul\":4413:4442   */\n      tag_92\n      jump\t// in\n    tag_170:\n        /* \"#utility.yul\":4405:4442   */\n      swap1\n      pop\n        /* \"#utility.yul\":4497:4501   */\n      0x20\n        /* \"#utility.yul\":4491:4495   */\n      dup2\n        /* \"#utility.yul\":4487:4502   */\n      add\n        /* \"#utility.yul\":4479:4502   */\n      swap1\n      pop\n        /* \"#utility.yul\":4201:4509   */\n      swap2\n      swap1\n      pop\n      jump\t// out\n        /* \"#utility.yul\":4515:4663   */\n    tag_100:\n        /* \"#utility.yul\":4613:4619   */\n      dup3\n        /* \"#utility.yul\":4608:4611   */\n      dup2\n        /* \"#utility.yul\":4603:4606   */\n      dup4\n        /* \"#utility.yul\":4590:4620   */\n      calldatacopy\n        /* \"#utility.yul\":4654:4655   */\n      0x00\n        /* \"#utility.yul\":4645:4651   */\n      dup4\n        /* \"#utility.yul\":4640:4643   */\n      dup4\n        /* \"#utility.yul\":4636:4652   */\n      add\n        /* \"#utility.yul\":4629:4656   */\n      mstore\n        /* \"#utility.yul\":4515:4663   */\n      pop\n      pop\n      pop\n      jump\t// out\n        /* \"#utility.yul\":4669:5094   */\n    tag_101:\n        /* \"#utility.yul\":4747:4752   */\n      0x00\n        /* \"#utility.yul\":4772:4838   */\n      tag_173\n        /* \"#utility.yul\":4788:4837   */\n      tag_174\n        /* \"#utility.yul\":4830:4836   */\n      dup5\n        /* \"#utility.yul\":4788:4837   */\n      tag_99\n      jump\t// in\n    tag_174:\n        /* \"#utility.yul\":4772:4838   */\n      tag_98\n      jump\t// in\n    tag_173:\n        /* \"#utility.yul\":4763:4838   */\n      swap1\n      pop\n        /* \"#utility.yul\":4861:4867   */\n      dup3\n        /* \"#utility.yul\":4854:4859   */\n      dup2\n        /* \"#utility.yul\":4847:4868   */\n      mstore\n        /* \"#utility.yul\":4899:4903   */\n      0x20\n        /* \"#utility.yul\":4892:4897   */\n      dup2\n        /* \"#utility.yul\":4888:4904   */\n      add\n        /* \"#utility.yul\":4937:4940   */\n      dup5\n        /* \"#utility.yul\":4928:4934   */\n      dup5\n        /* \"#utility.yul\":4923:4926   */\n      dup5\n        /* \"#utility.yul\":4919:4935   */\n      add\n        /* \"#utility.yul\":4916:4941   */\n      gt\n        /* \"#utility.yul\":4913:5025   */\n      iszero\n      tag_175\n      jumpi\n        /* \"#utility.yul\":4944:5023   */\n      tag_176\n      tag_95\n      jump\t// in\n    tag_176:\n        /* \"#utility.yul\":4913:5025   */\n    tag_175:\n        /* \"#utility.yul\":5034:5088   */\n      tag_177\n        /* \"#utility.yul\":5081:5087   */\n      dup5\n        /* \"#utility.yul\":5076:5079   */\n      dup3\n        /* \"#utility.yul\":5071:5074   */\n      dup6\n        /* \"#utility.yul\":5034:5088   */\n      tag_100\n      jump\t// in\n    tag_177:\n        /* \"#utility.yul\":4753:5094   */\n      pop\n        /* \"#utility.yul\":4669:5094   */\n      swap4\n      swap3\n      pop\n      pop\n      pop\n      jump\t// out\n        /* \"#utility.yul\":5114:5454   */\n    tag_102:\n        /* \"#utility.yul\":5170:5175   */\n      0x00\n        /* \"#utility.yul\":5219:5222   */\n      dup3\n        /* \"#utility.yul\":5212:5216   */\n      0x1f\n        /* \"#utility.yul\":5204:5210   */\n      dup4\n        /* \"#utility.yul\":5200:5217   */\n      add\n        /* \"#utility.yul\":5196:5223   */\n      slt\n        /* \"#utility.yul\":5186:5308   */\n      tag_179\n      jumpi\n        /* \"#utility.yul\":5227:5306   */\n      tag_180\n      tag_94\n      jump\t// in\n    tag_180:\n        /* \"#utility.yul\":5186:5308   */\n    tag_179:\n        /* \"#utility.yul\":5344:5350   */\n      dup2\n        /* \"#utility.yul\":5331:5351   */\n      calldataload\n        /* \"#utility.yul\":5369:5448   */\n      tag_181\n        /* \"#utility.yul\":5444:5447   */\n      dup5\n        /* \"#utility.yul\":5436:5442   */\n      dup3\n        /* \"#utility.yul\":5429:5433   */\n      0x20\n        /* \"#utility.yul\":5421:5427   */\n      dup7\n        /* \"#utility.yul\":5417:5434   */\n      add\n        /* \"#utility.yul\":5369:5448   */\n      tag_101\n      jump\t// in\n    tag_181:\n        /* \"#utility.yul\":5360:5448   */\n      swap2\n      pop\n        /* \"#utility.yul\":5176:5454   */\n      pop\n        /* \"#utility.yul\":5114:5454   */\n      swap3\n      swap2\n      pop\n      pop\n      jump\t// out\n        /* \"#utility.yul\":5460:6585   */\n    tag_17:\n        /* \"#utility.yul\":5566:5572   */\n      0x00\n        /* \"#utility.yul\":5574:5580   */\n      0x00\n        /* \"#utility.yul\":5582:5588   */\n      0x00\n        /* \"#utility.yul\":5590:5596   */\n      0x00\n        /* \"#utility.yul\":5639:5642   */\n      0x80\n        /* \"#utility.yul\":5627:5636   */\n      dup6\n        /* \"#utility.yul\":5618:5625   */\n      dup8\n        /* \"#utility.yul\":5614:5637   */\n      sub\n        /* \"#utility.yul\":5610:5643   */\n      slt\n        /* \"#utility.yul\":5607:5727   */\n      iszero\n      tag_183\n      jumpi\n        /* \"#utility.yul\":5646:5725   */\n      tag_184\n      tag_79\n      jump\t// in\n    tag_184:\n        /* \"#utility.yul\":5607:5727   */\n    tag_183:\n        /* \"#utility.yul\":5766:5767   */\n      0x00\n        /* \"#utility.yul\":5791:5844   */\n      tag_185\n        /* \"#utility.yul\":5836:5843   */\n      dup8\n        /* \"#utility.yul\":5827:5833   */\n      dup3\n        /* \"#utility.yul\":5816:5825   */\n      dup9\n        /* \"#utility.yul\":5812:5834   */\n      add\n        /* \"#utility.yul\":5791:5844   */\n      tag_87\n      jump\t// in\n    tag_185:\n        /* \"#utility.yul\":5781:5844   */\n      swap5\n      pop\n        /* \"#utility.yul\":5737:5854   */\n      pop\n        /* \"#utility.yul\":5893:5895   */\n      0x20\n        /* \"#utility.yul\":5919:5972   */\n      tag_186\n        /* \"#utility.yul\":5964:5971   */\n      dup8\n        /* \"#utility.yul\":5955:5961   */\n      dup3\n        /* \"#utility.yul\":5944:5953   */\n      dup9\n        /* \"#utility.yul\":5940:5962   */\n      add\n        /* \"#utility.yul\":5919:5972   */\n      tag_87\n      jump\t// in\n    tag_186:\n        /* \"#utility.yul\":5909:5972   */\n      swap4\n      pop\n        /* \"#utility.yul\":5864:5982   */\n      pop\n        /* \"#utility.yul\":6049:6051   */\n      0x40\n        /* \"#utility.yul\":6038:6047   */\n      dup6\n        /* \"#utility.yul\":6034:6052   */\n      add\n        /* \"#utility.yul\":6021:6053   */\n      calldataload\n        /* \"#utility.yul\":6080:6098   */\n      0xffffffffffffffff\n        /* \"#utility.yul\":6072:6078   */\n      dup2\n        /* \"#utility.yul\":6069:6099   */\n      gt\n        /* \"#utility.yul\":6066:6183   */\n      iszero\n      tag_187\n      jumpi\n        /* \"#utility.yul\":6102:6181   */\n      tag_188\n      tag_80\n      jump\t// in\n    tag_188:\n        /* \"#utility.yul\":6066:6183   */\n    tag_187:\n        /* \"#utility.yul\":6207:6270   */\n      tag_189\n        /* \"#utility.yul\":6262:6269   */\n      dup8\n        /* \"#utility.yul\":6253:6259   */\n      dup3\n        /* \"#utility.yul\":6242:6251   */\n      dup9\n        /* \"#utility.yul\":6238:6260   */\n      add\n        /* \"#utility.yul\":6207:6270   */\n      tag_102\n      jump\t// in\n    tag_189:\n        /* \"#utility.yul\":6197:6270   */\n      swap3\n      pop\n        /* \"#utility.yul\":5992:6280   */\n      pop\n        /* \"#utility.yul\":6347:6349   */\n      0x60\n        /* \"#utility.yul\":6336:6345   */\n      dup6\n        /* \"#utility.yul\":6332:6350   */\n      add\n        /* \"#utility.yul\":6319:6351   */\n      calldataload\n        /* \"#utility.yul\":6378:6396   */\n      0xffffffffffffffff\n        /* \"#utility.yul\":6370:6376   */\n      dup2\n        /* \"#utility.yul\":6367:6397   */\n      gt\n        /* \"#utility.yul\":6364:6481   */\n      iszero\n      tag_190\n      jumpi\n        /* \"#utility.yul\":6400:6479   */\n      tag_191\n      tag_80\n      jump\t// in\n    tag_191:\n        /* \"#utility.yul\":6364:6481   */\n    tag_190:\n        /* \"#utility.yul\":6505:6568   */\n      tag_192\n        /* \"#utility.yul\":6560:6567   */\n      dup8\n        /* \"#utility.yul\":6551:6557   */\n      dup3\n        /* \"#utility.yul\":6540:6549   */\n      dup9\n        /* \"#utility.yul\":6536:6558   */\n      add\n        /* \"#utility.yul\":6505:6568   */\n      tag_102\n      jump\t// in\n    tag_192:\n        /* \"#utility.yul\":6495:6568   */\n      swap2\n      pop\n        /* \"#utility.yul\":6290:6578   */\n      pop\n        /* \"#utility.yul\":5460:6585   */\n      swap3\n      swap6\n      swap2\n      swap5\n      pop\n      swap3\n      pop\n      jump\t// out\n        /* \"#utility.yul\":6591:6920   */\n    tag_21:\n        /* \"#utility.yul\":6650:6656   */\n      0x00\n        /* \"#utility.yul\":6699:6701   */\n      0x20\n        /* \"#utility.yul\":6687:6696   */\n      dup3\n        /* \"#utility.yul\":6678:6685   */\n      dup5\n        /* \"#utility.yul\":6674:6697   */\n      sub\n        /* \"#utility.yul\":6670:6702   */\n      slt\n        /* \"#utility.yul\":6667:6786   */\n      iszero\n      tag_194\n      jumpi\n        /* \"#utility.yul\":6705:6784   */\n      tag_195\n      tag_79\n      jump\t// in\n    tag_195:\n        /* \"#utility.yul\":6667:6786   */\n    tag_194:\n        /* \"#utility.yul\":6825:6826   */\n      0x00\n        /* \"#utility.yul\":6850:6903   */\n      tag_196\n        /* \"#utility.yul\":6895:6902   */\n      dup5\n        /* \"#utility.yul\":6886:6892   */\n      dup3\n        /* \"#utility.yul\":6875:6884   */\n      dup6\n        /* \"#utility.yul\":6871:6893   */\n      add\n        /* \"#utility.yul\":6850:6903   */\n      tag_87\n      jump\t// in\n    tag_196:\n        /* \"#utility.yul\":6840:6903   */\n      swap2\n      pop\n        /* \"#utility.yul\":6796:6913   */\n      pop\n        /* \"#utility.yul\":6591:6920   */\n      swap3\n      swap2\n      pop\n      pop\n      jump\t// out\n        /* \"#utility.yul\":6926:7239   */\n    tag_24:\n        /* \"#utility.yul\":7039:7043   */\n      0x00\n        /* \"#utility.yul\":7077:7079   */\n      0x20\n        /* \"#utility.yul\":7066:7075   */\n      dup3\n        /* \"#utility.yul\":7062:7080   */\n      add\n        /* \"#utility.yul\":7054:7080   */\n      swap1\n      pop\n        /* \"#utility.yul\":7126:7135   */\n      dup2\n        /* \"#utility.yul\":7120:7124   */\n      dup2\n        /* \"#utility.yul\":7116:7136   */\n      sub\n        /* \"#utility.yul\":7112:7113   */\n      0x00\n        /* \"#utility.yul\":7101:7110   */\n      dup4\n        /* \"#utility.yul\":7097:7114   */\n      add\n        /* \"#utility.yul\":7090:7137   */\n      mstore\n        /* \"#utility.yul\":7154:7232   */\n      tag_198\n        /* \"#utility.yul\":7227:7231   */\n      dup2\n        /* \"#utility.yul\":7218:7224   */\n      dup5\n        /* \"#utility.yul\":7154:7232   */\n      tag_93\n      jump\t// in\n    tag_198:\n        /* \"#utility.yul\":7146:7232   */\n      swap1\n      pop\n        /* \"#utility.yul\":6926:7239   */\n      swap3\n      swap2\n      pop\n      pop\n      jump\t// out\n        /* \"#utility.yul\":7245:7425   */\n    tag_103:\n        /* \"#utility.yul\":7293:7370   */\n      0x4e487b7100000000000000000000000000000000000000000000000000000000\n        /* \"#utility.yul\":7290:7291   */\n      0x00\n        /* \"#utility.yul\":7283:7371   */\n      mstore\n        /* \"#utility.yul\":7390:7394   */\n      0x22\n        /* \"#utility.yul\":7387:7388   */\n      0x04\n        /* \"#utility.yul\":7380:7395   */\n      mstore\n        /* \"#utility.yul\":7414:7418   */\n      0x24\n        /* \"#utility.yul\":7411:7412   */\n      0x00\n        /* \"#utility.yul\":7404:7419   */\n      revert\n        /* \"#utility.yul\":7431:7751   */\n    tag_36:\n        /* \"#utility.yul\":7475:7481   */\n      0x00\n        /* \"#utility.yul\":7512:7513   */\n      0x02\n        /* \"#utility.yul\":7506:7510   */\n      dup3\n        /* \"#utility.yul\":7502:7514   */\n      div\n        /* \"#utility.yul\":7492:7514   */\n      swap1\n      pop\n        /* \"#utility.yul\":7559:7560   */\n      0x01\n        /* \"#utility.yul\":7553:7557   */\n      dup3\n        /* \"#utility.yul\":7549:7561   */\n      and\n        /* \"#utility.yul\":7580:7598   */\n      dup1\n        /* \"#utility.yul\":7570:7651   */\n      tag_201\n      jumpi\n        /* \"#utility.yul\":7636:7640   */\n      0x7f\n        /* \"#utility.yul\":7628:7634   */\n      dup3\n        /* \"#utility.yul\":7624:7641   */\n      and\n        /* \"#utility.yul\":7614:7641   */\n      swap2\n      pop\n        /* \"#utility.yul\":7570:7651   */\n    tag_201:\n        /* \"#utility.yul\":7698:7700   */\n      0x20\n        /* \"#utility.yul\":7690:7696   */\n      dup3\n        /* \"#utility.yul\":7687:7701   */\n      lt\n        /* \"#utility.yul\":7667:7685   */\n      dup2\n        /* \"#utility.yul\":7664:7702   */\n      sub\n        /* \"#utility.yul\":7661:7745   */\n      tag_202\n      jumpi\n        /* \"#utility.yul\":7717:7735   */\n      tag_203\n      tag_103\n      jump\t// in\n    tag_203:\n        /* \"#utility.yul\":7661:7745   */\n    tag_202:\n        /* \"#utility.yul\":7482:7751   */\n      pop\n        /* \"#utility.yul\":7431:7751   */\n      swap2\n      swap1\n      pop\n      jump\t// out\n        /* \"#utility.yul\":7757:7898   */\n    tag_104:\n        /* \"#utility.yul\":7806:7810   */\n      0x00\n        /* \"#utility.yul\":7829:7832   */\n      dup2\n        /* \"#utility.yul\":7821:7832   */\n      swap1\n      pop\n        /* \"#utility.yul\":7852:7855   */\n      dup2\n        /* \"#utility.yul\":7849:7850   */\n      0x00\n        /* \"#utility.yul\":7842:7856   */\n      mstore\n        /* \"#utility.yul\":7886:7890   */\n      0x20\n        /* \"#utility.yul\":7883:7884   */\n      0x00\n        /* \"#utility.yul\":7873:7891   */\n      keccak256\n        /* \"#utility.yul\":7865:7891   */\n      swap1\n      pop\n        /* \"#utility.yul\":7757:7898   */\n      swap2\n      swap1\n      pop\n      jump\t// out\n        /* \"#utility.yul\":7904:7997   */\n    tag_105:\n        /* \"#utility.yul\":7941:7947   */\n      0x00\n        /* \"#utility.yul\":7988:7990   */\n      0x20\n        /* \"#utility.yul\":7983:7985   */\n      0x1f\n        /* \"#utility.yul\":7976:7981   */\n      dup4\n        /* \"#utility.yul\":7972:7986   */\n      add\n        /* \"#utility.yul\":7968:7991   */\n      div\n        /* \"#utility.yul\":7958:7991   */\n      swap1\n      pop\n        /* \"#utility.yul\":7904:7997   */\n      swap2\n      swap1\n      pop\n      jump\t// out\n        /* \"#utility.yul\":8003:8110   */\n    tag_106:\n        /* \"#utility.yul\":8047:8055   */\n      0x00\n        /* \"#utility.yul\":8097:8102   */\n      dup3\n        /* \"#utility.yul\":8091:8095   */\n      dup3\n        /* \"#utility.yul\":8087:8103   */\n      shl\n        /* \"#utility.yul\":8066:8103   */\n      swap1\n      pop\n        /* \"#utility.yul\":8003:8110   */\n      swap3\n      swap2\n      pop\n      pop\n      jump\t// out\n        /* \"#utility.yul\":8116:8509   */\n    tag_107:\n        /* \"#utility.yul\":8185:8191   */\n      0x00\n        /* \"#utility.yul\":8235:8236   */\n      0x08\n        /* \"#utility.yul\":8223:8233   */\n      dup4\n        /* \"#utility.yul\":8219:8237   */\n      mul\n        /* \"#utility.yul\":8258:8355   */\n      tag_208\n        /* \"#utility.yul\":8288:8354   */\n      0xffffffffffffffffffffffffffffffffffffffffffffffffffffffffffffffff\n        /* \"#utility.yul\":8277:8286   */\n      dup3\n        /* \"#utility.yul\":8258:8355   */\n      tag_106\n      jump\t// in\n    tag_208:\n        /* \"#utility.yul\":8376:8415   */\n      tag_209\n        /* \"#utility.yul\":8406:8414   */\n      dup7\n        /* \"#utility.yul\":8395:8404   */\n      dup4\n        /* \"#utility.yul\":8376:8415   */\n      tag_106\n      jump\t// in\n    tag_209:\n        /* \"#utility.yul\":8364:8415   */\n      swap6\n      pop\n        /* \"#utility.yul\":8448:8452   */\n      dup1\n        /* \"#utility.yul\":8444:8453   */\n      not\n        /* \"#utility.yul\":8437:8442   */\n      dup5\n        /* \"#utility.yul\":8433:8454   */\n      and\n        /* \"#utility.yul\":8424:8454   */\n      swap4\n      pop\n        /* \"#utility.yul\":8497:8501   */\n      dup1\n        /* \"#utility.yul\":8487:8495   */\n      dup7\n        /* \"#utility.yul\":8483:8502   */\n      and\n        /* \"#utility.yul\":8476:8481   */\n      dup5\n        /* \"#utility.yul\":8473:8503   */\n      or\n        /* \"#utility.yul\":8463:8503   */\n      swap3\n      pop\n        /* \"#utility.yul\":8192:8509   */\n      pop\n      pop\n        /* \"#utility.yul\":8116:8509   */\n      swap4\n      swap3\n      pop\n      pop\n      pop\n      jump\t// out\n        /* \"#utility.yul\":8515:8575   */\n    tag_108:\n        /* \"#utility.yul\":8543:8546   */\n      0x00\n        /* \"#utility.yul\":8564:8569   */\n      dup2\n        /* \"#utility.yul\":8557:8569   */\n      swap1\n      pop\n        /* \"#utility.yul\":8515:8575   */\n      swap2\n      swap1\n      pop\n      jump\t// out\n        /* \"#utility.yul\":8581:8723   */\n    tag_109:\n        /* \"#utility.yul\":8631:8640   */\n      0x00\n        /* \"#utility.yul\":8664:8717   */\n      tag_212\n        /* \"#utility.yul\":8682:8716   */\n      tag_213\n        /* \"#utility.yul\":8691:8715   */\n      tag_214\n        /* \"#utility.yul\":8709:8714   */\n      dup5\n        /* \"#utility.yul\":8691:8715   */\n      tag_85\n      jump\t// in\n    tag_214:\n        /* \"#utility.yul\":8682:8716   */\n      tag_108\n      jump\t// in\n    tag_213:\n        /* \"#utility.yul\":8664:8717   */\n      tag_85\n      jump\t// in\n    tag_212:\n        /* \"#utility.yul\":8651:8717   */\n      swap1\n      pop\n        /* \"#utility.yul\":8581:8723   */\n      swap2\n      swap1\n      pop\n      jump\t// out\n        /* \"#utility.yul\":8729:8804   */\n    tag_110:\n        /* \"#utility.yul\":8772:8775   */\n      0x00\n        /* \"#utility.yul\":8793:8798   */\n      dup2\n        /* \"#utility.yul\":8786:8798   */\n      swap1\n      pop\n        /* \"#utility.yul\":8729:8804   */\n      swap2\n      swap1\n      pop\n      jump\t// out\n        /* \"#utility.yul\":8810:9079   */\n    tag_111:\n        /* \"#utility.yul\":8920:8959   */\n      tag_217\n        /* \"#utility.yul\":8951:8958   */\n      dup4\n        /* \"#utility.yul\":8920:8959   */\n      tag_109\n      jump\t// in\n    tag_217:\n        /* \"#utility.yul\":8981:9072   */\n      tag_218\n        /* \"#utility.yul\":9030:9071   */\n      tag_219\n        /* \"#utility.yul\":9054:9070   */\n      dup3\n        /* \"#utility.yul\":9030:9071   */\n      tag_110\n      jump\t// in\n    tag_219:\n        /* \"#utility.yul\":9022:9028   */\n      dup5\n        /* \"#utility.yul\":9015:9019   */\n      dup5\n        /* \"#utility.yul\":9009:9020   */\n      sload\n        /* \"#utility.yul\":8981:9072   */\n      tag_107\n      jump\t// in\n    tag_218:\n        /* \"#utility.yul\":8975:8979   */\n      dup3\n        /* \"#utility.yul\":8968:9073   */\n      sstore\n        /* \"#utility.yul\":8886:9079   */\n      pop\n        /* \"#utility.yul\":8810:9079   */\n      pop\n      pop\n      pop\n      jump\t// out\n        /* \"#utility.yul\":9085:9158   */\n    tag_112:\n        /* \"#utility.yul\":9130:9133   */\n      0x00\n        /* \"#utility.yul\":9151:9152   */\n      0x00\n        /* \"#utility.yul\":9144:9152   */\n      swap1\n      pop\n        /* \"#utility.yul\":9085:9158   */\n      swap1\n      jump\t// out\n        /* \"#utility.yul\":9164:9353   */\n    tag_113:\n        /* \"#utility.yul\":9241:9273   */\n      tag_222\n      tag_112\n      jump\t// in\n    tag_222:\n        /* \"#utility.yul\":9282:9347   */\n      tag_223\n        /* \"#utility.yul\":9340:9346   */\n      dup2\n        /* \"#utility.yul\":9332:9338   */\n      dup5\n        /* \"#utility.yul\":9326:9330   */\n      dup5\n        /* \"#utility.yul\":9282:9347   */\n      tag_111\n      jump\t// in\n    tag_223:\n        /* \"#utility.yul\":9217:9353   */\n      pop\n        /* \"#utility.yul\":9164:9353   */\n      pop\n      pop\n      jump\t// out\n        /* \"#utility.yul\":9359:9545   */\n    tag_114:\n        /* \"#utility.yul\":9419:9539   */\n    tag_225:\n        /* \"#utility.yul\":9436:9439   */\n      dup2\n        /* \"#utility.yul\":9429:9434   */\n      dup2\n        /* \"#utility.yul\":9426:9440   */\n      lt\n        /* \"#utility.yul\":9419:9539   */\n      iszero\n      tag_227\n      jumpi\n        /* \"#utility.yul\":9490:9529   */\n      tag_228\n        /* \"#utility.yul\":9527:9528   */\n      0x00\n        /* \"#utility.yul\":9520:9525   */\n      dup3\n        /* \"#utility.yul\":9490:9529   */\n      tag_113\n      jump\t// in\n    tag_228:\n        /* \"#utility.yul\":9463:9464   */\n      0x01\n        /* \"#utility.yul\":9456:9461   */\n      dup2\n        /* \"#utility.yul\":9452:9465   */\n      add\n        /* \"#utility.yul\":9443:9465   */\n      swap1\n      pop\n        /* \"#utility.yul\":9419:9539   */\n      jump(tag_225)\n    tag_227:\n        /* \"#utility.yul\":9359:9545   */\n      pop\n      pop\n      jump\t// out\n        /* \"#utility.yul\":9551:10094   */\n    tag_115:\n        /* \"#utility.yul\":9652:9654   */\n      0x1f\n        /* \"#utility.yul\":9647:9650   */\n      dup3\n        /* \"#utility.yul\":9644:9655   */\n      gt\n        /* \"#utility.yul\":9641:10087   */\n      iszero\n      tag_230\n      jumpi\n        /* \"#utility.yul\":9686:9724   */\n      tag_231\n        /* \"#utility.yul\":9718:9723   */\n      dup2\n        /* \"#utility.yul\":9686:9724   */\n      tag_104\n      jump\t// in\n    tag_231:\n        /* \"#utility.yul\":9770:9799   */\n      tag_232\n        /* \"#utility.yul\":9788:9798   */\n      dup5\n        /* \"#utility.yul\":9770:9799   */\n      tag_105\n      jump\t// in\n    tag_232:\n        /* \"#utility.yul\":9760:9768   */\n      dup2\n        /* \"#utility.yul\":9756:9800   */\n      add\n        /* \"#utility.yul\":9953:9955   */\n      0x20\n        /* \"#utility.yul\":9941:9951   */\n      dup6\n        /* \"#utility.yul\":9938:9956   */\n      lt\n        /* \"#utility.yul\":9935:9984   */\n      iszero\n      tag_233\n      jumpi\n        /* \"#utility.yul\":9974:9982   */\n      dup2\n        /* \"#utility.yul\":9959:9982   */\n      swap1\n      pop\n        /* \"#utility.yul\":9935:9984   */\n    tag_233:\n        /* \"#utility.yul\":9997:10077   */\n      tag_234\n        /* \"#utility.yul\":10053:10075   */\n      tag_235\n        /* \"#utility.yul\":10071:10074   */\n      dup6\n        /* \"#utility.yul\":10053:10075   */\n      tag_105\n      jump\t// in\n    tag_235:\n        /* \"#utility.yul\":10043:10051   */\n      dup4\n        /* \"#utility.yul\":10039:10076   */\n      add\n        /* \"#utility.yul\":10026:10037   */\n      dup3\n        /* \"#utility.yul\":9997:10077   */\n      tag_114\n      jump\t// in\n    tag_234:\n        /* \"#utility.yul\":9656:10087   */\n      pop\n      pop\n        /* \"#utility.yul\":9641:10087   */\n    tag_230:\n        /* \"#utility.yul\":9551:10094   */\n      pop\n      pop\n      pop\n      jump\t// out\n        /* \"#utility.yul\":10100:10217   */\n    tag_116:\n        /* \"#utility.yul\":10154:10162   */\n      0x00\n        /* \"#utility.yul\":10204:10209   */\n      dup3\n        /* \"#utility.yul\":10198:10202   */\n      dup3\n        /* \"#utility.yul\":10194:10210   */\n      shr\n        /* \"#utility.yul\":10173:10210   */\n      swap1\n      pop\n        /* \"#utility.yul\":10100:10217   */\n      swap3\n      swap2\n      pop\n      pop\n      jump\t// out\n        /* \"#utility.yul\":10223:10392   */\n    tag_117:\n        /* \"#utility.yul\":10267:10273   */\n      0x00\n        /* \"#utility.yul\":10300:10351   */\n      tag_238\n        /* \"#utility.yul\":10348:10349   */\n      0x00\n        /* \"#utility.yul\":10344:10350   */\n      not\n        /* \"#utility.yul\":10336:10341   */\n      dup5\n        /* \"#utility.yul\":10333:10334   */\n      0x08\n        /* \"#utility.yul\":10329:10342   */\n      mul\n        /* \"#utility.yul\":10300:10351   */\n      tag_116\n      jump\t// in\n    tag_238:\n        /* \"#utility.yul\":10296:10352   */\n      not\n        /* \"#utility.yul\":10381:10385   */\n      dup1\n        /* \"#utility.yul\":10375:10379   */\n      dup4\n        /* \"#utility.yul\":10371:10386   */\n      and\n        /* \"#utility.yul\":10361:10386   */\n      swap2\n      pop\n        /* \"#utility.yul\":10274:10392   */\n      pop\n        /* \"#utility.yul\":10223:10392   */\n      swap3\n      swap2\n      pop\n      pop\n      jump\t// out\n        /* \"#utility.yul\":10397:10692   */\n    tag_118:\n        /* \"#utility.yul\":10473:10477   */\n      0x00\n        /* \"#utility.yul\":10619:10648   */\n      tag_240\n        /* \"#utility.yul\":10644:10647   */\n      dup4\n        /* \"#utility.yul\":10638:10642   */\n      dup4\n        /* \"#utility.yul\":10619:10648   */\n      tag_117\n      jump\t// in\n    tag_240:\n        /* \"#utility.yul\":10611:10648   */\n      swap2\n      pop\n        /* \"#utility.yul\":10681:10684   */\n      dup3\n        /* \"#utility.yul\":10678:10679   */\n      0x02\n        /* \"#utility.yul\":10674:10685   */\n      mul\n        /* \"#utility.yul\":10668:10672   */\n      dup3\n        /* \"#utility.yul\":10665:10686   */\n      or\n        /* \"#utility.yul\":10657:10686   */\n      swap1\n      pop\n        /* \"#utility.yul\":10397:10692   */\n      swap3\n      swap2\n      pop\n      pop\n      jump\t// out\n        /* \"#utility.yul\":10697:12092   */\n    tag_48:\n        /* \"#utility.yul\":10814:10851   */\n      tag_242\n        /* \"#utility.yul\":10847:10850   */\n      dup3\n        /* \"#utility.yul\":10814:10851   */\n      tag_89\n      jump\t// in\n    tag_242:\n        /* \"#utility.yul\":10916:10934   */\n      0xffffffffffffffff\n        /* \"#utility.yul\":10908:10914   */\n      dup2\n        /* \"#utility.yul\":10905:10935   */\n      gt\n        /* \"#utility.yul\":10902:10958   */\n      iszero\n      tag_243\n      jumpi\n        /* \"#utility.yul\":10938:10956   */\n      tag_244\n      tag_96\n      jump\t// in\n    tag_244:\n        /* \"#utility.yul\":10902:10958   */\n    tag_243:\n        /* \"#utility.yul\":10982:11020   */\n      tag_245\n        /* \"#utility.yul\":11014:11018   */\n      dup3\n        /* \"#utility.yul\":11008:11019   */\n      sload\n        /* \"#utility.yul\":10982:11020   */\n      tag_36\n      jump\t// in\n    tag_245:\n        /* \"#utility.yul\":11067:11134   */\n      tag_246\n        /* \"#utility.yul\":11127:11133   */\n      dup3\n        /* \"#utility.yul\":11119:11125   */\n      dup3\n        /* \"#utility.yul\":11113:11117   */\n      dup6\n        /* \"#utility.yul\":11067:11134   */\n      tag_115\n      jump\t// in\n    tag_246:\n        /* \"#utility.yul\":11161:11162   */\n      0x00\n        /* \"#utility.yul\":11185:11189   */\n      0x20\n        /* \"#utility.yul\":11172:11189   */\n      swap1\n      pop\n        /* \"#utility.yul\":11217:11219   */\n      0x1f\n        /* \"#utility.yul\":11209:11215   */\n      dup4\n        /* \"#utility.yul\":11206:11220   */\n      gt\n        /* \"#utility.yul\":11234:11235   */\n      0x01\n        /* \"#utility.yul\":11229:11847   */\n      dup2\n      eq\n      tag_248\n      jumpi\n        /* \"#utility.yul\":11891:11892   */\n      0x00\n        /* \"#utility.yul\":11908:11914   */\n      dup5\n        /* \"#utility.yul\":11905:11982   */\n      iszero\n      tag_249\n      jumpi\n        /* \"#utility.yul\":11957:11966   */\n      dup3\n        /* \"#utility.yul\":11952:11955   */\n      dup8\n        /* \"#utility.yul\":11948:11967   */\n      add\n        /* \"#utility.yul\":11942:11968   */\n      mload\n        /* \"#utility.yul\":11933:11968   */\n      swap1\n      pop\n        /* \"#utility.yul\":11905:11982   */\n    tag_249:\n        /* \"#utility.yul\":12008:12075   */\n      tag_250\n        /* \"#utility.yul\":12068:12074   */\n      dup6\n        /* \"#utility.yul\":12061:12066   */\n      dup3\n        /* \"#utility.yul\":12008:12075   */\n      tag_118\n      jump\t// in\n    tag_250:\n        /* \"#utility.yul\":12002:12006   */\n      dup7\n        /* \"#utility.yul\":11995:12076   */\n      sstore\n        /* \"#utility.yul\":11864:12086   */\n      pop\n        /* \"#utility.yul\":11199:12086   */\n      jump(tag_247)\n        /* \"#utility.yul\":11229:11847   */\n    tag_248:\n        /* \"#utility.yul\":11281:11285   */\n      0x1f\n        /* \"#utility.yul\":11277:11286   */\n      not\n        /* \"#utility.yul\":11269:11275   */\n      dup5\n        /* \"#utility.yul\":11265:11287   */\n      and\n        /* \"#utility.yul\":11315:11352   */\n      tag_251\n        /* \"#utility.yul\":11347:11351   */\n      dup7\n        /* \"#utility.yul\":11315:11352   */\n      tag_104\n      jump\t// in\n    tag_251:\n        /* \"#utility.yul\":11374:11375   */\n      0x00\n        /* \"#utility.yul\":11388:11596   */\n    tag_252:\n        /* \"#utility.yul\":11402:11409   */\n      dup3\n        /* \"#utility.yul\":11399:11400   */\n      dup2\n        /* \"#utility.yul\":11396:11410   */\n      lt\n        /* \"#utility.yul\":11388:11596   */\n      iszero\n      tag_254\n      jumpi\n        /* \"#utility.yul\":11481:11490   */\n      dup5\n        /* \"#utility.yul\":11476:11479   */\n      dup10\n        /* \"#utility.yul\":11472:11491   */\n      add\n        /* \"#utility.yul\":11466:11492   */\n      mload\n        /* \"#utility.yul\":11458:11464   */\n      dup3\n        /* \"#utility.yul\":11451:11493   */\n      sstore\n        /* \"#utility.yul\":11532:11533   */\n      0x01\n        /* \"#utility.yul\":11524:11530   */\n      dup3\n        /* \"#utility.yul\":11520:11534   */\n      add\n        /* \"#utility.yul\":11510:11534   */\n      swap2\n      pop\n        /* \"#utility.yul\":11579:11581   */\n      0x20\n        /* \"#utility.yul\":11568:11577   */\n      dup6\n        /* \"#utility.yul\":11564:11582   */\n      add\n        /* \"#utility.yul\":11551:11582   */\n      swap5\n      pop\n        /* \"#utility.yul\":11425:11429   */\n      0x20\n        /* \"#utility.yul\":11422:11423   */\n      dup2\n        /* \"#utility.yul\":11418:11430   */\n      add\n        /* \"#utility.yul\":11413:11430   */\n      swap1\n      pop\n        /* \"#utility.yul\":11388:11596   */\n      jump(tag_252)\n    tag_254:\n        /* \"#utility.yul\":11624:11630   */\n      dup7\n        /* \"#utility.yul\":11615:11622   */\n      dup4\n        /* \"#utility.yul\":11612:11631   */\n      lt\n        /* \"#utility.yul\":11609:11788   */\n      iszero\n      tag_255\n      jumpi\n        /* \"#utility.yul\":11682:11691   */\n      dup5\n        /* \"#utility.yul\":11677:11680   */\n      dup10\n        /* \"#utility.yul\":11673:11692   */\n      add\n        /* \"#utility.yul\":11667:11693   */\n      mload\n        /* \"#utility.yul\":11725:11773   */\n      tag_256\n        /* \"#utility.yul\":11767:11771   */\n      0x1f\n        /* \"#utility.yul\":11759:11765   */\n      dup10\n        /* \"#utility.yul\":11755:11772   */\n      and\n        /* \"#utility.yul\":11744:11753   */\n      dup3\n        /* \"#utility.yul\":11725:11773   */\n      tag_117\n      jump\t// in\n    tag_256:\n        /* \"#utility.yul\":11717:11723   */\n      dup4\n        /* \"#utility.yul\":11710:11774   */\n      sstore\n        /* \"#utility.yul\":11632:11788   */\n      pop\n        /* \"#utility.yul\":11609:11788   */\n    tag_255:\n        /* \"#utility.yul\":11834:11835   */\n      0x01\n        /* \"#utility.yul\":11830:11831   */\n      0x02\n        /* \"#utility.yul\":11822:11828   */\n      dup9\n        /* \"#utility.yul\":11818:11832   */\n      mul\n        /* \"#utility.yul\":11814:11836   */\n      add\n        /* \"#utility.yul\":11808:11812   */\n      dup9\n        /* \"#utility.yul\":11801:11837   */\n      sstore\n        /* \"#utility.yul\":11236:11847   */\n      pop\n      pop\n      pop\n        /* \"#utility.yul\":11199:12086   */\n    tag_247:\n      pop\n        /* \"#utility.yul\":10789:12092   */\n      pop\n      pop\n      pop\n        /* \"#utility.yul\":10697:12092   */\n      pop\n      pop\n      jump\t// out\n\n    auxdata: 0xa2646970667358221220fc34166d17219f50baf249712f839c8df87d41f507611e059a0ae41af2dea8fe64736f6c634300081e0033\n}\n",
				"bytecode": {
					"linkReferences": {},
					"object": "60806040526040518060600160405280600781526020016040518060400160405280600781526020017f66696e616e63650000000000000000000000000000000000000000000000000081525081526020016040518060400160405280600481526020017f416c65780000000000000000000000000000000000000000000000000000000081525081525060015f820151815f015560208201518160010190816100a991906103b8565b5060408201518160020190816100bf91906103b8565b5050503480156100cd575f5ffd5b506040518060400160405280600881526020017f7375616e69636b730000000000000000000000000000000000000000000000008152505f5f600181526020019081526020015f20908161012191906103b8565b506040518060400160405280600781526020017f6368617568616e000000000000000000000000000000000000000000000000008152505f5f600281526020019081526020015f20908161017591906103b8565b50610487565b5f81519050919050565b7f4e487b71000000000000000000000000000000000000000000000000000000005f52604160045260245ffd5b7f4e487b71000000000000000000000000000000000000000000000000000000005f52602260045260245ffd5b5f60028204905060018216806101f657607f821691505b602082108103610209576102086101b2565b5b50919050565b5f819050815f5260205f209050919050565b5f6020601f8301049050919050565b5f82821b905092915050565b5f6008830261026b7fffffffffffffffffffffffffffffffffffffffffffffffffffffffffffffffff82610230565b6102758683610230565b95508019841693508086168417925050509392505050565b5f819050919050565b5f819050919050565b5f6102b96102b46102af8461028d565b610296565b61028d565b9050919050565b5f819050919050565b6102d28361029f565b6102e66102de826102c0565b84845461023c565b825550505050565b5f5f905090565b6102fd6102ee565b6103088184846102c9565b505050565b5b8181101561032b576103205f826102f5565b60018101905061030e565b5050565b601f821115610370576103418161020f565b61034a84610221565b81016020851015610359578190505b61036d61036585610221565b83018261030d565b50505b505050565b5f82821c905092915050565b5f6103905f1984600802610375565b1980831691505092915050565b5f6103a88383610381565b9150826002028217905092915050565b6103c18261017b565b67ffffffffffffffff8111156103da576103d9610185565b5b6103e482546101df565b6103ef82828561032f565b5f60209050601f831160018114610420575f841561040e578287015190505b610418858261039d565b86555061047f565b601f19841661042e8661020f565b5f5b8281101561045557848901518255600182019150602085019450602081019050610430565b86831015610472578489015161046e601f891682610381565b8355505b6001600288020188555050505b505050505050565b610d3c806104945f395ff3fe608060405234801561000f575f5ffd5b5060043610610060575f3560e01c8063248752df1461006457806334556801146100965780634622ab03146100b257806368744046146100e2578063963b0cb8146101145780639d748d1614610130575b5f5ffd5b61007e60048036038101906100799190610727565b610150565b60405161008d939291906107e4565b60405180910390f35b6100b060048036038101906100ab9190610953565b61028d565b005b6100cc60048036038101906100c791906109ef565b610331565b6040516100d99190610a1a565b60405180910390f35b6100fc60048036038101906100f791906109ef565b6103cb565b60405161010b939291906107e4565b60405180910390f35b61012e60048036038101906101299190610953565b6104fd565b005b610138610566565b604051610147939291906107e4565b60405180910390f35b6005602052815f5260405f20602052805f5260405f205f9150915050805f01549080600101805461018090610a67565b80601f01602080910402602001604051908101604052809291908181526020018280546101ac90610a67565b80156101f75780601f106101ce576101008083540402835291602001916101f7565b820191905f5260205f20905b8154815290600101906020018083116101da57829003601f168201915b50505050509080600201805461020c90610a67565b80601f016020809104026020016040519081016040528092919081815260200182805461023890610a67565b80156102835780601f1061025a57610100808354040283529160200191610283565b820191905f5260205f20905b81548152906001019060200180831161026657829003601f168201915b5050505050905083565b60405180606001604052808481526020018381526020018281525060055f3373ffffffffffffffffffffffffffffffffffffffff1673ffffffffffffffffffffffffffffffffffffffff1681526020019081526020015f205f8681526020019081526020015f205f820151815f015560208201518160010190816103119190610c37565b5060408201518160020190816103279190610c37565b5090505050505050565b5f602052805f5260405f205f91509050805461034c90610a67565b80601f016020809104026020016040519081016040528092919081815260200182805461037890610a67565b80156103c35780601f1061039a576101008083540402835291602001916103c3565b820191905f5260205f20905b8154815290600101906020018083116103a657829003601f168201915b505050505081565b6004602052805f5260405f205f91509050805f0154908060010180546103f090610a67565b80601f016020809104026020016040519081016040528092919081815260200182805461041c90610a67565b80156104675780601f1061043e57610100808354040283529160200191610467565b820191905f5260205f20905b81548152906001019060200180831161044a57829003601f168201915b50505050509080600201805461047c90610a67565b80601f01602080910402602001604051908101604052809291908181526020018280546104a890610a67565b80156104f35780601f106104ca576101008083540402835291602001916104f3565b820191905f5260205f20905b8154815290600101906020018083116104d657829003601f168201915b5050505050905083565b60405180606001604052808481526020018381526020018281525060045f8681526020019081526020015f205f820151815f015560208201518160010190816105469190610c37565b50604082015181600201908161055c9190610c37565b5090505050505050565b6001805f01549080600101805461057c90610a67565b80601f01602080910402602001604051908101604052809291908181526020018280546105a890610a67565b80156105f35780601f106105ca576101008083540402835291602001916105f3565b820191905f5260205f20905b8154815290600101906020018083116105d657829003601f168201915b50505050509080600201805461060890610a67565b80601f016020809104026020016040519081016040528092919081815260200182805461063490610a67565b801561067f5780601f106106565761010080835404028352916020019161067f565b820191905f5260205f20905b81548152906001019060200180831161066257829003601f168201915b5050505050905083565b5f604051905090565b5f5ffd5b5f5ffd5b5f73ffffffffffffffffffffffffffffffffffffffff82169050919050565b5f6106c38261069a565b9050919050565b6106d3816106b9565b81146106dd575f5ffd5b50565b5f813590506106ee816106ca565b92915050565b5f819050919050565b610706816106f4565b8114610710575f5ffd5b50565b5f81359050610721816106fd565b92915050565b5f5f6040838503121561073d5761073c610692565b5b5f61074a858286016106e0565b925050602061075b85828601610713565b9150509250929050565b61076e816106f4565b82525050565b5f81519050919050565b5f82825260208201905092915050565b8281835e5f83830152505050565b5f601f19601f8301169050919050565b5f6107b682610774565b6107c0818561077e565b93506107d081856020860161078e565b6107d98161079c565b840191505092915050565b5f6060820190506107f75f830186610765565b818103602083015261080981856107ac565b9050818103604083015261081d81846107ac565b9050949350505050565b5f5ffd5b5f5ffd5b7f4e487b71000000000000000000000000000000000000000000000000000000005f52604160045260245ffd5b6108658261079c565b810181811067ffffffffffffffff821117156108845761088361082f565b5b80604052505050565b5f610896610689565b90506108a2828261085c565b919050565b5f67ffffffffffffffff8211156108c1576108c061082f565b5b6108ca8261079c565b9050602081019050919050565b828183375f83830152505050565b5f6108f76108f2846108a7565b61088d565b9050828152602081018484840111156109135761091261082b565b5b61091e8482856108d7565b509392505050565b5f82601f83011261093a57610939610827565b5b813561094a8482602086016108e5565b91505092915050565b5f5f5f5f6080858703121561096b5761096a610692565b5b5f61097887828801610713565b945050602061098987828801610713565b935050604085013567ffffffffffffffff8111156109aa576109a9610696565b5b6109b687828801610926565b925050606085013567ffffffffffffffff8111156109d7576109d6610696565b5b6109e387828801610926565b91505092959194509250565b5f60208284031215610a0457610a03610692565b5b5f610a1184828501610713565b91505092915050565b5f6020820190508181035f830152610a3281846107ac565b905092915050565b7f4e487b71000000000000000000000000000000000000000000000000000000005f52602260045260245ffd5b5f6002820490506001821680610a7e57607f821691505b602082108103610a9157610a90610a3a565b5b50919050565b5f819050815f5260205f209050919050565b5f6020601f8301049050919050565b5f82821b905092915050565b5f60088302610af37fffffffffffffffffffffffffffffffffffffffffffffffffffffffffffffffff82610ab8565b610afd8683610ab8565b95508019841693508086168417925050509392505050565b5f819050919050565b5f610b38610b33610b2e846106f4565b610b15565b6106f4565b9050919050565b5f819050919050565b610b5183610b1e565b610b65610b5d82610b3f565b848454610ac4565b825550505050565b5f5f905090565b610b7c610b6d565b610b87818484610b48565b505050565b5b81811015610baa57610b9f5f82610b74565b600181019050610b8d565b5050565b601f821115610bef57610bc081610a97565b610bc984610aa9565b81016020851015610bd8578190505b610bec610be485610aa9565b830182610b8c565b50505b505050565b5f82821c905092915050565b5f610c0f5f1984600802610bf4565b1980831691505092915050565b5f610c278383610c00565b9150826002028217905092915050565b610c4082610774565b67ffffffffffffffff811115610c5957610c5861082f565b5b610c638254610a67565b610c6e828285610bae565b5f60209050601f831160018114610c9f575f8415610c8d578287015190505b610c978582610c1c565b865550610cfe565b601f198416610cad86610a97565b5f5b82811015610cd457848901518255600182019150602085019450602081019050610caf565b86831015610cf15784890151610ced601f891682610c00565b8355505b6001600288020188555050505b50505050505056fea2646970667358221220fc34166d17219f50baf249712f839c8df87d41f507611e059a0ae41af2dea8fe64736f6c634300081e0033",
					"opcodes": "PUSH1 0x80 PUSH1 0x40 MSTORE PUSH1 0x40 MLOAD DUP1 PUSH1 0x60 ADD PUSH1 0x40 MSTORE DUP1 PUSH1 0x7 DUP2 MSTORE PUSH1 0x20 ADD PUSH1 0x40 MLOAD DUP1 PUSH1 0x40 ADD PUSH1 0x40 MSTORE DUP1 PUSH1 0x7 DUP2 MSTORE PUSH1 0x20 ADD PUSH32 0x66696E616E636500000000000000000000000000000000000000000000000000 DUP2 MSTORE POP DUP2 MSTORE PUSH1 0x20 ADD PUSH1 0x40 MLOAD DUP1 PUSH1 0x40 ADD PUSH1 0x40 MSTORE DUP1 PUSH1 0x4 DUP2 MSTORE PUSH1 0x20 ADD PUSH32 0x416C657800000000000000000000000000000000000000000000000000000000 DUP2 MSTORE POP DUP2 MSTORE POP PUSH1 0x1 PUSH0 DUP3 ADD MLOAD DUP2 PUSH0 ADD SSTORE PUSH1 0x20 DUP3 ADD MLOAD DUP2 PUSH1 0x1 ADD SWAP1 DUP2 PUSH2 0xA9 SWAP2 SWAP1 PUSH2 0x3B8 JUMP JUMPDEST POP PUSH1 0x40 DUP3 ADD MLOAD DUP2 PUSH1 0x2 ADD SWAP1 DUP2 PUSH2 0xBF SWAP2 SWAP1 PUSH2 0x3B8 JUMP JUMPDEST POP POP POP CALLVALUE DUP1 ISZERO PUSH2 0xCD JUMPI PUSH0 PUSH0 REVERT JUMPDEST POP PUSH1 0x40 MLOAD DUP1 PUSH1 0x40 ADD PUSH1 0x40 MSTORE DUP1 PUSH1 0x8 DUP2 MSTORE PUSH1 0x20 ADD PUSH32 0x7375616E69636B73000000000000000000000000000000000000000000000000 DUP2 MSTORE POP PUSH0 PUSH0 PUSH1 0x1 DUP2 MSTORE PUSH1 0x20 ADD SWAP1 DUP2 MSTORE PUSH1 0x20 ADD PUSH0 KECCAK256 SWAP1 DUP2 PUSH2 0x121 SWAP2 SWAP1 PUSH2 0x3B8 JUMP JUMPDEST POP PUSH1 0x40 MLOAD DUP1 PUSH1 0x40 ADD PUSH1 0x40 MSTORE DUP1 PUSH1 0x7 DUP2 MSTORE PUSH1 0x20 ADD PUSH32 0x6368617568616E00000000000000000000000000000000000000000000000000 DUP2 MSTORE POP PUSH0 PUSH0 PUSH1 0x2 DUP2 MSTORE PUSH1 0x20 ADD SWAP1 DUP2 MSTORE PUSH1 0x20 ADD PUSH0 KECCAK256 SWAP1 DUP2 PUSH2 0x175 SWAP2 SWAP1 PUSH2 0x3B8 JUMP JUMPDEST POP PUSH2 0x487 JUMP JUMPDEST PUSH0 DUP2 MLOAD SWAP1 POP SWAP2 SWAP1 POP JUMP JUMPDEST PUSH32 0x4E487B7100000000000000000000000000000000000000000000000000000000 PUSH0 MSTORE PUSH1 0x41 PUSH1 0x4 MSTORE PUSH1 0x24 PUSH0 REVERT JUMPDEST PUSH32 0x4E487B7100000000000000000000000000000000000000000000000000000000 PUSH0 MSTORE PUSH1 0x22 PUSH1 0x4 MSTORE PUSH1 0x24 PUSH0 REVERT JUMPDEST PUSH0 PUSH1 0x2 DUP3 DIV SWAP1 POP PUSH1 0x1 DUP3 AND DUP1 PUSH2 0x1F6 JUMPI PUSH1 0x7F DUP3 AND SWAP2 POP JUMPDEST PUSH1 0x20 DUP3 LT DUP2 SUB PUSH2 0x209 JUMPI PUSH2 0x208 PUSH2 0x1B2 JUMP JUMPDEST JUMPDEST POP SWAP2 SWAP1 POP JUMP JUMPDEST PUSH0 DUP2 SWAP1 POP DUP2 PUSH0 MSTORE PUSH1 0x20 PUSH0 KECCAK256 SWAP1 POP SWAP2 SWAP1 POP JUMP JUMPDEST PUSH0 PUSH1 0x20 PUSH1 0x1F DUP4 ADD DIV SWAP1 POP SWAP2 SWAP1 POP JUMP JUMPDEST PUSH0 DUP3 DUP3 SHL SWAP1 POP SWAP3 SWAP2 POP POP JUMP JUMPDEST PUSH0 PUSH1 0x8 DUP4 MUL PUSH2 0x26B PUSH32 0xFFFFFFFFFFFFFFFFFFFFFFFFFFFFFFFFFFFFFFFFFFFFFFFFFFFFFFFFFFFFFFFF DUP3 PUSH2 0x230 JUMP JUMPDEST PUSH2 0x275 DUP7 DUP4 PUSH2 0x230 JUMP JUMPDEST SWAP6 POP DUP1 NOT DUP5 AND SWAP4 POP DUP1 DUP7 AND DUP5 OR SWAP3 POP POP POP SWAP4 SWAP3 POP POP POP JUMP JUMPDEST PUSH0 DUP2 SWAP1 POP SWAP2 SWAP1 POP JUMP JUMPDEST PUSH0 DUP2 SWAP1 POP SWAP2 SWAP1 POP JUMP JUMPDEST PUSH0 PUSH2 0x2B9 PUSH2 0x2B4 PUSH2 0x2AF DUP5 PUSH2 0x28D JUMP JUMPDEST PUSH2 0x296 JUMP JUMPDEST PUSH2 0x28D JUMP JUMPDEST SWAP1 POP SWAP2 SWAP1 POP JUMP JUMPDEST PUSH0 DUP2 SWAP1 POP SWAP2 SWAP1 POP JUMP JUMPDEST PUSH2 0x2D2 DUP4 PUSH2 0x29F JUMP JUMPDEST PUSH2 0x2E6 PUSH2 0x2DE DUP3 PUSH2 0x2C0 JUMP JUMPDEST DUP5 DUP5 SLOAD PUSH2 0x23C JUMP JUMPDEST DUP3 SSTORE POP POP POP POP JUMP JUMPDEST PUSH0 PUSH0 SWAP1 POP SWAP1 JUMP JUMPDEST PUSH2 0x2FD PUSH2 0x2EE JUMP JUMPDEST PUSH2 0x308 DUP2 DUP5 DUP5 PUSH2 0x2C9 JUMP JUMPDEST POP POP POP JUMP JUMPDEST JUMPDEST DUP2 DUP2 LT ISZERO PUSH2 0x32B JUMPI PUSH2 0x320 PUSH0 DUP3 PUSH2 0x2F5 JUMP JUMPDEST PUSH1 0x1 DUP2 ADD SWAP1 POP PUSH2 0x30E JUMP JUMPDEST POP POP JUMP JUMPDEST PUSH1 0x1F DUP3 GT ISZERO PUSH2 0x370 JUMPI PUSH2 0x341 DUP2 PUSH2 0x20F JUMP JUMPDEST PUSH2 0x34A DUP5 PUSH2 0x221 JUMP JUMPDEST DUP2 ADD PUSH1 0x20 DUP6 LT ISZERO PUSH2 0x359 JUMPI DUP2 SWAP1 POP JUMPDEST PUSH2 0x36D PUSH2 0x365 DUP6 PUSH2 0x221 JUMP JUMPDEST DUP4 ADD DUP3 PUSH2 0x30D JUMP JUMPDEST POP POP JUMPDEST POP POP POP JUMP JUMPDEST PUSH0 DUP3 DUP3 SHR SWAP1 POP SWAP3 SWAP2 POP POP JUMP JUMPDEST PUSH0 PUSH2 0x390 PUSH0 NOT DUP5 PUSH1 0x8 MUL PUSH2 0x375 JUMP JUMPDEST NOT DUP1 DUP4 AND SWAP2 POP POP SWAP3 SWAP2 POP POP JUMP JUMPDEST PUSH0 PUSH2 0x3A8 DUP4 DUP4 PUSH2 0x381 JUMP JUMPDEST SWAP2 POP DUP3 PUSH1 0x2 MUL DUP3 OR SWAP1 POP SWAP3 SWAP2 POP POP JUMP JUMPDEST PUSH2 0x3C1 DUP3 PUSH2 0x17B JUMP JUMPDEST PUSH8 0xFFFFFFFFFFFFFFFF DUP2 GT ISZERO PUSH2 0x3DA JUMPI PUSH2 0x3D9 PUSH2 0x185 JUMP JUMPDEST JUMPDEST PUSH2 0x3E4 DUP3 SLOAD PUSH2 0x1DF JUMP JUMPDEST PUSH2 0x3EF DUP3 DUP3 DUP6 PUSH2 0x32F JUMP JUMPDEST PUSH0 PUSH1 0x20 SWAP1 POP PUSH1 0x1F DUP4 GT PUSH1 0x1 DUP2 EQ PUSH2 0x420 JUMPI PUSH0 DUP5 ISZERO PUSH2 0x40E JUMPI DUP3 DUP8 ADD MLOAD SWAP1 POP JUMPDEST PUSH2 0x418 DUP6 DUP3 PUSH2 0x39D JUMP JUMPDEST DUP7 SSTORE POP PUSH2 0x47F JUMP JUMPDEST PUSH1 0x1F NOT DUP5 AND PUSH2 0x42E DUP7 PUSH2 0x20F JUMP JUMPDEST PUSH0 JUMPDEST DUP3 DUP2 LT ISZERO PUSH2 0x455 JUMPI DUP5 DUP10 ADD MLOAD DUP3 SSTORE PUSH1 0x1 DUP3 ADD SWAP2 POP PUSH1 0x20 DUP6 ADD SWAP5 POP PUSH1 0x20 DUP2 ADD SWAP1 POP PUSH2 0x430 JUMP JUMPDEST DUP7 DUP4 LT ISZERO PUSH2 0x472 JUMPI DUP5 DUP10 ADD MLOAD PUSH2 0x46E PUSH1 0x1F DUP10 AND DUP3 PUSH2 0x381 JUMP JUMPDEST DUP4 SSTORE POP JUMPDEST PUSH1 0x1 PUSH1 0x2 DUP9 MUL ADD DUP9 SSTORE POP POP POP JUMPDEST POP POP POP POP POP POP JUMP JUMPDEST PUSH2 0xD3C DUP1 PUSH2 0x494 PUSH0 CODECOPY PUSH0 RETURN INVALID PUSH1 0x80 PUSH1 0x40 MSTORE CALLVALUE DUP1 ISZERO PUSH2 0xF JUMPI PUSH0 PUSH0 REVERT JUMPDEST POP PUSH1 0x4 CALLDATASIZE LT PUSH2 0x60 JUMPI PUSH0 CALLDATALOAD PUSH1 0xE0 SHR DUP1 PUSH4 0x248752DF EQ PUSH2 0x64 JUMPI DUP1 PUSH4 0x34556801 EQ PUSH2 0x96 JUMPI DUP1 PUSH4 0x4622AB03 EQ PUSH2 0xB2 JUMPI DUP1 PUSH4 0x68744046 EQ PUSH2 0xE2 JUMPI DUP1 PUSH4 0x963B0CB8 EQ PUSH2 0x114 JUMPI DUP1 PUSH4 0x9D748D16 EQ PUSH2 0x130 JUMPI JUMPDEST PUSH0 PUSH0 REVERT JUMPDEST PUSH2 0x7E PUSH1 0x4 DUP1 CALLDATASIZE SUB DUP2 ADD SWAP1 PUSH2 0x79 SWAP2 SWAP1 PUSH2 0x727 JUMP JUMPDEST PUSH2 0x150 JUMP JUMPDEST PUSH1 0x40 MLOAD PUSH2 0x8D SWAP4 SWAP3 SWAP2 SWAP1 PUSH2 0x7E4 JUMP JUMPDEST PUSH1 0x40 MLOAD DUP1 SWAP2 SUB SWAP1 RETURN JUMPDEST PUSH2 0xB0 PUSH1 0x4 DUP1 CALLDATASIZE SUB DUP2 ADD SWAP1 PUSH2 0xAB SWAP2 SWAP1 PUSH2 0x953 JUMP JUMPDEST PUSH2 0x28D JUMP JUMPDEST STOP JUMPDEST PUSH2 0xCC PUSH1 0x4 DUP1 CALLDATASIZE SUB DUP2 ADD SWAP1 PUSH2 0xC7 SWAP2 SWAP1 PUSH2 0x9EF JUMP JUMPDEST PUSH2 0x331 JUMP JUMPDEST PUSH1 0x40 MLOAD PUSH2 0xD9 SWAP2 SWAP1 PUSH2 0xA1A JUMP JUMPDEST PUSH1 0x40 MLOAD DUP1 SWAP2 SUB SWAP1 RETURN JUMPDEST PUSH2 0xFC PUSH1 0x4 DUP1 CALLDATASIZE SUB DUP2 ADD SWAP1 PUSH2 0xF7 SWAP2 SWAP1 PUSH2 0x9EF JUMP JUMPDEST PUSH2 0x3CB JUMP JUMPDEST PUSH1 0x40 MLOAD PUSH2 0x10B SWAP4 SWAP3 SWAP2 SWAP1 PUSH2 0x7E4 JUMP JUMPDEST PUSH1 0x40 MLOAD DUP1 SWAP2 SUB SWAP1 RETURN JUMPDEST PUSH2 0x12E PUSH1 0x4 DUP1 CALLDATASIZE SUB DUP2 ADD SWAP1 PUSH2 0x129 SWAP2 SWAP1 PUSH2 0x953 JUMP JUMPDEST PUSH2 0x4FD JUMP JUMPDEST STOP JUMPDEST PUSH2 0x138 PUSH2 0x566 JUMP JUMPDEST PUSH1 0x40 MLOAD PUSH2 0x147 SWAP4 SWAP3 SWAP2 SWAP1 PUSH2 0x7E4 JUMP JUMPDEST PUSH1 0x40 MLOAD DUP1 SWAP2 SUB SWAP1 RETURN JUMPDEST PUSH1 0x5 PUSH1 0x20 MSTORE DUP2 PUSH0 MSTORE PUSH1 0x40 PUSH0 KECCAK256 PUSH1 0x20 MSTORE DUP1 PUSH0 MSTORE PUSH1 0x40 PUSH0 KECCAK256 PUSH0 SWAP2 POP SWAP2 POP POP DUP1 PUSH0 ADD SLOAD SWAP1 DUP1 PUSH1 0x1 ADD DUP1 SLOAD PUSH2 0x180 SWAP1 PUSH2 0xA67 JUMP JUMPDEST DUP1 PUSH1 0x1F ADD PUSH1 0x20 DUP1 SWAP2 DIV MUL PUSH1 0x20 ADD PUSH1 0x40 MLOAD SWAP1 DUP2 ADD PUSH1 0x40 MSTORE DUP1 SWAP3 SWAP2 SWAP1 DUP2 DUP2 MSTORE PUSH1 0x20 ADD DUP3 DUP1 SLOAD PUSH2 0x1AC SWAP1 PUSH2 0xA67 JUMP JUMPDEST DUP1 ISZERO PUSH2 0x1F7 JUMPI DUP1 PUSH1 0x1F LT PUSH2 0x1CE JUMPI PUSH2 0x100 DUP1 DUP4 SLOAD DIV MUL DUP4 MSTORE SWAP2 PUSH1 0x20 ADD SWAP2 PUSH2 0x1F7 JUMP JUMPDEST DUP3 ADD SWAP2 SWAP1 PUSH0 MSTORE PUSH1 0x20 PUSH0 KECCAK256 SWAP1 JUMPDEST DUP2 SLOAD DUP2 MSTORE SWAP1 PUSH1 0x1 ADD SWAP1 PUSH1 0x20 ADD DUP1 DUP4 GT PUSH2 0x1DA JUMPI DUP3 SWAP1 SUB PUSH1 0x1F AND DUP3 ADD SWAP2 JUMPDEST POP POP POP POP POP SWAP1 DUP1 PUSH1 0x2 ADD DUP1 SLOAD PUSH2 0x20C SWAP1 PUSH2 0xA67 JUMP JUMPDEST DUP1 PUSH1 0x1F ADD PUSH1 0x20 DUP1 SWAP2 DIV MUL PUSH1 0x20 ADD PUSH1 0x40 MLOAD SWAP1 DUP2 ADD PUSH1 0x40 MSTORE DUP1 SWAP3 SWAP2 SWAP1 DUP2 DUP2 MSTORE PUSH1 0x20 ADD DUP3 DUP1 SLOAD PUSH2 0x238 SWAP1 PUSH2 0xA67 JUMP JUMPDEST DUP1 ISZERO PUSH2 0x283 JUMPI DUP1 PUSH1 0x1F LT PUSH2 0x25A JUMPI PUSH2 0x100 DUP1 DUP4 SLOAD DIV MUL DUP4 MSTORE SWAP2 PUSH1 0x20 ADD SWAP2 PUSH2 0x283 JUMP JUMPDEST DUP3 ADD SWAP2 SWAP1 PUSH0 MSTORE PUSH1 0x20 PUSH0 KECCAK256 SWAP1 JUMPDEST DUP2 SLOAD DUP2 MSTORE SWAP1 PUSH1 0x1 ADD SWAP1 PUSH1 0x20 ADD DUP1 DUP4 GT PUSH2 0x266 JUMPI DUP3 SWAP1 SUB PUSH1 0x1F AND DUP3 ADD SWAP2 JUMPDEST POP POP POP POP POP SWAP1 POP DUP4 JUMP JUMPDEST PUSH1 0x40 MLOAD DUP1 PUSH1 0x60 ADD PUSH1 0x40 MSTORE DUP1 DUP5 DUP2 MSTORE PUSH1 0x20 ADD DUP4 DUP2 MSTORE PUSH1 0x20 ADD DUP3 DUP2 MSTORE POP PUSH1 0x5 PUSH0 CALLER PUSH20 0xFFFFFFFFFFFFFFFFFFFFFFFFFFFFFFFFFFFFFFFF AND PUSH20 0xFFFFFFFFFFFFFFFFFFFFFFFFFFFFFFFFFFFFFFFF AND DUP2 MSTORE PUSH1 0x20 ADD SWAP1 DUP2 MSTORE PUSH1 0x20 ADD PUSH0 KECCAK256 PUSH0 DUP7 DUP2 MSTORE PUSH1 0x20 ADD SWAP1 DUP2 MSTORE PUSH1 0x20 ADD PUSH0 KECCAK256 PUSH0 DUP3 ADD MLOAD DUP2 PUSH0 ADD SSTORE PUSH1 0x20 DUP3 ADD MLOAD DUP2 PUSH1 0x1 ADD SWAP1 DUP2 PUSH2 0x311 SWAP2 SWAP1 PUSH2 0xC37 JUMP JUMPDEST POP PUSH1 0x40 DUP3 ADD MLOAD DUP2 PUSH1 0x2 ADD SWAP1 DUP2 PUSH2 0x327 SWAP2 SWAP1 PUSH2 0xC37 JUMP JUMPDEST POP SWAP1 POP POP POP POP POP POP JUMP JUMPDEST PUSH0 PUSH1 0x20 MSTORE DUP1 PUSH0 MSTORE PUSH1 0x40 PUSH0 KECCAK256 PUSH0 SWAP2 POP SWAP1 POP DUP1 SLOAD PUSH2 0x34C SWAP1 PUSH2 0xA67 JUMP JUMPDEST DUP1 PUSH1 0x1F ADD PUSH1 0x20 DUP1 SWAP2 DIV MUL PUSH1 0x20 ADD PUSH1 0x40 MLOAD SWAP1 DUP2 ADD PUSH1 0x40 MSTORE DUP1 SWAP3 SWAP2 SWAP1 DUP2 DUP2 MSTORE PUSH1 0x20 ADD DUP3 DUP1 SLOAD PUSH2 0x378 SWAP1 PUSH2 0xA67 JUMP JUMPDEST DUP1 ISZERO PUSH2 0x3C3 JUMPI DUP1 PUSH1 0x1F LT PUSH2 0x39A JUMPI PUSH2 0x100 DUP1 DUP4 SLOAD DIV MUL DUP4 MSTORE SWAP2 PUSH1 0x20 ADD SWAP2 PUSH2 0x3C3 JUMP JUMPDEST DUP3 ADD SWAP2 SWAP1 PUSH0 MSTORE PUSH1 0x20 PUSH0 KECCAK256 SWAP1 JUMPDEST DUP2 SLOAD DUP2 MSTORE SWAP1 PUSH1 0x1 ADD SWAP1 PUSH1 0x20 ADD DUP1 DUP4 GT PUSH2 0x3A6 JUMPI DUP3 SWAP1 SUB PUSH1 0x1F AND DUP3 ADD SWAP2 JUMPDEST POP POP POP POP POP DUP2 JUMP JUMPDEST PUSH1 0x4 PUSH1 0x20 MSTORE DUP1 PUSH0 MSTORE PUSH1 0x40 PUSH0 KECCAK256 PUSH0 SWAP2 POP SWAP1 POP DUP1 PUSH0 ADD SLOAD SWAP1 DUP1 PUSH1 0x1 ADD DUP1 SLOAD PUSH2 0x3F0 SWAP1 PUSH2 0xA67 JUMP JUMPDEST DUP1 PUSH1 0x1F ADD PUSH1 0x20 DUP1 SWAP2 DIV MUL PUSH1 0x20 ADD PUSH1 0x40 MLOAD SWAP1 DUP2 ADD PUSH1 0x40 MSTORE DUP1 SWAP3 SWAP2 SWAP1 DUP2 DUP2 MSTORE PUSH1 0x20 ADD DUP3 DUP1 SLOAD PUSH2 0x41C SWAP1 PUSH2 0xA67 JUMP JUMPDEST DUP1 ISZERO PUSH2 0x467 JUMPI DUP1 PUSH1 0x1F LT PUSH2 0x43E JUMPI PUSH2 0x100 DUP1 DUP4 SLOAD DIV MUL DUP4 MSTORE SWAP2 PUSH1 0x20 ADD SWAP2 PUSH2 0x467 JUMP JUMPDEST DUP3 ADD SWAP2 SWAP1 PUSH0 MSTORE PUSH1 0x20 PUSH0 KECCAK256 SWAP1 JUMPDEST DUP2 SLOAD DUP2 MSTORE SWAP1 PUSH1 0x1 ADD SWAP1 PUSH1 0x20 ADD DUP1 DUP4 GT PUSH2 0x44A JUMPI DUP3 SWAP1 SUB PUSH1 0x1F AND DUP3 ADD SWAP2 JUMPDEST POP POP POP POP POP SWAP1 DUP1 PUSH1 0x2 ADD DUP1 SLOAD PUSH2 0x47C SWAP1 PUSH2 0xA67 JUMP JUMPDEST DUP1 PUSH1 0x1F ADD PUSH1 0x20 DUP1 SWAP2 DIV MUL PUSH1 0x20 ADD PUSH1 0x40 MLOAD SWAP1 DUP2 ADD PUSH1 0x40 MSTORE DUP1 SWAP3 SWAP2 SWAP1 DUP2 DUP2 MSTORE PUSH1 0x20 ADD DUP3 DUP1 SLOAD PUSH2 0x4A8 SWAP1 PUSH2 0xA67 JUMP JUMPDEST DUP1 ISZERO PUSH2 0x4F3 JUMPI DUP1 PUSH1 0x1F LT PUSH2 0x4CA JUMPI PUSH2 0x100 DUP1 DUP4 SLOAD DIV MUL DUP4 MSTORE SWAP2 PUSH1 0x20 ADD SWAP2 PUSH2 0x4F3 JUMP JUMPDEST DUP3 ADD SWAP2 SWAP1 PUSH0 MSTORE PUSH1 0x20 PUSH0 KECCAK256 SWAP1 JUMPDEST DUP2 SLOAD DUP2 MSTORE SWAP1 PUSH1 0x1 ADD SWAP1 PUSH1 0x20 ADD DUP1 DUP4 GT PUSH2 0x4D6 JUMPI DUP3 SWAP1 SUB PUSH1 0x1F AND DUP3 ADD SWAP2 JUMPDEST POP POP POP POP POP SWAP1 POP DUP4 JUMP JUMPDEST PUSH1 0x40 MLOAD DUP1 PUSH1 0x60 ADD PUSH1 0x40 MSTORE DUP1 DUP5 DUP2 MSTORE PUSH1 0x20 ADD DUP4 DUP2 MSTORE PUSH1 0x20 ADD DUP3 DUP2 MSTORE POP PUSH1 0x4 PUSH0 DUP7 DUP2 MSTORE PUSH1 0x20 ADD SWAP1 DUP2 MSTORE PUSH1 0x20 ADD PUSH0 KECCAK256 PUSH0 DUP3 ADD MLOAD DUP2 PUSH0 ADD SSTORE PUSH1 0x20 DUP3 ADD MLOAD DUP2 PUSH1 0x1 ADD SWAP1 DUP2 PUSH2 0x546 SWAP2 SWAP1 PUSH2 0xC37 JUMP JUMPDEST POP PUSH1 0x40 DUP3 ADD MLOAD DUP2 PUSH1 0x2 ADD SWAP1 DUP2 PUSH2 0x55C SWAP2 SWAP1 PUSH2 0xC37 JUMP JUMPDEST POP SWAP1 POP POP POP POP POP POP JUMP JUMPDEST PUSH1 0x1 DUP1 PUSH0 ADD SLOAD SWAP1 DUP1 PUSH1 0x1 ADD DUP1 SLOAD PUSH2 0x57C SWAP1 PUSH2 0xA67 JUMP JUMPDEST DUP1 PUSH1 0x1F ADD PUSH1 0x20 DUP1 SWAP2 DIV MUL PUSH1 0x20 ADD PUSH1 0x40 MLOAD SWAP1 DUP2 ADD PUSH1 0x40 MSTORE DUP1 SWAP3 SWAP2 SWAP1 DUP2 DUP2 MSTORE PUSH1 0x20 ADD DUP3 DUP1 SLOAD PUSH2 0x5A8 SWAP1 PUSH2 0xA67 JUMP JUMPDEST DUP1 ISZERO PUSH2 0x5F3 JUMPI DUP1 PUSH1 0x1F LT PUSH2 0x5CA JUMPI PUSH2 0x100 DUP1 DUP4 SLOAD DIV MUL DUP4 MSTORE SWAP2 PUSH1 0x20 ADD SWAP2 PUSH2 0x5F3 JUMP JUMPDEST DUP3 ADD SWAP2 SWAP1 PUSH0 MSTORE PUSH1 0x20 PUSH0 KECCAK256 SWAP1 JUMPDEST DUP2 SLOAD DUP2 MSTORE SWAP1 PUSH1 0x1 ADD SWAP1 PUSH1 0x20 ADD DUP1 DUP4 GT PUSH2 0x5D6 JUMPI DUP3 SWAP1 SUB PUSH1 0x1F AND DUP3 ADD SWAP2 JUMPDEST POP POP POP POP POP SWAP1 DUP1 PUSH1 0x2 ADD DUP1 SLOAD PUSH2 0x608 SWAP1 PUSH2 0xA67 JUMP JUMPDEST DUP1 PUSH1 0x1F ADD PUSH1 0x20 DUP1 SWAP2 DIV MUL PUSH1 0x20 ADD PUSH1 0x40 MLOAD SWAP1 DUP2 ADD PUSH1 0x40 MSTORE DUP1 SWAP3 SWAP2 SWAP1 DUP2 DUP2 MSTORE PUSH1 0x20 ADD DUP3 DUP1 SLOAD PUSH2 0x634 SWAP1 PUSH2 0xA67 JUMP JUMPDEST DUP1 ISZERO PUSH2 0x67F JUMPI DUP1 PUSH1 0x1F LT PUSH2 0x656 JUMPI PUSH2 0x100 DUP1 DUP4 SLOAD DIV MUL DUP4 MSTORE SWAP2 PUSH1 0x20 ADD SWAP2 PUSH2 0x67F JUMP JUMPDEST DUP3 ADD SWAP2 SWAP1 PUSH0 MSTORE PUSH1 0x20 PUSH0 KECCAK256 SWAP1 JUMPDEST DUP2 SLOAD DUP2 MSTORE SWAP1 PUSH1 0x1 ADD SWAP1 PUSH1 0x20 ADD DUP1 DUP4 GT PUSH2 0x662 JUMPI DUP3 SWAP1 SUB PUSH1 0x1F AND DUP3 ADD SWAP2 JUMPDEST POP POP POP POP POP SWAP1 POP DUP4 JUMP JUMPDEST PUSH0 PUSH1 0x40 MLOAD SWAP1 POP SWAP1 JUMP JUMPDEST PUSH0 PUSH0 REVERT JUMPDEST PUSH0 PUSH0 REVERT JUMPDEST PUSH0 PUSH20 0xFFFFFFFFFFFFFFFFFFFFFFFFFFFFFFFFFFFFFFFF DUP3 AND SWAP1 POP SWAP2 SWAP1 POP JUMP JUMPDEST PUSH0 PUSH2 0x6C3 DUP3 PUSH2 0x69A JUMP JUMPDEST SWAP1 POP SWAP2 SWAP1 POP JUMP JUMPDEST PUSH2 0x6D3 DUP2 PUSH2 0x6B9 JUMP JUMPDEST DUP2 EQ PUSH2 0x6DD JUMPI PUSH0 PUSH0 REVERT JUMPDEST POP JUMP JUMPDEST PUSH0 DUP2 CALLDATALOAD SWAP1 POP PUSH2 0x6EE DUP2 PUSH2 0x6CA JUMP JUMPDEST SWAP3 SWAP2 POP POP JUMP JUMPDEST PUSH0 DUP2 SWAP1 POP SWAP2 SWAP1 POP JUMP JUMPDEST PUSH2 0x706 DUP2 PUSH2 0x6F4 JUMP JUMPDEST DUP2 EQ PUSH2 0x710 JUMPI PUSH0 PUSH0 REVERT JUMPDEST POP JUMP JUMPDEST PUSH0 DUP2 CALLDATALOAD SWAP1 POP PUSH2 0x721 DUP2 PUSH2 0x6FD JUMP JUMPDEST SWAP3 SWAP2 POP POP JUMP JUMPDEST PUSH0 PUSH0 PUSH1 0x40 DUP4 DUP6 SUB SLT ISZERO PUSH2 0x73D JUMPI PUSH2 0x73C PUSH2 0x692 JUMP JUMPDEST JUMPDEST PUSH0 PUSH2 0x74A DUP6 DUP3 DUP7 ADD PUSH2 0x6E0 JUMP JUMPDEST SWAP3 POP POP PUSH1 0x20 PUSH2 0x75B DUP6 DUP3 DUP7 ADD PUSH2 0x713 JUMP JUMPDEST SWAP2 POP POP SWAP3 POP SWAP3 SWAP1 POP JUMP JUMPDEST PUSH2 0x76E DUP2 PUSH2 0x6F4 JUMP JUMPDEST DUP3 MSTORE POP POP JUMP JUMPDEST PUSH0 DUP2 MLOAD SWAP1 POP SWAP2 SWAP1 POP JUMP JUMPDEST PUSH0 DUP3 DUP3 MSTORE PUSH1 0x20 DUP3 ADD SWAP1 POP SWAP3 SWAP2 POP POP JUMP JUMPDEST DUP3 DUP2 DUP4 MCOPY PUSH0 DUP4 DUP4 ADD MSTORE POP POP POP JUMP JUMPDEST PUSH0 PUSH1 0x1F NOT PUSH1 0x1F DUP4 ADD AND SWAP1 POP SWAP2 SWAP1 POP JUMP JUMPDEST PUSH0 PUSH2 0x7B6 DUP3 PUSH2 0x774 JUMP JUMPDEST PUSH2 0x7C0 DUP2 DUP6 PUSH2 0x77E JUMP JUMPDEST SWAP4 POP PUSH2 0x7D0 DUP2 DUP6 PUSH1 0x20 DUP7 ADD PUSH2 0x78E JUMP JUMPDEST PUSH2 0x7D9 DUP2 PUSH2 0x79C JUMP JUMPDEST DUP5 ADD SWAP2 POP POP SWAP3 SWAP2 POP POP JUMP JUMPDEST PUSH0 PUSH1 0x60 DUP3 ADD SWAP1 POP PUSH2 0x7F7 PUSH0 DUP4 ADD DUP7 PUSH2 0x765 JUMP JUMPDEST DUP2 DUP2 SUB PUSH1 0x20 DUP4 ADD MSTORE PUSH2 0x809 DUP2 DUP6 PUSH2 0x7AC JUMP JUMPDEST SWAP1 POP DUP2 DUP2 SUB PUSH1 0x40 DUP4 ADD MSTORE PUSH2 0x81D DUP2 DUP5 PUSH2 0x7AC JUMP JUMPDEST SWAP1 POP SWAP5 SWAP4 POP POP POP POP JUMP JUMPDEST PUSH0 PUSH0 REVERT JUMPDEST PUSH0 PUSH0 REVERT JUMPDEST PUSH32 0x4E487B7100000000000000000000000000000000000000000000000000000000 PUSH0 MSTORE PUSH1 0x41 PUSH1 0x4 MSTORE PUSH1 0x24 PUSH0 REVERT JUMPDEST PUSH2 0x865 DUP3 PUSH2 0x79C JUMP JUMPDEST DUP2 ADD DUP2 DUP2 LT PUSH8 0xFFFFFFFFFFFFFFFF DUP3 GT OR ISZERO PUSH2 0x884 JUMPI PUSH2 0x883 PUSH2 0x82F JUMP JUMPDEST JUMPDEST DUP1 PUSH1 0x40 MSTORE POP POP POP JUMP JUMPDEST PUSH0 PUSH2 0x896 PUSH2 0x689 JUMP JUMPDEST SWAP1 POP PUSH2 0x8A2 DUP3 DUP3 PUSH2 0x85C JUMP JUMPDEST SWAP2 SWAP1 POP JUMP JUMPDEST PUSH0 PUSH8 0xFFFFFFFFFFFFFFFF DUP3 GT ISZERO PUSH2 0x8C1 JUMPI PUSH2 0x8C0 PUSH2 0x82F JUMP JUMPDEST JUMPDEST PUSH2 0x8CA DUP3 PUSH2 0x79C JUMP JUMPDEST SWAP1 POP PUSH1 0x20 DUP2 ADD SWAP1 POP SWAP2 SWAP1 POP JUMP JUMPDEST DUP3 DUP2 DUP4 CALLDATACOPY PUSH0 DUP4 DUP4 ADD MSTORE POP POP POP JUMP JUMPDEST PUSH0 PUSH2 0x8F7 PUSH2 0x8F2 DUP5 PUSH2 0x8A7 JUMP JUMPDEST PUSH2 0x88D JUMP JUMPDEST SWAP1 POP DUP3 DUP2 MSTORE PUSH1 0x20 DUP2 ADD DUP5 DUP5 DUP5 ADD GT ISZERO PUSH2 0x913 JUMPI PUSH2 0x912 PUSH2 0x82B JUMP JUMPDEST JUMPDEST PUSH2 0x91E DUP5 DUP3 DUP6 PUSH2 0x8D7 JUMP JUMPDEST POP SWAP4 SWAP3 POP POP POP JUMP JUMPDEST PUSH0 DUP3 PUSH1 0x1F DUP4 ADD SLT PUSH2 0x93A JUMPI PUSH2 0x939 PUSH2 0x827 JUMP JUMPDEST JUMPDEST DUP2 CALLDATALOAD PUSH2 0x94A DUP5 DUP3 PUSH1 0x20 DUP7 ADD PUSH2 0x8E5 JUMP JUMPDEST SWAP2 POP POP SWAP3 SWAP2 POP POP JUMP JUMPDEST PUSH0 PUSH0 PUSH0 PUSH0 PUSH1 0x80 DUP6 DUP8 SUB SLT ISZERO PUSH2 0x96B JUMPI PUSH2 0x96A PUSH2 0x692 JUMP JUMPDEST JUMPDEST PUSH0 PUSH2 0x978 DUP8 DUP3 DUP9 ADD PUSH2 0x713 JUMP JUMPDEST SWAP5 POP POP PUSH1 0x20 PUSH2 0x989 DUP8 DUP3 DUP9 ADD PUSH2 0x713 JUMP JUMPDEST SWAP4 POP POP PUSH1 0x40 DUP6 ADD CALLDATALOAD PUSH8 0xFFFFFFFFFFFFFFFF DUP2 GT ISZERO PUSH2 0x9AA JUMPI PUSH2 0x9A9 PUSH2 0x696 JUMP JUMPDEST JUMPDEST PUSH2 0x9B6 DUP8 DUP3 DUP9 ADD PUSH2 0x926 JUMP JUMPDEST SWAP3 POP POP PUSH1 0x60 DUP6 ADD CALLDATALOAD PUSH8 0xFFFFFFFFFFFFFFFF DUP2 GT ISZERO PUSH2 0x9D7 JUMPI PUSH2 0x9D6 PUSH2 0x696 JUMP JUMPDEST JUMPDEST PUSH2 0x9E3 DUP8 DUP3 DUP9 ADD PUSH2 0x926 JUMP JUMPDEST SWAP2 POP POP SWAP3 SWAP6 SWAP2 SWAP5 POP SWAP3 POP JUMP JUMPDEST PUSH0 PUSH1 0x20 DUP3 DUP5 SUB SLT ISZERO PUSH2 0xA04 JUMPI PUSH2 0xA03 PUSH2 0x692 JUMP JUMPDEST JUMPDEST PUSH0 PUSH2 0xA11 DUP5 DUP3 DUP6 ADD PUSH2 0x713 JUMP JUMPDEST SWAP2 POP POP SWAP3 SWAP2 POP POP JUMP JUMPDEST PUSH0 PUSH1 0x20 DUP3 ADD SWAP1 POP DUP2 DUP2 SUB PUSH0 DUP4 ADD MSTORE PUSH2 0xA32 DUP2 DUP5 PUSH2 0x7AC JUMP JUMPDEST SWAP1 POP SWAP3 SWAP2 POP POP JUMP JUMPDEST PUSH32 0x4E487B7100000000000000000000000000000000000000000000000000000000 PUSH0 MSTORE PUSH1 0x22 PUSH1 0x4 MSTORE PUSH1 0x24 PUSH0 REVERT JUMPDEST PUSH0 PUSH1 0x2 DUP3 DIV SWAP1 POP PUSH1 0x1 DUP3 AND DUP1 PUSH2 0xA7E JUMPI PUSH1 0x7F DUP3 AND SWAP2 POP JUMPDEST PUSH1 0x20 DUP3 LT DUP2 SUB PUSH2 0xA91 JUMPI PUSH2 0xA90 PUSH2 0xA3A JUMP JUMPDEST JUMPDEST POP SWAP2 SWAP1 POP JUMP JUMPDEST PUSH0 DUP2 SWAP1 POP DUP2 PUSH0 MSTORE PUSH1 0x20 PUSH0 KECCAK256 SWAP1 POP SWAP2 SWAP1 POP JUMP JUMPDEST PUSH0 PUSH1 0x20 PUSH1 0x1F DUP4 ADD DIV SWAP1 POP SWAP2 SWAP1 POP JUMP JUMPDEST PUSH0 DUP3 DUP3 SHL SWAP1 POP SWAP3 SWAP2 POP POP JUMP JUMPDEST PUSH0 PUSH1 0x8 DUP4 MUL PUSH2 0xAF3 PUSH32 0xFFFFFFFFFFFFFFFFFFFFFFFFFFFFFFFFFFFFFFFFFFFFFFFFFFFFFFFFFFFFFFFF DUP3 PUSH2 0xAB8 JUMP JUMPDEST PUSH2 0xAFD DUP7 DUP4 PUSH2 0xAB8 JUMP JUMPDEST SWAP6 POP DUP1 NOT DUP5 AND SWAP4 POP DUP1 DUP7 AND DUP5 OR SWAP3 POP POP POP SWAP4 SWAP3 POP POP POP JUMP JUMPDEST PUSH0 DUP2 SWAP1 POP SWAP2 SWAP1 POP JUMP JUMPDEST PUSH0 PUSH2 0xB38 PUSH2 0xB33 PUSH2 0xB2E DUP5 PUSH2 0x6F4 JUMP JUMPDEST PUSH2 0xB15 JUMP JUMPDEST PUSH2 0x6F4 JUMP JUMPDEST SWAP1 POP SWAP2 SWAP1 POP JUMP JUMPDEST PUSH0 DUP2 SWAP1 POP SWAP2 SWAP1 POP JUMP JUMPDEST PUSH2 0xB51 DUP4 PUSH2 0xB1E JUMP JUMPDEST PUSH2 0xB65 PUSH2 0xB5D DUP3 PUSH2 0xB3F JUMP JUMPDEST DUP5 DUP5 SLOAD PUSH2 0xAC4 JUMP JUMPDEST DUP3 SSTORE POP POP POP POP JUMP JUMPDEST PUSH0 PUSH0 SWAP1 POP SWAP1 JUMP JUMPDEST PUSH2 0xB7C PUSH2 0xB6D JUMP JUMPDEST PUSH2 0xB87 DUP2 DUP5 DUP5 PUSH2 0xB48 JUMP JUMPDEST POP POP POP JUMP JUMPDEST JUMPDEST DUP2 DUP2 LT ISZERO PUSH2 0xBAA JUMPI PUSH2 0xB9F PUSH0 DUP3 PUSH2 0xB74 JUMP JUMPDEST PUSH1 0x1 DUP2 ADD SWAP1 POP PUSH2 0xB8D JUMP JUMPDEST POP POP JUMP JUMPDEST PUSH1 0x1F DUP3 GT ISZERO PUSH2 0xBEF JUMPI PUSH2 0xBC0 DUP2 PUSH2 0xA97 JUMP JUMPDEST PUSH2 0xBC9 DUP5 PUSH2 0xAA9 JUMP JUMPDEST DUP2 ADD PUSH1 0x20 DUP6 LT ISZERO PUSH2 0xBD8 JUMPI DUP2 SWAP1 POP JUMPDEST PUSH2 0xBEC PUSH2 0xBE4 DUP6 PUSH2 0xAA9 JUMP JUMPDEST DUP4 ADD DUP3 PUSH2 0xB8C JUMP JUMPDEST POP POP JUMPDEST POP POP POP JUMP JUMPDEST PUSH0 DUP3 DUP3 SHR SWAP1 POP SWAP3 SWAP2 POP POP JUMP JUMPDEST PUSH0 PUSH2 0xC0F PUSH0 NOT DUP5 PUSH1 0x8 MUL PUSH2 0xBF4 JUMP JUMPDEST NOT DUP1 DUP4 AND SWAP2 POP POP SWAP3 SWAP2 POP POP JUMP JUMPDEST PUSH0 PUSH2 0xC27 DUP4 DUP4 PUSH2 0xC00 JUMP JUMPDEST SWAP2 POP DUP3 PUSH1 0x2 MUL DUP3 OR SWAP1 POP SWAP3 SWAP2 POP POP JUMP JUMPDEST PUSH2 0xC40 DUP3 PUSH2 0x774 JUMP JUMPDEST PUSH8 0xFFFFFFFFFFFFFFFF DUP2 GT ISZERO PUSH2 0xC59 JUMPI PUSH2 0xC58 PUSH2 0x82F JUMP JUMPDEST JUMPDEST PUSH2 0xC63 DUP3 SLOAD PUSH2 0xA67 JUMP JUMPDEST PUSH2 0xC6E DUP3 DUP3 DUP6 PUSH2 0xBAE JUMP JUMPDEST PUSH0 PUSH1 0x20 SWAP1 POP PUSH1 0x1F DUP4 GT PUSH1 0x1 DUP2 EQ PUSH2 0xC9F JUMPI PUSH0 DUP5 ISZERO PUSH2 0xC8D JUMPI DUP3 DUP8 ADD MLOAD SWAP1 POP JUMPDEST PUSH2 0xC97 DUP6 DUP3 PUSH2 0xC1C JUMP JUMPDEST DUP7 SSTORE POP PUSH2 0xCFE JUMP JUMPDEST PUSH1 0x1F NOT DUP5 AND PUSH2 0xCAD DUP7 PUSH2 0xA97 JUMP JUMPDEST PUSH0 JUMPDEST DUP3 DUP2 LT ISZERO PUSH2 0xCD4 JUMPI DUP5 DUP10 ADD MLOAD DUP3 SSTORE PUSH1 0x1 DUP3 ADD SWAP2 POP PUSH1 0x20 DUP6 ADD SWAP5 POP PUSH1 0x20 DUP2 ADD SWAP1 POP PUSH2 0xCAF JUMP JUMPDEST DUP7 DUP4 LT ISZERO PUSH2 0xCF1 JUMPI DUP5 DUP10 ADD MLOAD PUSH2 0xCED PUSH1 0x1F DUP10 AND DUP3 PUSH2 0xC00 JUMP JUMPDEST DUP4 SSTORE POP JUMPDEST PUSH1 0x1 PUSH1 0x2 DUP9 MUL ADD DUP9 SSTORE POP POP POP JUMPDEST POP POP POP POP POP POP JUMP INVALID LOG2 PUSH5 0x6970667358 0x22 SLT KECCAK256 0xFC CALLVALUE AND PUSH14 0x17219F50BAF249712F839C8DF87D COINBASE CREATE2 SMOD PUSH2 0x1E05 SWAP11 EXP RETF BYTE CALLCODE 0xDE 0xA8 INVALID PUSH5 0x736F6C6343 STOP ADDMOD 0x1E STOP CALLER "
				},
				"gasEstimates": {
					"creation": {
						"codeDepositCost": "677600",
						"executionCost": "infinite",
						"totalCost": "infinite"
					},
					"external": {
						"AddBook(uint256,uint256,string,string)": "infinite",
						"AddMyAllBooks(uint256,uint256,string,string)": "infinite",
						"books(uint256)": "infinite",
						"myAllBooks(address,uint256)": "infinite",
						"myBook1()": "infinite",
						"names(uint256)": "infinite"
					}
				},
				"methodIdentifiers": {
					"AddBook(uint256,uint256,string,string)": "963b0cb8",
					"AddMyAllBooks(uint256,uint256,string,string)": "34556801",
					"books(uint256)": "68744046",
					"myAllBooks(address,uint256)": "248752df",
					"myBook1()": "9d748d16",
					"names(uint256)": "4622ab03"
				}
			},
			"storageLayout": {
				"storage": [
					{
						"astId": 5,
						"contract": "contracts/6_Mapping.sol:Map",
						"label": "names",
						"offset": 0,
						"slot": "0",
						"type": "t_mapping(t_uint256,t_string_storage)"
					},
					{
						"astId": 36,
						"contract": "contracts/6_Mapping.sol:Map",
						"label": "myBook1",
						"offset": 0,
						"slot": "1",
						"type": "t_struct(Book)28_storage"
					},
					{
						"astId": 41,
						"contract": "contracts/6_Mapping.sol:Map",
						"label": "books",
						"offset": 0,
						"slot": "4",
						"type": "t_mapping(t_uint256,t_struct(Book)28_storage)"
					},
					{
						"astId": 70,
						"contract": "contracts/6_Mapping.sol:Map",
						"label": "myAllBooks",
						"offset": 0,
						"slot": "5",
						"type": "t_mapping(t_address,t_mapping(t_uint256,t_struct(Book)28_storage))"
					}
				],
				"types": {
					"t_address": {
						"encoding": "inplace",
						"label": "address",
						"numberOfBytes": "20"
					},
					"t_mapping(t_address,t_mapping(t_uint256,t_struct(Book)28_storage))": {
						"encoding": "mapping",
						"key": "t_address",
						"label": "mapping(address => mapping(uint256 => struct Map.Book))",
						"numberOfBytes": "32",
						"value": "t_mapping(t_uint256,t_struct(Book)28_storage)"
					},
					"t_mapping(t_uint256,t_string_storage)": {
						"encoding": "mapping",
						"key": "t_uint256",
						"label": "mapping(uint256 => string)",
						"numberOfBytes": "32",
						"value": "t_string_storage"
					},
					"t_mapping(t_uint256,t_struct(Book)28_storage)": {
						"encoding": "mapping",
						"key": "t_uint256",
						"label": "mapping(uint256 => struct Map.Book)",
						"numberOfBytes": "32",
						"value": "t_struct(Book)28_storage"
					},
					"t_string_storage": {
						"encoding": "bytes",
						"label": "string",
						"numberOfBytes": "32"
					},
					"t_struct(Book)28_storage": {
						"encoding": "inplace",
						"label": "struct Map.Book",
						"members": [
							{
								"astId": 23,
								"contract": "contracts/6_Mapping.sol:Map",
								"label": "page",
								"offset": 0,
								"slot": "0",
								"type": "t_uint256"
							},
							{
								"astId": 25,
								"contract": "contracts/6_Mapping.sol:Map",
								"label": "title",
								"offset": 0,
								"slot": "1",
								"type": "t_string_storage"
							},
							{
								"astId": 27,
								"contract": "contracts/6_Mapping.sol:Map",
								"label": "author",
								"offset": 0,
								"slot": "2",
								"type": "t_string_storage"
							}
						],
						"numberOfBytes": "96"
					},
					"t_uint256": {
						"encoding": "inplace",
						"label": "uint256",
						"numberOfBytes": "32"
					}
				}
			},
			"userdoc": {
				"kind": "user",
				"methods": {},
				"version": 1
			}
		}
	}
}