{
	"contracts/MyContract.sol": {
		"MyContract": {
			"abi": [
				{
					"inputs": [
						{
							"internalType": "string",
							"name": "value",
							"type": "string"
						}
					],
					"name": "addString",
					"outputs": [],
					"stateMutability": "nonpayable",
					"type": "function"
				},
				{
					"inputs": [],
					"name": "arrayCount",
					"outputs": [
						{
							"internalType": "uint256",
							"name": "",
							"type": "uint256"
						}
					],
					"stateMutability": "view",
					"type": "function"
				},
				{
					"inputs": [],
					"name": "counter",
					"outputs": [
						{
							"internalType": "uint256",
							"name": "",
							"type": "uint256"
						}
					],
					"stateMutability": "view",
					"type": "function"
				},
				{
					"inputs": [],
					"name": "getValue",
					"outputs": [
						{
							"internalType": "uint256",
							"name": "",
							"type": "uint256"
						}
					],
					"stateMutability": "pure",
					"type": "function"
				},
				{
					"inputs": [
						{
							"internalType": "uint256",
							"name": "",
							"type": "uint256"
						},
						{
							"internalType": "uint256",
							"name": "",
							"type": "uint256"
						}
					],
					"name": "my2DArray",
					"outputs": [
						{
							"internalType": "uint256",
							"name": "",
							"type": "uint256"
						}
					],
					"stateMutability": "view",
					"type": "function"
				},
				{
					"inputs": [],
					"name": "myAddress",
					"outputs": [
						{
							"internalType": "address",
							"name": "",
							"type": "address"
						}
					],
					"stateMutability": "view",
					"type": "function"
				},
				{
					"inputs": [
						{
							"internalType": "uint256",
							"name": "",
							"type": "uint256"
						}
					],
					"name": "myArray",
					"outputs": [
						{
							"internalType": "string",
							"name": "",
							"type": "string"
						}
					],
					"stateMutability": "view",
					"type": "function"
				},
				{
					"inputs": [],
					"name": "myBytes32",
					"outputs": [
						{
							"internalType": "bytes32",
							"name": "",
							"type": "bytes32"
						}
					],
					"stateMutability": "view",
					"type": "function"
				},
				{
					"inputs": [],
					"name": "myStruck",
					"outputs": [
						{
							"internalType": "uint256",
							"name": "myUint",
							"type": "uint256"
						},
						{
							"internalType": "string",
							"name": "myString",
							"type": "string"
						}
					],
					"stateMutability": "view",
					"type": "function"
				},
				{
					"inputs": [],
					"name": "signerInteger",
					"outputs": [
						{
							"internalType": "int256",
							"name": "",
							"type": "int256"
						}
					],
					"stateMutability": "view",
					"type": "function"
				},
				{
					"inputs": [
						{
							"internalType": "uint256",
							"name": "",
							"type": "uint256"
						}
					],
					"name": "stringArray",
					"outputs": [
						{
							"internalType": "string",
							"name": "",
							"type": "string"
						}
					],
					"stateMutability": "view",
					"type": "function"
				},
				{
					"inputs": [],
					"name": "stringExample",
					"outputs": [
						{
							"internalType": "string",
							"name": "",
							"type": "string"
						}
					],
					"stateMutability": "view",
					"type": "function"
				},
				{
					"inputs": [
						{
							"internalType": "uint256",
							"name": "",
							"type": "uint256"
						}
					],
					"name": "uintArray",
					"outputs": [
						{
							"internalType": "uint256",
							"name": "",
							"type": "uint256"
						}
					],
					"stateMutability": "view",
					"type": "function"
				},
				{
					"inputs": [],
					"name": "uintOf8",
					"outputs": [
						{
							"internalType": "uint8",
							"name": "",
							"type": "uint8"
						}
					],
					"stateMutability": "view",
					"type": "function"
				}
			],
			"devdoc": {
				"kind": "dev",
				"methods": {},
				"version": 1
			},
			"evm": {
				"assembly": "    /* \"contracts/MyContract.sol\":56:1958  contract MyContract {... */\n  mstore(0x40, 0x80)\n    /* \"contracts/MyContract.sol\":126:127  7 */\n  0x07\n    /* \"contracts/MyContract.sol\":104:127  uint public counter = 7 */\n  0x00\n  sstore\n    /* \"contracts/MyContract.sol\":323:325  10 */\n  0x0a\n    /* \"contracts/MyContract.sol\":300:325  uint8 public uintOf8 = 10 */\n  0x01\n  exp(0x0100, 0x00)\n  dup2\n  sload\n  dup2\n  0xff\n  mul\n  not\n  and\n  swap1\n  dup4\n  0xff\n  and\n  mul\n  or\n  swap1\n  sstore\n  pop\n    /* \"contracts/MyContract.sol\":486:488  -1 */\n  0xffffffffffffffffffffffffffffffffffffffffffffffffffffffffffffffff\n    /* \"contracts/MyContract.sol\":459:488  int public signerInteger = -1 */\n  0x02\n  sstore\n    /* \"contracts/MyContract.sol\":509:556  string public stringExample = \"My first string\" */\n  mload(0x40)\n  dup1\n  0x40\n  add\n  0x40\n  mstore\n  dup1\n  0x0f\n  dup2\n  mstore\n  0x20\n  add\n  0x4d7920666972737420737472696e670000000000000000000000000000000000\n  dup2\n  mstore\n  pop\n  0x03\n  swap1\n  dup2\n  tag_1\n  swap2\n  swap1\n  tag_2\n  jump\t// in\ntag_1:\n  pop\n    /* \"contracts/MyContract.sol\":562:604  bytes32 public myBytes32 = \"Hello, World!\" */\n  sstore(0x04, 0x48656c6c6f2c20576f726c642100000000000000000000000000000000000000)\n    /* \"contracts/MyContract.sol\":694:736  0x0fC5025C764cE34df352757e82f7B5c4Df39A836 */\n  0x0fc5025c764ce34df352757e82f7b5c4df39a836\n    /* \"contracts/MyContract.sol\":667:736  address public myAddress = 0x0fC5025C764cE34df352757e82f7B5c4Df39A836 */\n  0x05\n  exp(0x0100, 0x00)\n  dup2\n  sload\n  dup2\n  0xffffffffffffffffffffffffffffffffffffffff\n  mul\n  not\n  and\n  swap1\n  dup4\n  0xffffffffffffffffffffffffffffffffffffffff\n  and\n  mul\n  or\n  swap1\n  sstore\n  pop\n    /* \"contracts/MyContract.sol\":1011:1042  Structure(1, \"Hello, Struct!!\") */\n  mload(0x40)\n  dup1\n  0x40\n  add\n  0x40\n  mstore\n  dup1\n    /* \"contracts/MyContract.sol\":1021:1022  1 */\n  0x01\n    /* \"contracts/MyContract.sol\":1011:1042  Structure(1, \"Hello, Struct!!\") */\n  dup2\n  mstore\n  0x20\n  add\n  mload(0x40)\n  dup1\n  0x40\n  add\n  0x40\n  mstore\n  dup1\n  0x0f\n  dup2\n  mstore\n  0x20\n  add\n  0x48656c6c6f2c2053747275637421210000000000000000000000000000000000\n  dup2\n  mstore\n  pop\n  dup2\n  mstore\n  pop\n    /* \"contracts/MyContract.sol\":983:1042  Structure public myStruck = Structure(1, \"Hello, Struct!!\") */\n  0x06\n  0x00\n  dup3\n  add\n  mload\n  dup2\n  0x00\n  add\n  sstore\n  0x20\n  dup3\n  add\n  mload\n  dup2\n  0x01\n  add\n  swap1\n  dup2\n  tag_3\n  swap2\n  swap1\n  tag_2\n  jump\t// in\ntag_3:\n  pop\n  pop\n  pop\n    /* \"contracts/MyContract.sol\":1254:1290  uint[] public uintArray = [1, 2, 41] */\n  mload(0x40)\n  dup1\n  0x60\n  add\n  0x40\n  mstore\n  dup1\n    /* \"contracts/MyContract.sol\":1281:1282  1 */\n  0x01\n    /* \"contracts/MyContract.sol\":1254:1290  uint[] public uintArray = [1, 2, 41] */\n  0xff\n  and\n  dup2\n  mstore\n  0x20\n  add\n    /* \"contracts/MyContract.sol\":1284:1285  2 */\n  0x02\n    /* \"contracts/MyContract.sol\":1254:1290  uint[] public uintArray = [1, 2, 41] */\n  0xff\n  and\n  dup2\n  mstore\n  0x20\n  add\n    /* \"contracts/MyContract.sol\":1287:1289  41 */\n  0x29\n    /* \"contracts/MyContract.sol\":1254:1290  uint[] public uintArray = [1, 2, 41] */\n  0xff\n  and\n  dup2\n  mstore\n  pop\n  0x08\n  swap1\n  0x03\n  tag_4\n  swap3\n  swap2\n  swap1\n  tag_5\n  jump\t// in\ntag_4:\n  pop\n    /* \"contracts/MyContract.sol\":1297:1344  string[] public stringArray = [\"Rajan\", \"Suan\"] */\n  mload(0x40)\n  dup1\n  0x40\n  add\n  0x40\n  mstore\n  dup1\n  mload(0x40)\n  dup1\n  0x40\n  add\n  0x40\n  mstore\n  dup1\n  0x05\n  dup2\n  mstore\n  0x20\n  add\n  0x52616a616e000000000000000000000000000000000000000000000000000000\n  dup2\n  mstore\n  pop\n  dup2\n  mstore\n  0x20\n  add\n  mload(0x40)\n  dup1\n  0x40\n  add\n  0x40\n  mstore\n  dup1\n  0x04\n  dup2\n  mstore\n  0x20\n  add\n  0x5375616e00000000000000000000000000000000000000000000000000000000\n  dup2\n  mstore\n  pop\n  dup2\n  mstore\n  pop\n  0x09\n  swap1\n  0x02\n  tag_6\n  swap3\n  swap2\n  swap1\n  tag_7\n  jump\t// in\ntag_6:\n  pop\n    /* \"contracts/MyContract.sol\":1907:1955  uint256[][] public my2DArray = [[1,2,3],[5,6,7]] */\n  mload(0x40)\n  dup1\n  0x40\n  add\n  0x40\n  mstore\n  dup1\n  mload(0x40)\n  dup1\n  0x60\n  add\n  0x40\n  mstore\n  dup1\n    /* \"contracts/MyContract.sol\":1940:1941  1 */\n  0x01\n    /* \"contracts/MyContract.sol\":1907:1955  uint256[][] public my2DArray = [[1,2,3],[5,6,7]] */\n  0xff\n  and\n  dup2\n  mstore\n  0x20\n  add\n    /* \"contracts/MyContract.sol\":1942:1943  2 */\n  0x02\n    /* \"contracts/MyContract.sol\":1907:1955  uint256[][] public my2DArray = [[1,2,3],[5,6,7]] */\n  0xff\n  and\n  dup2\n  mstore\n  0x20\n  add\n    /* \"contracts/MyContract.sol\":1944:1945  3 */\n  0x03\n    /* \"contracts/MyContract.sol\":1907:1955  uint256[][] public my2DArray = [[1,2,3],[5,6,7]] */\n  0xff\n  and\n  dup2\n  mstore\n  pop\n  dup2\n  mstore\n  0x20\n  add\n  mload(0x40)\n  dup1\n  0x60\n  add\n  0x40\n  mstore\n  dup1\n    /* \"contracts/MyContract.sol\":1948:1949  5 */\n  0x05\n    /* \"contracts/MyContract.sol\":1907:1955  uint256[][] public my2DArray = [[1,2,3],[5,6,7]] */\n  0xff\n  and\n  dup2\n  mstore\n  0x20\n  add\n    /* \"contracts/MyContract.sol\":1950:1951  6 */\n  0x06\n    /* \"contracts/MyContract.sol\":1907:1955  uint256[][] public my2DArray = [[1,2,3],[5,6,7]] */\n  0xff\n  and\n  dup2\n  mstore\n  0x20\n  add\n    /* \"contracts/MyContract.sol\":1952:1953  7 */\n  0x07\n    /* \"contracts/MyContract.sol\":1907:1955  uint256[][] public my2DArray = [[1,2,3],[5,6,7]] */\n  0xff\n  and\n  dup2\n  mstore\n  pop\n  dup2\n  mstore\n  pop\n  0x0b\n  swap1\n  0x02\n  tag_8\n  swap3\n  swap2\n  swap1\n  tag_9\n  jump\t// in\ntag_8:\n  pop\n    /* \"contracts/MyContract.sol\":56:1958  contract MyContract {... */\n  callvalue\n  dup1\n  iszero\n  tag_10\n  jumpi\n  revert(0x00, 0x00)\ntag_10:\n  pop\n  jump(tag_11)\ntag_5:\n  dup3\n  dup1\n  sload\n  dup3\n  dup3\n  sstore\n  swap1\n  0x00\n  mstore\n  keccak256(0x00, 0x20)\n  swap1\n  dup2\n  add\n  swap3\n  dup3\n  iszero\n  tag_12\n  jumpi\n  swap2\n  0x20\n  mul\n  dup3\n  add\ntag_13:\n  dup3\n  dup2\n  gt\n  iszero\n  tag_14\n  jumpi\n  dup3\n  mload\n  dup3\n  swap1\n  0xff\n  and\n  swap1\n  sstore\n  swap2\n  0x20\n  add\n  swap2\n  swap1\n  0x01\n  add\n  swap1\n  jump(tag_13)\ntag_14:\ntag_12:\n  pop\n  swap1\n  pop\n  tag_15\n  swap2\n  swap1\n  tag_16\n  jump\t// in\ntag_15:\n  pop\n  swap1\n  jump\t// out\ntag_7:\n  dup3\n  dup1\n  sload\n  dup3\n  dup3\n  sstore\n  swap1\n  0x00\n  mstore\n  keccak256(0x00, 0x20)\n  swap1\n  dup2\n  add\n  swap3\n  dup3\n  iszero\n  tag_17\n  jumpi\n  swap2\n  0x20\n  mul\n  dup3\n  add\ntag_18:\n  dup3\n  dup2\n  gt\n  iszero\n  tag_19\n  jumpi\n  dup3\n  mload\n  dup3\n  swap1\n  dup2\n  tag_20\n  swap2\n  swap1\n  tag_2\n  jump\t// in\ntag_20:\n  pop\n  swap2\n  0x20\n  add\n  swap2\n  swap1\n  0x01\n  add\n  swap1\n  jump(tag_18)\ntag_19:\ntag_17:\n  pop\n  swap1\n  pop\n  tag_21\n  swap2\n  swap1\n  tag_22\n  jump\t// in\ntag_21:\n  pop\n  swap1\n  jump\t// out\ntag_9:\n  dup3\n  dup1\n  sload\n  dup3\n  dup3\n  sstore\n  swap1\n  0x00\n  mstore\n  keccak256(0x00, 0x20)\n  swap1\n  dup2\n  add\n  swap3\n  dup3\n  iszero\n  tag_23\n  jumpi\n  swap2\n  0x20\n  mul\n  dup3\n  add\ntag_24:\n  dup3\n  dup2\n  gt\n  iszero\n  tag_25\n  jumpi\n  dup3\n  mload\n  dup3\n  swap1\n  0x03\n  tag_26\n  swap3\n  swap2\n  swap1\n  tag_5\n  jump\t// in\ntag_26:\n  pop\n  swap2\n  0x20\n  add\n  swap2\n  swap1\n  0x01\n  add\n  swap1\n  jump(tag_24)\ntag_25:\ntag_23:\n  pop\n  swap1\n  pop\n  tag_27\n  swap2\n  swap1\n  tag_28\n  jump\t// in\ntag_27:\n  pop\n  swap1\n  jump\t// out\ntag_16:\ntag_29:\n  dup1\n  dup3\n  gt\n  iszero\n  tag_30\n  jumpi\n  0x00\n  dup2\n  0x00\n  swap1\n  sstore\n  pop\n  0x01\n  add\n  jump(tag_29)\ntag_30:\n  pop\n  swap1\n  jump\t// out\ntag_22:\ntag_31:\n  dup1\n  dup3\n  gt\n  iszero\n  tag_32\n  jumpi\n  0x00\n  dup2\n  dup2\n  tag_33\n  swap2\n  swap1\n  tag_34\n  jump\t// in\ntag_33:\n  pop\n  0x01\n  add\n  jump(tag_31)\ntag_32:\n  pop\n  swap1\n  jump\t// out\ntag_28:\ntag_35:\n  dup1\n  dup3\n  gt\n  iszero\n  tag_36\n  jumpi\n  0x00\n  dup2\n  dup2\n  tag_37\n  swap2\n  swap1\n  tag_38\n  jump\t// in\ntag_37:\n  pop\n  0x01\n  add\n  jump(tag_35)\ntag_36:\n  pop\n  swap1\n  jump\t// out\ntag_34:\n  pop\n  dup1\n  sload\n  tag_39\n  swap1\n  tag_40\n  jump\t// in\ntag_39:\n  0x00\n  dup3\n  sstore\n  dup1\n  0x1f\n  lt\n  tag_42\n  jumpi\n  pop\n  jump(tag_41)\ntag_42:\n  0x1f\n  add\n  0x20\n  swap1\n  div\n  swap1\n  0x00\n  mstore\n  keccak256(0x00, 0x20)\n  swap1\n  dup2\n  add\n  swap1\n  tag_43\n  swap2\n  swap1\n  tag_16\n  jump\t// in\ntag_43:\ntag_41:\n  pop\n  jump\t// out\ntag_38:\n  pop\n  dup1\n  sload\n  0x00\n  dup3\n  sstore\n  swap1\n  0x00\n  mstore\n  keccak256(0x00, 0x20)\n  swap1\n  dup2\n  add\n  swap1\n  tag_45\n  swap2\n  swap1\n  tag_16\n  jump\t// in\ntag_45:\n  pop\n  jump\t// out\n    /* \"#utility.yul\":7:106   */\ntag_46:\n    /* \"#utility.yul\":59:65   */\n  0x00\n    /* \"#utility.yul\":93:98   */\n  dup2\n    /* \"#utility.yul\":87:99   */\n  mload\n    /* \"#utility.yul\":77:99   */\n  swap1\n  pop\n    /* \"#utility.yul\":7:106   */\n  swap2\n  swap1\n  pop\n  jump\t// out\n    /* \"#utility.yul\":112:292   */\ntag_47:\n    /* \"#utility.yul\":160:237   */\n  0x4e487b7100000000000000000000000000000000000000000000000000000000\n    /* \"#utility.yul\":157:158   */\n  0x00\n    /* \"#utility.yul\":150:238   */\n  mstore\n    /* \"#utility.yul\":257:261   */\n  0x41\n    /* \"#utility.yul\":254:255   */\n  0x04\n    /* \"#utility.yul\":247:262   */\n  mstore\n    /* \"#utility.yul\":281:285   */\n  0x24\n    /* \"#utility.yul\":278:279   */\n  0x00\n    /* \"#utility.yul\":271:286   */\n  revert\n    /* \"#utility.yul\":298:478   */\ntag_48:\n    /* \"#utility.yul\":346:423   */\n  0x4e487b7100000000000000000000000000000000000000000000000000000000\n    /* \"#utility.yul\":343:344   */\n  0x00\n    /* \"#utility.yul\":336:424   */\n  mstore\n    /* \"#utility.yul\":443:447   */\n  0x22\n    /* \"#utility.yul\":440:441   */\n  0x04\n    /* \"#utility.yul\":433:448   */\n  mstore\n    /* \"#utility.yul\":467:471   */\n  0x24\n    /* \"#utility.yul\":464:465   */\n  0x00\n    /* \"#utility.yul\":457:472   */\n  revert\n    /* \"#utility.yul\":484:804   */\ntag_40:\n    /* \"#utility.yul\":528:534   */\n  0x00\n    /* \"#utility.yul\":565:566   */\n  0x02\n    /* \"#utility.yul\":559:563   */\n  dup3\n    /* \"#utility.yul\":555:567   */\n  div\n    /* \"#utility.yul\":545:567   */\n  swap1\n  pop\n    /* \"#utility.yul\":612:613   */\n  0x01\n    /* \"#utility.yul\":606:610   */\n  dup3\n    /* \"#utility.yul\":602:614   */\n  and\n    /* \"#utility.yul\":633:651   */\n  dup1\n    /* \"#utility.yul\":623:704   */\n  tag_70\n  jumpi\n    /* \"#utility.yul\":689:693   */\n  0x7f\n    /* \"#utility.yul\":681:687   */\n  dup3\n    /* \"#utility.yul\":677:694   */\n  and\n    /* \"#utility.yul\":667:694   */\n  swap2\n  pop\n    /* \"#utility.yul\":623:704   */\ntag_70:\n    /* \"#utility.yul\":751:753   */\n  0x20\n    /* \"#utility.yul\":743:749   */\n  dup3\n    /* \"#utility.yul\":740:754   */\n  lt\n    /* \"#utility.yul\":720:738   */\n  dup2\n    /* \"#utility.yul\":717:755   */\n  sub\n    /* \"#utility.yul\":714:798   */\n  tag_71\n  jumpi\n    /* \"#utility.yul\":770:788   */\n  tag_72\n  tag_48\n  jump\t// in\ntag_72:\n    /* \"#utility.yul\":714:798   */\ntag_71:\n    /* \"#utility.yul\":535:804   */\n  pop\n    /* \"#utility.yul\":484:804   */\n  swap2\n  swap1\n  pop\n  jump\t// out\n    /* \"#utility.yul\":810:951   */\ntag_49:\n    /* \"#utility.yul\":859:863   */\n  0x00\n    /* \"#utility.yul\":882:885   */\n  dup2\n    /* \"#utility.yul\":874:885   */\n  swap1\n  pop\n    /* \"#utility.yul\":905:908   */\n  dup2\n    /* \"#utility.yul\":902:903   */\n  0x00\n    /* \"#utility.yul\":895:909   */\n  mstore\n    /* \"#utility.yul\":939:943   */\n  0x20\n    /* \"#utility.yul\":936:937   */\n  0x00\n    /* \"#utility.yul\":926:944   */\n  keccak256\n    /* \"#utility.yul\":918:944   */\n  swap1\n  pop\n    /* \"#utility.yul\":810:951   */\n  swap2\n  swap1\n  pop\n  jump\t// out\n    /* \"#utility.yul\":957:1050   */\ntag_50:\n    /* \"#utility.yul\":994:1000   */\n  0x00\n    /* \"#utility.yul\":1041:1043   */\n  0x20\n    /* \"#utility.yul\":1036:1038   */\n  0x1f\n    /* \"#utility.yul\":1029:1034   */\n  dup4\n    /* \"#utility.yul\":1025:1039   */\n  add\n    /* \"#utility.yul\":1021:1044   */\n  div\n    /* \"#utility.yul\":1011:1044   */\n  swap1\n  pop\n    /* \"#utility.yul\":957:1050   */\n  swap2\n  swap1\n  pop\n  jump\t// out\n    /* \"#utility.yul\":1056:1163   */\ntag_51:\n    /* \"#utility.yul\":1100:1108   */\n  0x00\n    /* \"#utility.yul\":1150:1155   */\n  dup3\n    /* \"#utility.yul\":1144:1148   */\n  dup3\n    /* \"#utility.yul\":1140:1156   */\n  shl\n    /* \"#utility.yul\":1119:1156   */\n  swap1\n  pop\n    /* \"#utility.yul\":1056:1163   */\n  swap3\n  swap2\n  pop\n  pop\n  jump\t// out\n    /* \"#utility.yul\":1169:1562   */\ntag_52:\n    /* \"#utility.yul\":1238:1244   */\n  0x00\n    /* \"#utility.yul\":1288:1289   */\n  0x08\n    /* \"#utility.yul\":1276:1286   */\n  dup4\n    /* \"#utility.yul\":1272:1290   */\n  mul\n    /* \"#utility.yul\":1311:1408   */\n  tag_77\n    /* \"#utility.yul\":1341:1407   */\n  0xffffffffffffffffffffffffffffffffffffffffffffffffffffffffffffffff\n    /* \"#utility.yul\":1330:1339   */\n  dup3\n    /* \"#utility.yul\":1311:1408   */\n  tag_51\n  jump\t// in\ntag_77:\n    /* \"#utility.yul\":1429:1468   */\n  tag_78\n    /* \"#utility.yul\":1459:1467   */\n  dup7\n    /* \"#utility.yul\":1448:1457   */\n  dup4\n    /* \"#utility.yul\":1429:1468   */\n  tag_51\n  jump\t// in\ntag_78:\n    /* \"#utility.yul\":1417:1468   */\n  swap6\n  pop\n    /* \"#utility.yul\":1501:1505   */\n  dup1\n    /* \"#utility.yul\":1497:1506   */\n  not\n    /* \"#utility.yul\":1490:1495   */\n  dup5\n    /* \"#utility.yul\":1486:1507   */\n  and\n    /* \"#utility.yul\":1477:1507   */\n  swap4\n  pop\n    /* \"#utility.yul\":1550:1554   */\n  dup1\n    /* \"#utility.yul\":1540:1548   */\n  dup7\n    /* \"#utility.yul\":1536:1555   */\n  and\n    /* \"#utility.yul\":1529:1534   */\n  dup5\n    /* \"#utility.yul\":1526:1556   */\n  or\n    /* \"#utility.yul\":1516:1556   */\n  swap3\n  pop\n    /* \"#utility.yul\":1245:1562   */\n  pop\n  pop\n    /* \"#utility.yul\":1169:1562   */\n  swap4\n  swap3\n  pop\n  pop\n  pop\n  jump\t// out\n    /* \"#utility.yul\":1568:1645   */\ntag_53:\n    /* \"#utility.yul\":1605:1612   */\n  0x00\n    /* \"#utility.yul\":1634:1639   */\n  dup2\n    /* \"#utility.yul\":1623:1639   */\n  swap1\n  pop\n    /* \"#utility.yul\":1568:1645   */\n  swap2\n  swap1\n  pop\n  jump\t// out\n    /* \"#utility.yul\":1651:1711   */\ntag_54:\n    /* \"#utility.yul\":1679:1682   */\n  0x00\n    /* \"#utility.yul\":1700:1705   */\n  dup2\n    /* \"#utility.yul\":1693:1705   */\n  swap1\n  pop\n    /* \"#utility.yul\":1651:1711   */\n  swap2\n  swap1\n  pop\n  jump\t// out\n    /* \"#utility.yul\":1717:1859   */\ntag_55:\n    /* \"#utility.yul\":1767:1776   */\n  0x00\n    /* \"#utility.yul\":1800:1853   */\n  tag_82\n    /* \"#utility.yul\":1818:1852   */\n  tag_83\n    /* \"#utility.yul\":1827:1851   */\n  tag_84\n    /* \"#utility.yul\":1845:1850   */\n  dup5\n    /* \"#utility.yul\":1827:1851   */\n  tag_53\n  jump\t// in\ntag_84:\n    /* \"#utility.yul\":1818:1852   */\n  tag_54\n  jump\t// in\ntag_83:\n    /* \"#utility.yul\":1800:1853   */\n  tag_53\n  jump\t// in\ntag_82:\n    /* \"#utility.yul\":1787:1853   */\n  swap1\n  pop\n    /* \"#utility.yul\":1717:1859   */\n  swap2\n  swap1\n  pop\n  jump\t// out\n    /* \"#utility.yul\":1865:1940   */\ntag_56:\n    /* \"#utility.yul\":1908:1911   */\n  0x00\n    /* \"#utility.yul\":1929:1934   */\n  dup2\n    /* \"#utility.yul\":1922:1934   */\n  swap1\n  pop\n    /* \"#utility.yul\":1865:1940   */\n  swap2\n  swap1\n  pop\n  jump\t// out\n    /* \"#utility.yul\":1946:2215   */\ntag_57:\n    /* \"#utility.yul\":2056:2095   */\n  tag_87\n    /* \"#utility.yul\":2087:2094   */\n  dup4\n    /* \"#utility.yul\":2056:2095   */\n  tag_55\n  jump\t// in\ntag_87:\n    /* \"#utility.yul\":2117:2208   */\n  tag_88\n    /* \"#utility.yul\":2166:2207   */\n  tag_89\n    /* \"#utility.yul\":2190:2206   */\n  dup3\n    /* \"#utility.yul\":2166:2207   */\n  tag_56\n  jump\t// in\ntag_89:\n    /* \"#utility.yul\":2158:2164   */\n  dup5\n    /* \"#utility.yul\":2151:2155   */\n  dup5\n    /* \"#utility.yul\":2145:2156   */\n  sload\n    /* \"#utility.yul\":2117:2208   */\n  tag_52\n  jump\t// in\ntag_88:\n    /* \"#utility.yul\":2111:2115   */\n  dup3\n    /* \"#utility.yul\":2104:2209   */\n  sstore\n    /* \"#utility.yul\":2022:2215   */\n  pop\n    /* \"#utility.yul\":1946:2215   */\n  pop\n  pop\n  pop\n  jump\t// out\n    /* \"#utility.yul\":2221:2294   */\ntag_58:\n    /* \"#utility.yul\":2266:2269   */\n  0x00\n    /* \"#utility.yul\":2287:2288   */\n  0x00\n    /* \"#utility.yul\":2280:2288   */\n  swap1\n  pop\n    /* \"#utility.yul\":2221:2294   */\n  swap1\n  jump\t// out\n    /* \"#utility.yul\":2300:2489   */\ntag_59:\n    /* \"#utility.yul\":2377:2409   */\n  tag_92\n  tag_58\n  jump\t// in\ntag_92:\n    /* \"#utility.yul\":2418:2483   */\n  tag_93\n    /* \"#utility.yul\":2476:2482   */\n  dup2\n    /* \"#utility.yul\":2468:2474   */\n  dup5\n    /* \"#utility.yul\":2462:2466   */\n  dup5\n    /* \"#utility.yul\":2418:2483   */\n  tag_57\n  jump\t// in\ntag_93:\n    /* \"#utility.yul\":2353:2489   */\n  pop\n    /* \"#utility.yul\":2300:2489   */\n  pop\n  pop\n  jump\t// out\n    /* \"#utility.yul\":2495:2681   */\ntag_60:\n    /* \"#utility.yul\":2555:2675   */\ntag_95:\n    /* \"#utility.yul\":2572:2575   */\n  dup2\n    /* \"#utility.yul\":2565:2570   */\n  dup2\n    /* \"#utility.yul\":2562:2576   */\n  lt\n    /* \"#utility.yul\":2555:2675   */\n  iszero\n  tag_97\n  jumpi\n    /* \"#utility.yul\":2626:2665   */\n  tag_98\n    /* \"#utility.yul\":2663:2664   */\n  0x00\n    /* \"#utility.yul\":2656:2661   */\n  dup3\n    /* \"#utility.yul\":2626:2665   */\n  tag_59\n  jump\t// in\ntag_98:\n    /* \"#utility.yul\":2599:2600   */\n  0x01\n    /* \"#utility.yul\":2592:2597   */\n  dup2\n    /* \"#utility.yul\":2588:2601   */\n  add\n    /* \"#utility.yul\":2579:2601   */\n  swap1\n  pop\n    /* \"#utility.yul\":2555:2675   */\n  jump(tag_95)\ntag_97:\n    /* \"#utility.yul\":2495:2681   */\n  pop\n  pop\n  jump\t// out\n    /* \"#utility.yul\":2687:3230   */\ntag_61:\n    /* \"#utility.yul\":2788:2790   */\n  0x1f\n    /* \"#utility.yul\":2783:2786   */\n  dup3\n    /* \"#utility.yul\":2780:2791   */\n  gt\n    /* \"#utility.yul\":2777:3223   */\n  iszero\n  tag_100\n  jumpi\n    /* \"#utility.yul\":2822:2860   */\n  tag_101\n    /* \"#utility.yul\":2854:2859   */\n  dup2\n    /* \"#utility.yul\":2822:2860   */\n  tag_49\n  jump\t// in\ntag_101:\n    /* \"#utility.yul\":2906:2935   */\n  tag_102\n    /* \"#utility.yul\":2924:2934   */\n  dup5\n    /* \"#utility.yul\":2906:2935   */\n  tag_50\n  jump\t// in\ntag_102:\n    /* \"#utility.yul\":2896:2904   */\n  dup2\n    /* \"#utility.yul\":2892:2936   */\n  add\n    /* \"#utility.yul\":3089:3091   */\n  0x20\n    /* \"#utility.yul\":3077:3087   */\n  dup6\n    /* \"#utility.yul\":3074:3092   */\n  lt\n    /* \"#utility.yul\":3071:3120   */\n  iszero\n  tag_103\n  jumpi\n    /* \"#utility.yul\":3110:3118   */\n  dup2\n    /* \"#utility.yul\":3095:3118   */\n  swap1\n  pop\n    /* \"#utility.yul\":3071:3120   */\ntag_103:\n    /* \"#utility.yul\":3133:3213   */\n  tag_104\n    /* \"#utility.yul\":3189:3211   */\n  tag_105\n    /* \"#utility.yul\":3207:3210   */\n  dup6\n    /* \"#utility.yul\":3189:3211   */\n  tag_50\n  jump\t// in\ntag_105:\n    /* \"#utility.yul\":3179:3187   */\n  dup4\n    /* \"#utility.yul\":3175:3212   */\n  add\n    /* \"#utility.yul\":3162:3173   */\n  dup3\n    /* \"#utility.yul\":3133:3213   */\n  tag_60\n  jump\t// in\ntag_104:\n    /* \"#utility.yul\":2792:3223   */\n  pop\n  pop\n    /* \"#utility.yul\":2777:3223   */\ntag_100:\n    /* \"#utility.yul\":2687:3230   */\n  pop\n  pop\n  pop\n  jump\t// out\n    /* \"#utility.yul\":3236:3353   */\ntag_62:\n    /* \"#utility.yul\":3290:3298   */\n  0x00\n    /* \"#utility.yul\":3340:3345   */\n  dup3\n    /* \"#utility.yul\":3334:3338   */\n  dup3\n    /* \"#utility.yul\":3330:3346   */\n  shr\n    /* \"#utility.yul\":3309:3346   */\n  swap1\n  pop\n    /* \"#utility.yul\":3236:3353   */\n  swap3\n  swap2\n  pop\n  pop\n  jump\t// out\n    /* \"#utility.yul\":3359:3528   */\ntag_63:\n    /* \"#utility.yul\":3403:3409   */\n  0x00\n    /* \"#utility.yul\":3436:3487   */\n  tag_108\n    /* \"#utility.yul\":3484:3485   */\n  0x00\n    /* \"#utility.yul\":3480:3486   */\n  not\n    /* \"#utility.yul\":3472:3477   */\n  dup5\n    /* \"#utility.yul\":3469:3470   */\n  0x08\n    /* \"#utility.yul\":3465:3478   */\n  mul\n    /* \"#utility.yul\":3436:3487   */\n  tag_62\n  jump\t// in\ntag_108:\n    /* \"#utility.yul\":3432:3488   */\n  not\n    /* \"#utility.yul\":3517:3521   */\n  dup1\n    /* \"#utility.yul\":3511:3515   */\n  dup4\n    /* \"#utility.yul\":3507:3522   */\n  and\n    /* \"#utility.yul\":3497:3522   */\n  swap2\n  pop\n    /* \"#utility.yul\":3410:3528   */\n  pop\n    /* \"#utility.yul\":3359:3528   */\n  swap3\n  swap2\n  pop\n  pop\n  jump\t// out\n    /* \"#utility.yul\":3533:3828   */\ntag_64:\n    /* \"#utility.yul\":3609:3613   */\n  0x00\n    /* \"#utility.yul\":3755:3784   */\n  tag_110\n    /* \"#utility.yul\":3780:3783   */\n  dup4\n    /* \"#utility.yul\":3774:3778   */\n  dup4\n    /* \"#utility.yul\":3755:3784   */\n  tag_63\n  jump\t// in\ntag_110:\n    /* \"#utility.yul\":3747:3784   */\n  swap2\n  pop\n    /* \"#utility.yul\":3817:3820   */\n  dup3\n    /* \"#utility.yul\":3814:3815   */\n  0x02\n    /* \"#utility.yul\":3810:3821   */\n  mul\n    /* \"#utility.yul\":3804:3808   */\n  dup3\n    /* \"#utility.yul\":3801:3822   */\n  or\n    /* \"#utility.yul\":3793:3822   */\n  swap1\n  pop\n    /* \"#utility.yul\":3533:3828   */\n  swap3\n  swap2\n  pop\n  pop\n  jump\t// out\n    /* \"#utility.yul\":3833:5228   */\ntag_2:\n    /* \"#utility.yul\":3950:3987   */\n  tag_112\n    /* \"#utility.yul\":3983:3986   */\n  dup3\n    /* \"#utility.yul\":3950:3987   */\n  tag_46\n  jump\t// in\ntag_112:\n    /* \"#utility.yul\":4052:4070   */\n  0xffffffffffffffff\n    /* \"#utility.yul\":4044:4050   */\n  dup2\n    /* \"#utility.yul\":4041:4071   */\n  gt\n    /* \"#utility.yul\":4038:4094   */\n  iszero\n  tag_113\n  jumpi\n    /* \"#utility.yul\":4074:4092   */\n  tag_114\n  tag_47\n  jump\t// in\ntag_114:\n    /* \"#utility.yul\":4038:4094   */\ntag_113:\n    /* \"#utility.yul\":4118:4156   */\n  tag_115\n    /* \"#utility.yul\":4150:4154   */\n  dup3\n    /* \"#utility.yul\":4144:4155   */\n  sload\n    /* \"#utility.yul\":4118:4156   */\n  tag_40\n  jump\t// in\ntag_115:\n    /* \"#utility.yul\":4203:4270   */\n  tag_116\n    /* \"#utility.yul\":4263:4269   */\n  dup3\n    /* \"#utility.yul\":4255:4261   */\n  dup3\n    /* \"#utility.yul\":4249:4253   */\n  dup6\n    /* \"#utility.yul\":4203:4270   */\n  tag_61\n  jump\t// in\ntag_116:\n    /* \"#utility.yul\":4297:4298   */\n  0x00\n    /* \"#utility.yul\":4321:4325   */\n  0x20\n    /* \"#utility.yul\":4308:4325   */\n  swap1\n  pop\n    /* \"#utility.yul\":4353:4355   */\n  0x1f\n    /* \"#utility.yul\":4345:4351   */\n  dup4\n    /* \"#utility.yul\":4342:4356   */\n  gt\n    /* \"#utility.yul\":4370:4371   */\n  0x01\n    /* \"#utility.yul\":4365:4983   */\n  dup2\n  eq\n  tag_118\n  jumpi\n    /* \"#utility.yul\":5027:5028   */\n  0x00\n    /* \"#utility.yul\":5044:5050   */\n  dup5\n    /* \"#utility.yul\":5041:5118   */\n  iszero\n  tag_119\n  jumpi\n    /* \"#utility.yul\":5093:5102   */\n  dup3\n    /* \"#utility.yul\":5088:5091   */\n  dup8\n    /* \"#utility.yul\":5084:5103   */\n  add\n    /* \"#utility.yul\":5078:5104   */\n  mload\n    /* \"#utility.yul\":5069:5104   */\n  swap1\n  pop\n    /* \"#utility.yul\":5041:5118   */\ntag_119:\n    /* \"#utility.yul\":5144:5211   */\n  tag_120\n    /* \"#utility.yul\":5204:5210   */\n  dup6\n    /* \"#utility.yul\":5197:5202   */\n  dup3\n    /* \"#utility.yul\":5144:5211   */\n  tag_64\n  jump\t// in\ntag_120:\n    /* \"#utility.yul\":5138:5142   */\n  dup7\n    /* \"#utility.yul\":5131:5212   */\n  sstore\n    /* \"#utility.yul\":5000:5222   */\n  pop\n    /* \"#utility.yul\":4335:5222   */\n  jump(tag_117)\n    /* \"#utility.yul\":4365:4983   */\ntag_118:\n    /* \"#utility.yul\":4417:4421   */\n  0x1f\n    /* \"#utility.yul\":4413:4422   */\n  not\n    /* \"#utility.yul\":4405:4411   */\n  dup5\n    /* \"#utility.yul\":4401:4423   */\n  and\n    /* \"#utility.yul\":4451:4488   */\n  tag_121\n    /* \"#utility.yul\":4483:4487   */\n  dup7\n    /* \"#utility.yul\":4451:4488   */\n  tag_49\n  jump\t// in\ntag_121:\n    /* \"#utility.yul\":4510:4511   */\n  0x00\n    /* \"#utility.yul\":4524:4732   */\ntag_122:\n    /* \"#utility.yul\":4538:4545   */\n  dup3\n    /* \"#utility.yul\":4535:4536   */\n  dup2\n    /* \"#utility.yul\":4532:4546   */\n  lt\n    /* \"#utility.yul\":4524:4732   */\n  iszero\n  tag_124\n  jumpi\n    /* \"#utility.yul\":4617:4626   */\n  dup5\n    /* \"#utility.yul\":4612:4615   */\n  dup10\n    /* \"#utility.yul\":4608:4627   */\n  add\n    /* \"#utility.yul\":4602:4628   */\n  mload\n    /* \"#utility.yul\":4594:4600   */\n  dup3\n    /* \"#utility.yul\":4587:4629   */\n  sstore\n    /* \"#utility.yul\":4668:4669   */\n  0x01\n    /* \"#utility.yul\":4660:4666   */\n  dup3\n    /* \"#utility.yul\":4656:4670   */\n  add\n    /* \"#utility.yul\":4646:4670   */\n  swap2\n  pop\n    /* \"#utility.yul\":4715:4717   */\n  0x20\n    /* \"#utility.yul\":4704:4713   */\n  dup6\n    /* \"#utility.yul\":4700:4718   */\n  add\n    /* \"#utility.yul\":4687:4718   */\n  swap5\n  pop\n    /* \"#utility.yul\":4561:4565   */\n  0x20\n    /* \"#utility.yul\":4558:4559   */\n  dup2\n    /* \"#utility.yul\":4554:4566   */\n  add\n    /* \"#utility.yul\":4549:4566   */\n  swap1\n  pop\n    /* \"#utility.yul\":4524:4732   */\n  jump(tag_122)\ntag_124:\n    /* \"#utility.yul\":4760:4766   */\n  dup7\n    /* \"#utility.yul\":4751:4758   */\n  dup4\n    /* \"#utility.yul\":4748:4767   */\n  lt\n    /* \"#utility.yul\":4745:4924   */\n  iszero\n  tag_125\n  jumpi\n    /* \"#utility.yul\":4818:4827   */\n  dup5\n    /* \"#utility.yul\":4813:4816   */\n  dup10\n    /* \"#utility.yul\":4809:4828   */\n  add\n    /* \"#utility.yul\":4803:4829   */\n  mload\n    /* \"#utility.yul\":4861:4909   */\n  tag_126\n    /* \"#utility.yul\":4903:4907   */\n  0x1f\n    /* \"#utility.yul\":4895:4901   */\n  dup10\n    /* \"#utility.yul\":4891:4908   */\n  and\n    /* \"#utility.yul\":4880:4889   */\n  dup3\n    /* \"#utility.yul\":4861:4909   */\n  tag_63\n  jump\t// in\ntag_126:\n    /* \"#utility.yul\":4853:4859   */\n  dup4\n    /* \"#utility.yul\":4846:4910   */\n  sstore\n    /* \"#utility.yul\":4768:4924   */\n  pop\n    /* \"#utility.yul\":4745:4924   */\ntag_125:\n    /* \"#utility.yul\":4970:4971   */\n  0x01\n    /* \"#utility.yul\":4966:4967   */\n  0x02\n    /* \"#utility.yul\":4958:4964   */\n  dup9\n    /* \"#utility.yul\":4954:4968   */\n  mul\n    /* \"#utility.yul\":4950:4972   */\n  add\n    /* \"#utility.yul\":4944:4948   */\n  dup9\n    /* \"#utility.yul\":4937:4973   */\n  sstore\n    /* \"#utility.yul\":4372:4983   */\n  pop\n  pop\n  pop\n    /* \"#utility.yul\":4335:5222   */\ntag_117:\n  pop\n    /* \"#utility.yul\":3925:5228   */\n  pop\n  pop\n  pop\n    /* \"#utility.yul\":3833:5228   */\n  pop\n  pop\n  jump\t// out\n    /* \"contracts/MyContract.sol\":56:1958  contract MyContract {... */\ntag_11:\n  dataSize(sub_0)\n  dup1\n  dataOffset(sub_0)\n  0x00\n  codecopy\n  0x00\n  return\nstop\n\nsub_0: assembly {\n        /* \"contracts/MyContract.sol\":56:1958  contract MyContract {... */\n      mstore(0x40, 0x80)\n      callvalue\n      dup1\n      iszero\n      tag_1\n      jumpi\n      revert(0x00, 0x00)\n    tag_1:\n      pop\n      jumpi(tag_2, lt(calldatasize, 0x04))\n      shr(0xe0, calldataload(0x00))\n      dup1\n      0x7dd6b6bc\n      gt\n      tag_17\n      jumpi\n      dup1\n      0xb28baa1d\n      gt\n      tag_18\n      jumpi\n      dup1\n      0xb28baa1d\n      eq\n      tag_13\n      jumpi\n      dup1\n      0xb7a919cb\n      eq\n      tag_14\n      jumpi\n      dup1\n      0xc64f873a\n      eq\n      tag_15\n      jumpi\n      dup1\n      0xcc3e57d9\n      eq\n      tag_16\n      jumpi\n      jump(tag_2)\n    tag_18:\n      dup1\n      0x7dd6b6bc\n      eq\n      tag_10\n      jumpi\n      dup1\n      0x9874f5d7\n      eq\n      tag_11\n      jumpi\n      dup1\n      0x9ae918c7\n      eq\n      tag_12\n      jumpi\n      jump(tag_2)\n    tag_17:\n      dup1\n      0x311186f3\n      gt\n      tag_19\n      jumpi\n      dup1\n      0x311186f3\n      eq\n      tag_6\n      jumpi\n      dup1\n      0x4b3e7e0c\n      eq\n      tag_7\n      jumpi\n      dup1\n      0x61bc221a\n      eq\n      tag_8\n      jumpi\n      dup1\n      0x6422c4c8\n      eq\n      tag_9\n      jumpi\n      jump(tag_2)\n    tag_19:\n      dup1\n      0x046a2f89\n      eq\n      tag_3\n      jumpi\n      dup1\n      0x20965255\n      eq\n      tag_4\n      jumpi\n      dup1\n      0x26b85ee1\n      eq\n      tag_5\n      jumpi\n    tag_2:\n      revert(0x00, 0x00)\n        /* \"contracts/MyContract.sol\":983:1042  Structure public myStruck = Structure(1, \"Hello, Struct!!\") */\n    tag_3:\n      tag_20\n      tag_21\n      jump\t// in\n    tag_20:\n      mload(0x40)\n      tag_22\n      swap3\n      swap2\n      swap1\n      tag_23\n      jump\t// in\n    tag_22:\n      mload(0x40)\n      dup1\n      swap2\n      sub\n      swap1\n      return\n        /* \"contracts/MyContract.sol\":1135:1235  function getValue() public pure returns (uint) {... */\n    tag_4:\n      tag_24\n      tag_25\n      jump\t// in\n    tag_24:\n      mload(0x40)\n      tag_26\n      swap2\n      swap1\n      tag_27\n      jump\t// in\n    tag_26:\n      mload(0x40)\n      dup1\n      swap2\n      sub\n      swap1\n      return\n        /* \"contracts/MyContract.sol\":667:736  address public myAddress = 0x0fC5025C764cE34df352757e82f7B5c4Df39A836 */\n    tag_5:\n      tag_28\n      tag_29\n      jump\t// in\n    tag_28:\n      mload(0x40)\n      tag_30\n      swap2\n      swap1\n      tag_31\n      jump\t// in\n    tag_30:\n      mload(0x40)\n      dup1\n      swap2\n      sub\n      swap1\n      return\n        /* \"contracts/MyContract.sol\":300:325  uint8 public uintOf8 = 10 */\n    tag_6:\n      tag_32\n      tag_33\n      jump\t// in\n    tag_32:\n      mload(0x40)\n      tag_34\n      swap2\n      swap1\n      tag_35\n      jump\t// in\n    tag_34:\n      mload(0x40)\n      dup1\n      swap2\n      sub\n      swap1\n      return\n        /* \"contracts/MyContract.sol\":562:604  bytes32 public myBytes32 = \"Hello, World!\" */\n    tag_7:\n      tag_36\n      tag_37\n      jump\t// in\n    tag_36:\n      mload(0x40)\n      tag_38\n      swap2\n      swap1\n      tag_39\n      jump\t// in\n    tag_38:\n      mload(0x40)\n      dup1\n      swap2\n      sub\n      swap1\n      return\n        /* \"contracts/MyContract.sol\":104:127  uint public counter = 7 */\n    tag_8:\n      tag_40\n      tag_41\n      jump\t// in\n    tag_40:\n      mload(0x40)\n      tag_42\n      swap2\n      swap1\n      tag_27\n      jump\t// in\n    tag_42:\n      mload(0x40)\n      dup1\n      swap2\n      sub\n      swap1\n      return\n        /* \"contracts/MyContract.sol\":1297:1344  string[] public stringArray = [\"Rajan\", \"Suan\"] */\n    tag_9:\n      tag_43\n      0x04\n      dup1\n      calldatasize\n      sub\n      dup2\n      add\n      swap1\n      tag_44\n      swap2\n      swap1\n      tag_45\n      jump\t// in\n    tag_44:\n      tag_46\n      jump\t// in\n    tag_43:\n      mload(0x40)\n      tag_47\n      swap2\n      swap1\n      tag_48\n      jump\t// in\n    tag_47:\n      mload(0x40)\n      dup1\n      swap2\n      sub\n      swap1\n      return\n        /* \"contracts/MyContract.sol\":1907:1955  uint256[][] public my2DArray = [[1,2,3],[5,6,7]] */\n    tag_10:\n      tag_49\n      0x04\n      dup1\n      calldatasize\n      sub\n      dup2\n      add\n      swap1\n      tag_50\n      swap2\n      swap1\n      tag_51\n      jump\t// in\n    tag_50:\n      tag_52\n      jump\t// in\n    tag_49:\n      mload(0x40)\n      tag_53\n      swap2\n      swap1\n      tag_27\n      jump\t// in\n    tag_53:\n      mload(0x40)\n      dup1\n      swap2\n      sub\n      swap1\n      return\n        /* \"contracts/MyContract.sol\":1579:1773  function addString(string memory value) public {... */\n    tag_11:\n      tag_54\n      0x04\n      dup1\n      calldatasize\n      sub\n      dup2\n      add\n      swap1\n      tag_55\n      swap2\n      swap1\n      tag_56\n      jump\t// in\n    tag_55:\n      tag_57\n      jump\t// in\n    tag_54:\n      stop\n        /* \"contracts/MyContract.sol\":1254:1290  uint[] public uintArray = [1, 2, 41] */\n    tag_12:\n      tag_58\n      0x04\n      dup1\n      calldatasize\n      sub\n      dup2\n      add\n      swap1\n      tag_59\n      swap2\n      swap1\n      tag_45\n      jump\t// in\n    tag_59:\n      tag_60\n      jump\t// in\n    tag_58:\n      mload(0x40)\n      tag_61\n      swap2\n      swap1\n      tag_27\n      jump\t// in\n    tag_61:\n      mload(0x40)\n      dup1\n      swap2\n      sub\n      swap1\n      return\n        /* \"contracts/MyContract.sol\":1778:1865  function arrayCount() public view returns (uint) {... */\n    tag_13:\n      tag_62\n      tag_63\n      jump\t// in\n    tag_62:\n      mload(0x40)\n      tag_64\n      swap2\n      swap1\n      tag_27\n      jump\t// in\n    tag_64:\n      mload(0x40)\n      dup1\n      swap2\n      sub\n      swap1\n      return\n        /* \"contracts/MyContract.sol\":509:556  string public stringExample = \"My first string\" */\n    tag_14:\n      tag_65\n      tag_66\n      jump\t// in\n    tag_65:\n      mload(0x40)\n      tag_67\n      swap2\n      swap1\n      tag_48\n      jump\t// in\n    tag_67:\n      mload(0x40)\n      dup1\n      swap2\n      sub\n      swap1\n      return\n        /* \"contracts/MyContract.sol\":459:488  int public signerInteger = -1 */\n    tag_15:\n      tag_68\n      tag_69\n      jump\t// in\n    tag_68:\n      mload(0x40)\n      tag_70\n      swap2\n      swap1\n      tag_71\n      jump\t// in\n    tag_70:\n      mload(0x40)\n      dup1\n      swap2\n      sub\n      swap1\n      return\n        /* \"contracts/MyContract.sol\":1351:1374  string[] public myArray */\n    tag_16:\n      tag_72\n      0x04\n      dup1\n      calldatasize\n      sub\n      dup2\n      add\n      swap1\n      tag_73\n      swap2\n      swap1\n      tag_45\n      jump\t// in\n    tag_73:\n      tag_74\n      jump\t// in\n    tag_72:\n      mload(0x40)\n      tag_75\n      swap2\n      swap1\n      tag_48\n      jump\t// in\n    tag_75:\n      mload(0x40)\n      dup1\n      swap2\n      sub\n      swap1\n      return\n        /* \"contracts/MyContract.sol\":983:1042  Structure public myStruck = Structure(1, \"Hello, Struct!!\") */\n    tag_21:\n      0x06\n      dup1\n      0x00\n      add\n      sload\n      swap1\n      dup1\n      0x01\n      add\n      dup1\n      sload\n      tag_76\n      swap1\n      tag_77\n      jump\t// in\n    tag_76:\n      dup1\n      0x1f\n      add\n      0x20\n      dup1\n      swap2\n      div\n      mul\n      0x20\n      add\n      mload(0x40)\n      swap1\n      dup2\n      add\n      0x40\n      mstore\n      dup1\n      swap3\n      swap2\n      swap1\n      dup2\n      dup2\n      mstore\n      0x20\n      add\n      dup3\n      dup1\n      sload\n      tag_78\n      swap1\n      tag_77\n      jump\t// in\n    tag_78:\n      dup1\n      iszero\n      tag_79\n      jumpi\n      dup1\n      0x1f\n      lt\n      tag_80\n      jumpi\n      0x0100\n      dup1\n      dup4\n      sload\n      div\n      mul\n      dup4\n      mstore\n      swap2\n      0x20\n      add\n      swap2\n      jump(tag_79)\n    tag_80:\n      dup3\n      add\n      swap2\n      swap1\n      0x00\n      mstore\n      keccak256(0x00, 0x20)\n      swap1\n    tag_81:\n      dup2\n      sload\n      dup2\n      mstore\n      swap1\n      0x01\n      add\n      swap1\n      0x20\n      add\n      dup1\n      dup4\n      gt\n      tag_81\n      jumpi\n      dup3\n      swap1\n      sub\n      0x1f\n      and\n      dup3\n      add\n      swap2\n    tag_79:\n      pop\n      pop\n      pop\n      pop\n      pop\n      swap1\n      pop\n      dup3\n      jump\t// out\n        /* \"contracts/MyContract.sol\":1135:1235  function getValue() public pure returns (uint) {... */\n    tag_25:\n        /* \"contracts/MyContract.sol\":1176:1180  uint */\n      0x00\n        /* \"contracts/MyContract.sol\":1192:1202  uint value */\n      0x00\n        /* \"contracts/MyContract.sol\":1205:1206  7 */\n      0x07\n        /* \"contracts/MyContract.sol\":1192:1206  uint value = 7 */\n      swap1\n      pop\n        /* \"contracts/MyContract.sol\":1223:1228  value */\n      dup1\n        /* \"contracts/MyContract.sol\":1216:1228  return value */\n      swap2\n      pop\n      pop\n        /* \"contracts/MyContract.sol\":1135:1235  function getValue() public pure returns (uint) {... */\n      swap1\n      jump\t// out\n        /* \"contracts/MyContract.sol\":667:736  address public myAddress = 0x0fC5025C764cE34df352757e82f7B5c4Df39A836 */\n    tag_29:\n      0x05\n      0x00\n      swap1\n      sload\n      swap1\n      0x0100\n      exp\n      swap1\n      div\n      0xffffffffffffffffffffffffffffffffffffffff\n      and\n      dup2\n      jump\t// out\n        /* \"contracts/MyContract.sol\":300:325  uint8 public uintOf8 = 10 */\n    tag_33:\n      0x01\n      0x00\n      swap1\n      sload\n      swap1\n      0x0100\n      exp\n      swap1\n      div\n      0xff\n      and\n      dup2\n      jump\t// out\n        /* \"contracts/MyContract.sol\":562:604  bytes32 public myBytes32 = \"Hello, World!\" */\n    tag_37:\n      sload(0x04)\n      dup2\n      jump\t// out\n        /* \"contracts/MyContract.sol\":104:127  uint public counter = 7 */\n    tag_41:\n      sload(0x00)\n      dup2\n      jump\t// out\n        /* \"contracts/MyContract.sol\":1297:1344  string[] public stringArray = [\"Rajan\", \"Suan\"] */\n    tag_46:\n      0x09\n      dup2\n      dup2\n      sload\n      dup2\n      lt\n      tag_83\n      jumpi\n      0x00\n      dup1\n      revert\n    tag_83:\n      swap1\n      0x00\n      mstore\n      keccak256(0x00, 0x20)\n      add\n      0x00\n      swap2\n      pop\n      swap1\n      pop\n      dup1\n      sload\n      tag_85\n      swap1\n      tag_77\n      jump\t// in\n    tag_85:\n      dup1\n      0x1f\n      add\n      0x20\n      dup1\n      swap2\n      div\n      mul\n      0x20\n      add\n      mload(0x40)\n      swap1\n      dup2\n      add\n      0x40\n      mstore\n      dup1\n      swap3\n      swap2\n      swap1\n      dup2\n      dup2\n      mstore\n      0x20\n      add\n      dup3\n      dup1\n      sload\n      tag_86\n      swap1\n      tag_77\n      jump\t// in\n    tag_86:\n      dup1\n      iszero\n      tag_87\n      jumpi\n      dup1\n      0x1f\n      lt\n      tag_88\n      jumpi\n      0x0100\n      dup1\n      dup4\n      sload\n      div\n      mul\n      dup4\n      mstore\n      swap2\n      0x20\n      add\n      swap2\n      jump(tag_87)\n    tag_88:\n      dup3\n      add\n      swap2\n      swap1\n      0x00\n      mstore\n      keccak256(0x00, 0x20)\n      swap1\n    tag_89:\n      dup2\n      sload\n      dup2\n      mstore\n      swap1\n      0x01\n      add\n      swap1\n      0x20\n      add\n      dup1\n      dup4\n      gt\n      tag_89\n      jumpi\n      dup3\n      swap1\n      sub\n      0x1f\n      and\n      dup3\n      add\n      swap2\n    tag_87:\n      pop\n      pop\n      pop\n      pop\n      pop\n      dup2\n      jump\t// out\n        /* \"contracts/MyContract.sol\":1907:1955  uint256[][] public my2DArray = [[1,2,3],[5,6,7]] */\n    tag_52:\n      0x0b\n      dup3\n      dup2\n      sload\n      dup2\n      lt\n      tag_90\n      jumpi\n      0x00\n      dup1\n      revert\n    tag_90:\n      swap1\n      0x00\n      mstore\n      keccak256(0x00, 0x20)\n      add\n      dup2\n      dup2\n      sload\n      dup2\n      lt\n      tag_92\n      jumpi\n      0x00\n      dup1\n      revert\n    tag_92:\n      swap1\n      0x00\n      mstore\n      keccak256(0x00, 0x20)\n      add\n      0x00\n      swap2\n      pop\n      swap2\n      pop\n      pop\n      sload\n      dup2\n      jump\t// out\n        /* \"contracts/MyContract.sol\":1579:1773  function addString(string memory value) public {... */\n    tag_57:\n        /* \"contracts/MyContract.sol\":1666:1673  myArray */\n      0x0a\n        /* \"contracts/MyContract.sol\":1679:1684  value */\n      dup2\n        /* \"contracts/MyContract.sol\":1666:1685  myArray.push(value) */\n      swap1\n      dup1\n      0x01\n      dup2\n      sload\n      add\n      dup1\n      dup3\n      sstore\n      dup1\n      swap2\n      pop\n      pop\n      0x01\n      swap1\n      sub\n      swap1\n      0x00\n      mstore\n      keccak256(0x00, 0x20)\n      add\n      0x00\n      swap1\n      swap2\n      swap1\n      swap2\n      swap1\n      swap2\n      pop\n      swap1\n      dup2\n      tag_96\n      swap2\n      swap1\n      tag_97\n      jump\t// in\n    tag_96:\n      pop\n        /* \"contracts/MyContract.sol\":1579:1773  function addString(string memory value) public {... */\n      pop\n      jump\t// out\n        /* \"contracts/MyContract.sol\":1254:1290  uint[] public uintArray = [1, 2, 41] */\n    tag_60:\n      0x08\n      dup2\n      dup2\n      sload\n      dup2\n      lt\n      tag_98\n      jumpi\n      0x00\n      dup1\n      revert\n    tag_98:\n      swap1\n      0x00\n      mstore\n      keccak256(0x00, 0x20)\n      add\n      0x00\n      swap2\n      pop\n      swap1\n      pop\n      sload\n      dup2\n      jump\t// out\n        /* \"contracts/MyContract.sol\":1778:1865  function arrayCount() public view returns (uint) {... */\n    tag_63:\n        /* \"contracts/MyContract.sol\":1821:1825  uint */\n      0x00\n        /* \"contracts/MyContract.sol\":1844:1851  myArray */\n      0x0a\n        /* \"contracts/MyContract.sol\":1844:1858  myArray.length */\n      dup1\n      sload\n      swap1\n      pop\n        /* \"contracts/MyContract.sol\":1837:1858  return myArray.length */\n      swap1\n      pop\n        /* \"contracts/MyContract.sol\":1778:1865  function arrayCount() public view returns (uint) {... */\n      swap1\n      jump\t// out\n        /* \"contracts/MyContract.sol\":509:556  string public stringExample = \"My first string\" */\n    tag_66:\n      0x03\n      dup1\n      sload\n      tag_101\n      swap1\n      tag_77\n      jump\t// in\n    tag_101:\n      dup1\n      0x1f\n      add\n      0x20\n      dup1\n      swap2\n      div\n      mul\n      0x20\n      add\n      mload(0x40)\n      swap1\n      dup2\n      add\n      0x40\n      mstore\n      dup1\n      swap3\n      swap2\n      swap1\n      dup2\n      dup2\n      mstore\n      0x20\n      add\n      dup3\n      dup1\n      sload\n      tag_102\n      swap1\n      tag_77\n      jump\t// in\n    tag_102:\n      dup1\n      iszero\n      tag_103\n      jumpi\n      dup1\n      0x1f\n      lt\n      tag_104\n      jumpi\n      0x0100\n      dup1\n      dup4\n      sload\n      div\n      mul\n      dup4\n      mstore\n      swap2\n      0x20\n      add\n      swap2\n      jump(tag_103)\n    tag_104:\n      dup3\n      add\n      swap2\n      swap1\n      0x00\n      mstore\n      keccak256(0x00, 0x20)\n      swap1\n    tag_105:\n      dup2\n      sload\n      dup2\n      mstore\n      swap1\n      0x01\n      add\n      swap1\n      0x20\n      add\n      dup1\n      dup4\n      gt\n      tag_105\n      jumpi\n      dup3\n      swap1\n      sub\n      0x1f\n      and\n      dup3\n      add\n      swap2\n    tag_103:\n      pop\n      pop\n      pop\n      pop\n      pop\n      dup2\n      jump\t// out\n        /* \"contracts/MyContract.sol\":459:488  int public signerInteger = -1 */\n    tag_69:\n      sload(0x02)\n      dup2\n      jump\t// out\n        /* \"contracts/MyContract.sol\":1351:1374  string[] public myArray */\n    tag_74:\n      0x0a\n      dup2\n      dup2\n      sload\n      dup2\n      lt\n      tag_106\n      jumpi\n      0x00\n      dup1\n      revert\n    tag_106:\n      swap1\n      0x00\n      mstore\n      keccak256(0x00, 0x20)\n      add\n      0x00\n      swap2\n      pop\n      swap1\n      pop\n      dup1\n      sload\n      tag_108\n      swap1\n      tag_77\n      jump\t// in\n    tag_108:\n      dup1\n      0x1f\n      add\n      0x20\n      dup1\n      swap2\n      div\n      mul\n      0x20\n      add\n      mload(0x40)\n      swap1\n      dup2\n      add\n      0x40\n      mstore\n      dup1\n      swap3\n      swap2\n      swap1\n      dup2\n      dup2\n      mstore\n      0x20\n      add\n      dup3\n      dup1\n      sload\n      tag_109\n      swap1\n      tag_77\n      jump\t// in\n    tag_109:\n      dup1\n      iszero\n      tag_110\n      jumpi\n      dup1\n      0x1f\n      lt\n      tag_111\n      jumpi\n      0x0100\n      dup1\n      dup4\n      sload\n      div\n      mul\n      dup4\n      mstore\n      swap2\n      0x20\n      add\n      swap2\n      jump(tag_110)\n    tag_111:\n      dup3\n      add\n      swap2\n      swap1\n      0x00\n      mstore\n      keccak256(0x00, 0x20)\n      swap1\n    tag_112:\n      dup2\n      sload\n      dup2\n      mstore\n      swap1\n      0x01\n      add\n      swap1\n      0x20\n      add\n      dup1\n      dup4\n      gt\n      tag_112\n      jumpi\n      dup3\n      swap1\n      sub\n      0x1f\n      and\n      dup3\n      add\n      swap2\n    tag_110:\n      pop\n      pop\n      pop\n      pop\n      pop\n      dup2\n      jump\t// out\n        /* \"#utility.yul\":7:84   */\n    tag_113:\n        /* \"#utility.yul\":44:51   */\n      0x00\n        /* \"#utility.yul\":73:78   */\n      dup2\n        /* \"#utility.yul\":62:78   */\n      swap1\n      pop\n        /* \"#utility.yul\":7:84   */\n      swap2\n      swap1\n      pop\n      jump\t// out\n        /* \"#utility.yul\":90:208   */\n    tag_114:\n        /* \"#utility.yul\":177:201   */\n      tag_162\n        /* \"#utility.yul\":195:200   */\n      dup2\n        /* \"#utility.yul\":177:201   */\n      tag_113\n      jump\t// in\n    tag_162:\n        /* \"#utility.yul\":172:175   */\n      dup3\n        /* \"#utility.yul\":165:202   */\n      mstore\n        /* \"#utility.yul\":90:208   */\n      pop\n      pop\n      jump\t// out\n        /* \"#utility.yul\":214:313   */\n    tag_115:\n        /* \"#utility.yul\":266:272   */\n      0x00\n        /* \"#utility.yul\":300:305   */\n      dup2\n        /* \"#utility.yul\":294:306   */\n      mload\n        /* \"#utility.yul\":284:306   */\n      swap1\n      pop\n        /* \"#utility.yul\":214:313   */\n      swap2\n      swap1\n      pop\n      jump\t// out\n        /* \"#utility.yul\":319:488   */\n    tag_116:\n        /* \"#utility.yul\":403:414   */\n      0x00\n        /* \"#utility.yul\":437:443   */\n      dup3\n        /* \"#utility.yul\":432:435   */\n      dup3\n        /* \"#utility.yul\":425:444   */\n      mstore\n        /* \"#utility.yul\":477:481   */\n      0x20\n        /* \"#utility.yul\":472:475   */\n      dup3\n        /* \"#utility.yul\":468:482   */\n      add\n        /* \"#utility.yul\":453:482   */\n      swap1\n      pop\n        /* \"#utility.yul\":319:488   */\n      swap3\n      swap2\n      pop\n      pop\n      jump\t// out\n        /* \"#utility.yul\":494:633   */\n    tag_117:\n        /* \"#utility.yul\":583:589   */\n      dup3\n        /* \"#utility.yul\":578:581   */\n      dup2\n        /* \"#utility.yul\":573:576   */\n      dup4\n        /* \"#utility.yul\":567:590   */\n      mcopy\n        /* \"#utility.yul\":624:625   */\n      0x00\n        /* \"#utility.yul\":615:621   */\n      dup4\n        /* \"#utility.yul\":610:613   */\n      dup4\n        /* \"#utility.yul\":606:622   */\n      add\n        /* \"#utility.yul\":599:626   */\n      mstore\n        /* \"#utility.yul\":494:633   */\n      pop\n      pop\n      pop\n      jump\t// out\n        /* \"#utility.yul\":639:741   */\n    tag_118:\n        /* \"#utility.yul\":680:686   */\n      0x00\n        /* \"#utility.yul\":731:733   */\n      0x1f\n        /* \"#utility.yul\":727:734   */\n      not\n        /* \"#utility.yul\":722:724   */\n      0x1f\n        /* \"#utility.yul\":715:720   */\n      dup4\n        /* \"#utility.yul\":711:725   */\n      add\n        /* \"#utility.yul\":707:735   */\n      and\n        /* \"#utility.yul\":697:735   */\n      swap1\n      pop\n        /* \"#utility.yul\":639:741   */\n      swap2\n      swap1\n      pop\n      jump\t// out\n        /* \"#utility.yul\":747:1124   */\n    tag_119:\n        /* \"#utility.yul\":835:838   */\n      0x00\n        /* \"#utility.yul\":863:902   */\n      tag_168\n        /* \"#utility.yul\":896:901   */\n      dup3\n        /* \"#utility.yul\":863:902   */\n      tag_115\n      jump\t// in\n    tag_168:\n        /* \"#utility.yul\":918:989   */\n      tag_169\n        /* \"#utility.yul\":982:988   */\n      dup2\n        /* \"#utility.yul\":977:980   */\n      dup6\n        /* \"#utility.yul\":918:989   */\n      tag_116\n      jump\t// in\n    tag_169:\n        /* \"#utility.yul\":911:989   */\n      swap4\n      pop\n        /* \"#utility.yul\":998:1063   */\n      tag_170\n        /* \"#utility.yul\":1056:1062   */\n      dup2\n        /* \"#utility.yul\":1051:1054   */\n      dup6\n        /* \"#utility.yul\":1044:1048   */\n      0x20\n        /* \"#utility.yul\":1037:1042   */\n      dup7\n        /* \"#utility.yul\":1033:1049   */\n      add\n        /* \"#utility.yul\":998:1063   */\n      tag_117\n      jump\t// in\n    tag_170:\n        /* \"#utility.yul\":1088:1117   */\n      tag_171\n        /* \"#utility.yul\":1110:1116   */\n      dup2\n        /* \"#utility.yul\":1088:1117   */\n      tag_118\n      jump\t// in\n    tag_171:\n        /* \"#utility.yul\":1083:1086   */\n      dup5\n        /* \"#utility.yul\":1079:1118   */\n      add\n        /* \"#utility.yul\":1072:1118   */\n      swap2\n      pop\n        /* \"#utility.yul\":839:1124   */\n      pop\n        /* \"#utility.yul\":747:1124   */\n      swap3\n      swap2\n      pop\n      pop\n      jump\t// out\n        /* \"#utility.yul\":1130:1553   */\n    tag_23:\n        /* \"#utility.yul\":1271:1275   */\n      0x00\n        /* \"#utility.yul\":1309:1311   */\n      0x40\n        /* \"#utility.yul\":1298:1307   */\n      dup3\n        /* \"#utility.yul\":1294:1312   */\n      add\n        /* \"#utility.yul\":1286:1312   */\n      swap1\n      pop\n        /* \"#utility.yul\":1322:1393   */\n      tag_173\n        /* \"#utility.yul\":1390:1391   */\n      0x00\n        /* \"#utility.yul\":1379:1388   */\n      dup4\n        /* \"#utility.yul\":1375:1392   */\n      add\n        /* \"#utility.yul\":1366:1372   */\n      dup6\n        /* \"#utility.yul\":1322:1393   */\n      tag_114\n      jump\t// in\n    tag_173:\n        /* \"#utility.yul\":1440:1449   */\n      dup2\n        /* \"#utility.yul\":1434:1438   */\n      dup2\n        /* \"#utility.yul\":1430:1450   */\n      sub\n        /* \"#utility.yul\":1425:1427   */\n      0x20\n        /* \"#utility.yul\":1414:1423   */\n      dup4\n        /* \"#utility.yul\":1410:1428   */\n      add\n        /* \"#utility.yul\":1403:1451   */\n      mstore\n        /* \"#utility.yul\":1468:1546   */\n      tag_174\n        /* \"#utility.yul\":1541:1545   */\n      dup2\n        /* \"#utility.yul\":1532:1538   */\n      dup5\n        /* \"#utility.yul\":1468:1546   */\n      tag_119\n      jump\t// in\n    tag_174:\n        /* \"#utility.yul\":1460:1546   */\n      swap1\n      pop\n        /* \"#utility.yul\":1130:1553   */\n      swap4\n      swap3\n      pop\n      pop\n      pop\n      jump\t// out\n        /* \"#utility.yul\":1559:1781   */\n    tag_27:\n        /* \"#utility.yul\":1652:1656   */\n      0x00\n        /* \"#utility.yul\":1690:1692   */\n      0x20\n        /* \"#utility.yul\":1679:1688   */\n      dup3\n        /* \"#utility.yul\":1675:1693   */\n      add\n        /* \"#utility.yul\":1667:1693   */\n      swap1\n      pop\n        /* \"#utility.yul\":1703:1774   */\n      tag_176\n        /* \"#utility.yul\":1771:1772   */\n      0x00\n        /* \"#utility.yul\":1760:1769   */\n      dup4\n        /* \"#utility.yul\":1756:1773   */\n      add\n        /* \"#utility.yul\":1747:1753   */\n      dup5\n        /* \"#utility.yul\":1703:1774   */\n      tag_114\n      jump\t// in\n    tag_176:\n        /* \"#utility.yul\":1559:1781   */\n      swap3\n      swap2\n      pop\n      pop\n      jump\t// out\n        /* \"#utility.yul\":1787:1913   */\n    tag_120:\n        /* \"#utility.yul\":1824:1831   */\n      0x00\n        /* \"#utility.yul\":1864:1906   */\n      0xffffffffffffffffffffffffffffffffffffffff\n        /* \"#utility.yul\":1857:1862   */\n      dup3\n        /* \"#utility.yul\":1853:1907   */\n      and\n        /* \"#utility.yul\":1842:1907   */\n      swap1\n      pop\n        /* \"#utility.yul\":1787:1913   */\n      swap2\n      swap1\n      pop\n      jump\t// out\n        /* \"#utility.yul\":1919:2015   */\n    tag_121:\n        /* \"#utility.yul\":1956:1963   */\n      0x00\n        /* \"#utility.yul\":1985:2009   */\n      tag_179\n        /* \"#utility.yul\":2003:2008   */\n      dup3\n        /* \"#utility.yul\":1985:2009   */\n      tag_120\n      jump\t// in\n    tag_179:\n        /* \"#utility.yul\":1974:2009   */\n      swap1\n      pop\n        /* \"#utility.yul\":1919:2015   */\n      swap2\n      swap1\n      pop\n      jump\t// out\n        /* \"#utility.yul\":2021:2139   */\n    tag_122:\n        /* \"#utility.yul\":2108:2132   */\n      tag_181\n        /* \"#utility.yul\":2126:2131   */\n      dup2\n        /* \"#utility.yul\":2108:2132   */\n      tag_121\n      jump\t// in\n    tag_181:\n        /* \"#utility.yul\":2103:2106   */\n      dup3\n        /* \"#utility.yul\":2096:2133   */\n      mstore\n        /* \"#utility.yul\":2021:2139   */\n      pop\n      pop\n      jump\t// out\n        /* \"#utility.yul\":2145:2367   */\n    tag_31:\n        /* \"#utility.yul\":2238:2242   */\n      0x00\n        /* \"#utility.yul\":2276:2278   */\n      0x20\n        /* \"#utility.yul\":2265:2274   */\n      dup3\n        /* \"#utility.yul\":2261:2279   */\n      add\n        /* \"#utility.yul\":2253:2279   */\n      swap1\n      pop\n        /* \"#utility.yul\":2289:2360   */\n      tag_183\n        /* \"#utility.yul\":2357:2358   */\n      0x00\n        /* \"#utility.yul\":2346:2355   */\n      dup4\n        /* \"#utility.yul\":2342:2359   */\n      add\n        /* \"#utility.yul\":2333:2339   */\n      dup5\n        /* \"#utility.yul\":2289:2360   */\n      tag_122\n      jump\t// in\n    tag_183:\n        /* \"#utility.yul\":2145:2367   */\n      swap3\n      swap2\n      pop\n      pop\n      jump\t// out\n        /* \"#utility.yul\":2373:2459   */\n    tag_123:\n        /* \"#utility.yul\":2408:2415   */\n      0x00\n        /* \"#utility.yul\":2448:2452   */\n      0xff\n        /* \"#utility.yul\":2441:2446   */\n      dup3\n        /* \"#utility.yul\":2437:2453   */\n      and\n        /* \"#utility.yul\":2426:2453   */\n      swap1\n      pop\n        /* \"#utility.yul\":2373:2459   */\n      swap2\n      swap1\n      pop\n      jump\t// out\n        /* \"#utility.yul\":2465:2577   */\n    tag_124:\n        /* \"#utility.yul\":2548:2570   */\n      tag_186\n        /* \"#utility.yul\":2564:2569   */\n      dup2\n        /* \"#utility.yul\":2548:2570   */\n      tag_123\n      jump\t// in\n    tag_186:\n        /* \"#utility.yul\":2543:2546   */\n      dup3\n        /* \"#utility.yul\":2536:2571   */\n      mstore\n        /* \"#utility.yul\":2465:2577   */\n      pop\n      pop\n      jump\t// out\n        /* \"#utility.yul\":2583:2797   */\n    tag_35:\n        /* \"#utility.yul\":2672:2676   */\n      0x00\n        /* \"#utility.yul\":2710:2712   */\n      0x20\n        /* \"#utility.yul\":2699:2708   */\n      dup3\n        /* \"#utility.yul\":2695:2713   */\n      add\n        /* \"#utility.yul\":2687:2713   */\n      swap1\n      pop\n        /* \"#utility.yul\":2723:2790   */\n      tag_188\n        /* \"#utility.yul\":2787:2788   */\n      0x00\n        /* \"#utility.yul\":2776:2785   */\n      dup4\n        /* \"#utility.yul\":2772:2789   */\n      add\n        /* \"#utility.yul\":2763:2769   */\n      dup5\n        /* \"#utility.yul\":2723:2790   */\n      tag_124\n      jump\t// in\n    tag_188:\n        /* \"#utility.yul\":2583:2797   */\n      swap3\n      swap2\n      pop\n      pop\n      jump\t// out\n        /* \"#utility.yul\":2803:2880   */\n    tag_125:\n        /* \"#utility.yul\":2840:2847   */\n      0x00\n        /* \"#utility.yul\":2869:2874   */\n      dup2\n        /* \"#utility.yul\":2858:2874   */\n      swap1\n      pop\n        /* \"#utility.yul\":2803:2880   */\n      swap2\n      swap1\n      pop\n      jump\t// out\n        /* \"#utility.yul\":2886:3004   */\n    tag_126:\n        /* \"#utility.yul\":2973:2997   */\n      tag_191\n        /* \"#utility.yul\":2991:2996   */\n      dup2\n        /* \"#utility.yul\":2973:2997   */\n      tag_125\n      jump\t// in\n    tag_191:\n        /* \"#utility.yul\":2968:2971   */\n      dup3\n        /* \"#utility.yul\":2961:2998   */\n      mstore\n        /* \"#utility.yul\":2886:3004   */\n      pop\n      pop\n      jump\t// out\n        /* \"#utility.yul\":3010:3232   */\n    tag_39:\n        /* \"#utility.yul\":3103:3107   */\n      0x00\n        /* \"#utility.yul\":3141:3143   */\n      0x20\n        /* \"#utility.yul\":3130:3139   */\n      dup3\n        /* \"#utility.yul\":3126:3144   */\n      add\n        /* \"#utility.yul\":3118:3144   */\n      swap1\n      pop\n        /* \"#utility.yul\":3154:3225   */\n      tag_193\n        /* \"#utility.yul\":3222:3223   */\n      0x00\n        /* \"#utility.yul\":3211:3220   */\n      dup4\n        /* \"#utility.yul\":3207:3224   */\n      add\n        /* \"#utility.yul\":3198:3204   */\n      dup5\n        /* \"#utility.yul\":3154:3225   */\n      tag_126\n      jump\t// in\n    tag_193:\n        /* \"#utility.yul\":3010:3232   */\n      swap3\n      swap2\n      pop\n      pop\n      jump\t// out\n        /* \"#utility.yul\":3238:3313   */\n    tag_127:\n        /* \"#utility.yul\":3271:3277   */\n      0x00\n        /* \"#utility.yul\":3304:3306   */\n      0x40\n        /* \"#utility.yul\":3298:3307   */\n      mload\n        /* \"#utility.yul\":3288:3307   */\n      swap1\n      pop\n        /* \"#utility.yul\":3238:3313   */\n      swap1\n      jump\t// out\n        /* \"#utility.yul\":3319:3436   */\n    tag_128:\n        /* \"#utility.yul\":3428:3429   */\n      0x00\n        /* \"#utility.yul\":3425:3426   */\n      0x00\n        /* \"#utility.yul\":3418:3430   */\n      revert\n        /* \"#utility.yul\":3442:3559   */\n    tag_129:\n        /* \"#utility.yul\":3551:3552   */\n      0x00\n        /* \"#utility.yul\":3548:3549   */\n      0x00\n        /* \"#utility.yul\":3541:3553   */\n      revert\n        /* \"#utility.yul\":3565:3687   */\n    tag_130:\n        /* \"#utility.yul\":3638:3662   */\n      tag_198\n        /* \"#utility.yul\":3656:3661   */\n      dup2\n        /* \"#utility.yul\":3638:3662   */\n      tag_113\n      jump\t// in\n    tag_198:\n        /* \"#utility.yul\":3631:3636   */\n      dup2\n        /* \"#utility.yul\":3628:3663   */\n      eq\n        /* \"#utility.yul\":3618:3681   */\n      tag_199\n      jumpi\n        /* \"#utility.yul\":3677:3678   */\n      0x00\n        /* \"#utility.yul\":3674:3675   */\n      0x00\n        /* \"#utility.yul\":3667:3679   */\n      revert\n        /* \"#utility.yul\":3618:3681   */\n    tag_199:\n        /* \"#utility.yul\":3565:3687   */\n      pop\n      jump\t// out\n        /* \"#utility.yul\":3693:3832   */\n    tag_131:\n        /* \"#utility.yul\":3739:3744   */\n      0x00\n        /* \"#utility.yul\":3777:3783   */\n      dup2\n        /* \"#utility.yul\":3764:3784   */\n      calldataload\n        /* \"#utility.yul\":3755:3784   */\n      swap1\n      pop\n        /* \"#utility.yul\":3793:3826   */\n      tag_201\n        /* \"#utility.yul\":3820:3825   */\n      dup2\n        /* \"#utility.yul\":3793:3826   */\n      tag_130\n      jump\t// in\n    tag_201:\n        /* \"#utility.yul\":3693:3832   */\n      swap3\n      swap2\n      pop\n      pop\n      jump\t// out\n        /* \"#utility.yul\":3838:4167   */\n    tag_45:\n        /* \"#utility.yul\":3897:3903   */\n      0x00\n        /* \"#utility.yul\":3946:3948   */\n      0x20\n        /* \"#utility.yul\":3934:3943   */\n      dup3\n        /* \"#utility.yul\":3925:3932   */\n      dup5\n        /* \"#utility.yul\":3921:3944   */\n      sub\n        /* \"#utility.yul\":3917:3949   */\n      slt\n        /* \"#utility.yul\":3914:4033   */\n      iszero\n      tag_203\n      jumpi\n        /* \"#utility.yul\":3952:4031   */\n      tag_204\n      tag_128\n      jump\t// in\n    tag_204:\n        /* \"#utility.yul\":3914:4033   */\n    tag_203:\n        /* \"#utility.yul\":4072:4073   */\n      0x00\n        /* \"#utility.yul\":4097:4150   */\n      tag_205\n        /* \"#utility.yul\":4142:4149   */\n      dup5\n        /* \"#utility.yul\":4133:4139   */\n      dup3\n        /* \"#utility.yul\":4122:4131   */\n      dup6\n        /* \"#utility.yul\":4118:4140   */\n      add\n        /* \"#utility.yul\":4097:4150   */\n      tag_131\n      jump\t// in\n    tag_205:\n        /* \"#utility.yul\":4087:4150   */\n      swap2\n      pop\n        /* \"#utility.yul\":4043:4160   */\n      pop\n        /* \"#utility.yul\":3838:4167   */\n      swap3\n      swap2\n      pop\n      pop\n      jump\t// out\n        /* \"#utility.yul\":4173:4486   */\n    tag_48:\n        /* \"#utility.yul\":4286:4290   */\n      0x00\n        /* \"#utility.yul\":4324:4326   */\n      0x20\n        /* \"#utility.yul\":4313:4322   */\n      dup3\n        /* \"#utility.yul\":4309:4327   */\n      add\n        /* \"#utility.yul\":4301:4327   */\n      swap1\n      pop\n        /* \"#utility.yul\":4373:4382   */\n      dup2\n        /* \"#utility.yul\":4367:4371   */\n      dup2\n        /* \"#utility.yul\":4363:4383   */\n      sub\n        /* \"#utility.yul\":4359:4360   */\n      0x00\n        /* \"#utility.yul\":4348:4357   */\n      dup4\n        /* \"#utility.yul\":4344:4361   */\n      add\n        /* \"#utility.yul\":4337:4384   */\n      mstore\n        /* \"#utility.yul\":4401:4479   */\n      tag_207\n        /* \"#utility.yul\":4474:4478   */\n      dup2\n        /* \"#utility.yul\":4465:4471   */\n      dup5\n        /* \"#utility.yul\":4401:4479   */\n      tag_119\n      jump\t// in\n    tag_207:\n        /* \"#utility.yul\":4393:4479   */\n      swap1\n      pop\n        /* \"#utility.yul\":4173:4486   */\n      swap3\n      swap2\n      pop\n      pop\n      jump\t// out\n        /* \"#utility.yul\":4492:4966   */\n    tag_51:\n        /* \"#utility.yul\":4560:4566   */\n      0x00\n        /* \"#utility.yul\":4568:4574   */\n      0x00\n        /* \"#utility.yul\":4617:4619   */\n      0x40\n        /* \"#utility.yul\":4605:4614   */\n      dup4\n        /* \"#utility.yul\":4596:4603   */\n      dup6\n        /* \"#utility.yul\":4592:4615   */\n      sub\n        /* \"#utility.yul\":4588:4620   */\n      slt\n        /* \"#utility.yul\":4585:4704   */\n      iszero\n      tag_209\n      jumpi\n        /* \"#utility.yul\":4623:4702   */\n      tag_210\n      tag_128\n      jump\t// in\n    tag_210:\n        /* \"#utility.yul\":4585:4704   */\n    tag_209:\n        /* \"#utility.yul\":4743:4744   */\n      0x00\n        /* \"#utility.yul\":4768:4821   */\n      tag_211\n        /* \"#utility.yul\":4813:4820   */\n      dup6\n        /* \"#utility.yul\":4804:4810   */\n      dup3\n        /* \"#utility.yul\":4793:4802   */\n      dup7\n        /* \"#utility.yul\":4789:4811   */\n      add\n        /* \"#utility.yul\":4768:4821   */\n      tag_131\n      jump\t// in\n    tag_211:\n        /* \"#utility.yul\":4758:4821   */\n      swap3\n      pop\n        /* \"#utility.yul\":4714:4831   */\n      pop\n        /* \"#utility.yul\":4870:4872   */\n      0x20\n        /* \"#utility.yul\":4896:4949   */\n      tag_212\n        /* \"#utility.yul\":4941:4948   */\n      dup6\n        /* \"#utility.yul\":4932:4938   */\n      dup3\n        /* \"#utility.yul\":4921:4930   */\n      dup7\n        /* \"#utility.yul\":4917:4939   */\n      add\n        /* \"#utility.yul\":4896:4949   */\n      tag_131\n      jump\t// in\n    tag_212:\n        /* \"#utility.yul\":4886:4949   */\n      swap2\n      pop\n        /* \"#utility.yul\":4841:4959   */\n      pop\n        /* \"#utility.yul\":4492:4966   */\n      swap3\n      pop\n      swap3\n      swap1\n      pop\n      jump\t// out\n        /* \"#utility.yul\":4972:5089   */\n    tag_132:\n        /* \"#utility.yul\":5081:5082   */\n      0x00\n        /* \"#utility.yul\":5078:5079   */\n      0x00\n        /* \"#utility.yul\":5071:5083   */\n      revert\n        /* \"#utility.yul\":5095:5212   */\n    tag_133:\n        /* \"#utility.yul\":5204:5205   */\n      0x00\n        /* \"#utility.yul\":5201:5202   */\n      0x00\n        /* \"#utility.yul\":5194:5206   */\n      revert\n        /* \"#utility.yul\":5218:5398   */\n    tag_134:\n        /* \"#utility.yul\":5266:5343   */\n      0x4e487b7100000000000000000000000000000000000000000000000000000000\n        /* \"#utility.yul\":5263:5264   */\n      0x00\n        /* \"#utility.yul\":5256:5344   */\n      mstore\n        /* \"#utility.yul\":5363:5367   */\n      0x41\n        /* \"#utility.yul\":5360:5361   */\n      0x04\n        /* \"#utility.yul\":5353:5368   */\n      mstore\n        /* \"#utility.yul\":5387:5391   */\n      0x24\n        /* \"#utility.yul\":5384:5385   */\n      0x00\n        /* \"#utility.yul\":5377:5392   */\n      revert\n        /* \"#utility.yul\":5404:5685   */\n    tag_135:\n        /* \"#utility.yul\":5487:5514   */\n      tag_217\n        /* \"#utility.yul\":5509:5513   */\n      dup3\n        /* \"#utility.yul\":5487:5514   */\n      tag_118\n      jump\t// in\n    tag_217:\n        /* \"#utility.yul\":5479:5485   */\n      dup2\n        /* \"#utility.yul\":5475:5515   */\n      add\n        /* \"#utility.yul\":5617:5623   */\n      dup2\n        /* \"#utility.yul\":5605:5615   */\n      dup2\n        /* \"#utility.yul\":5602:5624   */\n      lt\n        /* \"#utility.yul\":5581:5599   */\n      0xffffffffffffffff\n        /* \"#utility.yul\":5569:5579   */\n      dup3\n        /* \"#utility.yul\":5566:5600   */\n      gt\n        /* \"#utility.yul\":5563:5625   */\n      or\n        /* \"#utility.yul\":5560:5648   */\n      iszero\n      tag_218\n      jumpi\n        /* \"#utility.yul\":5628:5646   */\n      tag_219\n      tag_134\n      jump\t// in\n    tag_219:\n        /* \"#utility.yul\":5560:5648   */\n    tag_218:\n        /* \"#utility.yul\":5668:5678   */\n      dup1\n        /* \"#utility.yul\":5664:5666   */\n      0x40\n        /* \"#utility.yul\":5657:5679   */\n      mstore\n        /* \"#utility.yul\":5447:5685   */\n      pop\n        /* \"#utility.yul\":5404:5685   */\n      pop\n      pop\n      jump\t// out\n        /* \"#utility.yul\":5691:5820   */\n    tag_136:\n        /* \"#utility.yul\":5725:5731   */\n      0x00\n        /* \"#utility.yul\":5752:5772   */\n      tag_221\n      tag_127\n      jump\t// in\n    tag_221:\n        /* \"#utility.yul\":5742:5772   */\n      swap1\n      pop\n        /* \"#utility.yul\":5781:5814   */\n      tag_222\n        /* \"#utility.yul\":5809:5813   */\n      dup3\n        /* \"#utility.yul\":5801:5807   */\n      dup3\n        /* \"#utility.yul\":5781:5814   */\n      tag_135\n      jump\t// in\n    tag_222:\n        /* \"#utility.yul\":5691:5820   */\n      swap2\n      swap1\n      pop\n      jump\t// out\n        /* \"#utility.yul\":5826:6134   */\n    tag_137:\n        /* \"#utility.yul\":5888:5892   */\n      0x00\n        /* \"#utility.yul\":5978:5996   */\n      0xffffffffffffffff\n        /* \"#utility.yul\":5970:5976   */\n      dup3\n        /* \"#utility.yul\":5967:5997   */\n      gt\n        /* \"#utility.yul\":5964:6020   */\n      iszero\n      tag_224\n      jumpi\n        /* \"#utility.yul\":6000:6018   */\n      tag_225\n      tag_134\n      jump\t// in\n    tag_225:\n        /* \"#utility.yul\":5964:6020   */\n    tag_224:\n        /* \"#utility.yul\":6038:6067   */\n      tag_226\n        /* \"#utility.yul\":6060:6066   */\n      dup3\n        /* \"#utility.yul\":6038:6067   */\n      tag_118\n      jump\t// in\n    tag_226:\n        /* \"#utility.yul\":6030:6067   */\n      swap1\n      pop\n        /* \"#utility.yul\":6122:6126   */\n      0x20\n        /* \"#utility.yul\":6116:6120   */\n      dup2\n        /* \"#utility.yul\":6112:6127   */\n      add\n        /* \"#utility.yul\":6104:6127   */\n      swap1\n      pop\n        /* \"#utility.yul\":5826:6134   */\n      swap2\n      swap1\n      pop\n      jump\t// out\n        /* \"#utility.yul\":6140:6288   */\n    tag_138:\n        /* \"#utility.yul\":6238:6244   */\n      dup3\n        /* \"#utility.yul\":6233:6236   */\n      dup2\n        /* \"#utility.yul\":6228:6231   */\n      dup4\n        /* \"#utility.yul\":6215:6245   */\n      calldatacopy\n        /* \"#utility.yul\":6279:6280   */\n      0x00\n        /* \"#utility.yul\":6270:6276   */\n      dup4\n        /* \"#utility.yul\":6265:6268   */\n      dup4\n        /* \"#utility.yul\":6261:6277   */\n      add\n        /* \"#utility.yul\":6254:6281   */\n      mstore\n        /* \"#utility.yul\":6140:6288   */\n      pop\n      pop\n      pop\n      jump\t// out\n        /* \"#utility.yul\":6294:6719   */\n    tag_139:\n        /* \"#utility.yul\":6372:6377   */\n      0x00\n        /* \"#utility.yul\":6397:6463   */\n      tag_229\n        /* \"#utility.yul\":6413:6462   */\n      tag_230\n        /* \"#utility.yul\":6455:6461   */\n      dup5\n        /* \"#utility.yul\":6413:6462   */\n      tag_137\n      jump\t// in\n    tag_230:\n        /* \"#utility.yul\":6397:6463   */\n      tag_136\n      jump\t// in\n    tag_229:\n        /* \"#utility.yul\":6388:6463   */\n      swap1\n      pop\n        /* \"#utility.yul\":6486:6492   */\n      dup3\n        /* \"#utility.yul\":6479:6484   */\n      dup2\n        /* \"#utility.yul\":6472:6493   */\n      mstore\n        /* \"#utility.yul\":6524:6528   */\n      0x20\n        /* \"#utility.yul\":6517:6522   */\n      dup2\n        /* \"#utility.yul\":6513:6529   */\n      add\n        /* \"#utility.yul\":6562:6565   */\n      dup5\n        /* \"#utility.yul\":6553:6559   */\n      dup5\n        /* \"#utility.yul\":6548:6551   */\n      dup5\n        /* \"#utility.yul\":6544:6560   */\n      add\n        /* \"#utility.yul\":6541:6566   */\n      gt\n        /* \"#utility.yul\":6538:6650   */\n      iszero\n      tag_231\n      jumpi\n        /* \"#utility.yul\":6569:6648   */\n      tag_232\n      tag_133\n      jump\t// in\n    tag_232:\n        /* \"#utility.yul\":6538:6650   */\n    tag_231:\n        /* \"#utility.yul\":6659:6713   */\n      tag_233\n        /* \"#utility.yul\":6706:6712   */\n      dup5\n        /* \"#utility.yul\":6701:6704   */\n      dup3\n        /* \"#utility.yul\":6696:6699   */\n      dup6\n        /* \"#utility.yul\":6659:6713   */\n      tag_138\n      jump\t// in\n    tag_233:\n        /* \"#utility.yul\":6378:6719   */\n      pop\n        /* \"#utility.yul\":6294:6719   */\n      swap4\n      swap3\n      pop\n      pop\n      pop\n      jump\t// out\n        /* \"#utility.yul\":6739:7079   */\n    tag_140:\n        /* \"#utility.yul\":6795:6800   */\n      0x00\n        /* \"#utility.yul\":6844:6847   */\n      dup3\n        /* \"#utility.yul\":6837:6841   */\n      0x1f\n        /* \"#utility.yul\":6829:6835   */\n      dup4\n        /* \"#utility.yul\":6825:6842   */\n      add\n        /* \"#utility.yul\":6821:6848   */\n      slt\n        /* \"#utility.yul\":6811:6933   */\n      tag_235\n      jumpi\n        /* \"#utility.yul\":6852:6931   */\n      tag_236\n      tag_132\n      jump\t// in\n    tag_236:\n        /* \"#utility.yul\":6811:6933   */\n    tag_235:\n        /* \"#utility.yul\":6969:6975   */\n      dup2\n        /* \"#utility.yul\":6956:6976   */\n      calldataload\n        /* \"#utility.yul\":6994:7073   */\n      tag_237\n        /* \"#utility.yul\":7069:7072   */\n      dup5\n        /* \"#utility.yul\":7061:7067   */\n      dup3\n        /* \"#utility.yul\":7054:7058   */\n      0x20\n        /* \"#utility.yul\":7046:7052   */\n      dup7\n        /* \"#utility.yul\":7042:7059   */\n      add\n        /* \"#utility.yul\":6994:7073   */\n      tag_139\n      jump\t// in\n    tag_237:\n        /* \"#utility.yul\":6985:7073   */\n      swap2\n      pop\n        /* \"#utility.yul\":6801:7079   */\n      pop\n        /* \"#utility.yul\":6739:7079   */\n      swap3\n      swap2\n      pop\n      pop\n      jump\t// out\n        /* \"#utility.yul\":7085:7594   */\n    tag_56:\n        /* \"#utility.yul\":7154:7160   */\n      0x00\n        /* \"#utility.yul\":7203:7205   */\n      0x20\n        /* \"#utility.yul\":7191:7200   */\n      dup3\n        /* \"#utility.yul\":7182:7189   */\n      dup5\n        /* \"#utility.yul\":7178:7201   */\n      sub\n        /* \"#utility.yul\":7174:7206   */\n      slt\n        /* \"#utility.yul\":7171:7290   */\n      iszero\n      tag_239\n      jumpi\n        /* \"#utility.yul\":7209:7288   */\n      tag_240\n      tag_128\n      jump\t// in\n    tag_240:\n        /* \"#utility.yul\":7171:7290   */\n    tag_239:\n        /* \"#utility.yul\":7357:7358   */\n      0x00\n        /* \"#utility.yul\":7346:7355   */\n      dup3\n        /* \"#utility.yul\":7342:7359   */\n      add\n        /* \"#utility.yul\":7329:7360   */\n      calldataload\n        /* \"#utility.yul\":7387:7405   */\n      0xffffffffffffffff\n        /* \"#utility.yul\":7379:7385   */\n      dup2\n        /* \"#utility.yul\":7376:7406   */\n      gt\n        /* \"#utility.yul\":7373:7490   */\n      iszero\n      tag_241\n      jumpi\n        /* \"#utility.yul\":7409:7488   */\n      tag_242\n      tag_129\n      jump\t// in\n    tag_242:\n        /* \"#utility.yul\":7373:7490   */\n    tag_241:\n        /* \"#utility.yul\":7514:7577   */\n      tag_243\n        /* \"#utility.yul\":7569:7576   */\n      dup5\n        /* \"#utility.yul\":7560:7566   */\n      dup3\n        /* \"#utility.yul\":7549:7558   */\n      dup6\n        /* \"#utility.yul\":7545:7567   */\n      add\n        /* \"#utility.yul\":7514:7577   */\n      tag_140\n      jump\t// in\n    tag_243:\n        /* \"#utility.yul\":7504:7577   */\n      swap2\n      pop\n        /* \"#utility.yul\":7300:7587   */\n      pop\n        /* \"#utility.yul\":7085:7594   */\n      swap3\n      swap2\n      pop\n      pop\n      jump\t// out\n        /* \"#utility.yul\":7600:7676   */\n    tag_141:\n        /* \"#utility.yul\":7636:7643   */\n      0x00\n        /* \"#utility.yul\":7665:7670   */\n      dup2\n        /* \"#utility.yul\":7654:7670   */\n      swap1\n      pop\n        /* \"#utility.yul\":7600:7676   */\n      swap2\n      swap1\n      pop\n      jump\t// out\n        /* \"#utility.yul\":7682:7797   */\n    tag_142:\n        /* \"#utility.yul\":7767:7790   */\n      tag_246\n        /* \"#utility.yul\":7784:7789   */\n      dup2\n        /* \"#utility.yul\":7767:7790   */\n      tag_141\n      jump\t// in\n    tag_246:\n        /* \"#utility.yul\":7762:7765   */\n      dup3\n        /* \"#utility.yul\":7755:7791   */\n      mstore\n        /* \"#utility.yul\":7682:7797   */\n      pop\n      pop\n      jump\t// out\n        /* \"#utility.yul\":7803:8021   */\n    tag_71:\n        /* \"#utility.yul\":7894:7898   */\n      0x00\n        /* \"#utility.yul\":7932:7934   */\n      0x20\n        /* \"#utility.yul\":7921:7930   */\n      dup3\n        /* \"#utility.yul\":7917:7935   */\n      add\n        /* \"#utility.yul\":7909:7935   */\n      swap1\n      pop\n        /* \"#utility.yul\":7945:8014   */\n      tag_248\n        /* \"#utility.yul\":8011:8012   */\n      0x00\n        /* \"#utility.yul\":8000:8009   */\n      dup4\n        /* \"#utility.yul\":7996:8013   */\n      add\n        /* \"#utility.yul\":7987:7993   */\n      dup5\n        /* \"#utility.yul\":7945:8014   */\n      tag_142\n      jump\t// in\n    tag_248:\n        /* \"#utility.yul\":7803:8021   */\n      swap3\n      swap2\n      pop\n      pop\n      jump\t// out\n        /* \"#utility.yul\":8027:8207   */\n    tag_143:\n        /* \"#utility.yul\":8075:8152   */\n      0x4e487b7100000000000000000000000000000000000000000000000000000000\n        /* \"#utility.yul\":8072:8073   */\n      0x00\n        /* \"#utility.yul\":8065:8153   */\n      mstore\n        /* \"#utility.yul\":8172:8176   */\n      0x22\n        /* \"#utility.yul\":8169:8170   */\n      0x04\n        /* \"#utility.yul\":8162:8177   */\n      mstore\n        /* \"#utility.yul\":8196:8200   */\n      0x24\n        /* \"#utility.yul\":8193:8194   */\n      0x00\n        /* \"#utility.yul\":8186:8201   */\n      revert\n        /* \"#utility.yul\":8213:8533   */\n    tag_77:\n        /* \"#utility.yul\":8257:8263   */\n      0x00\n        /* \"#utility.yul\":8294:8295   */\n      0x02\n        /* \"#utility.yul\":8288:8292   */\n      dup3\n        /* \"#utility.yul\":8284:8296   */\n      div\n        /* \"#utility.yul\":8274:8296   */\n      swap1\n      pop\n        /* \"#utility.yul\":8341:8342   */\n      0x01\n        /* \"#utility.yul\":8335:8339   */\n      dup3\n        /* \"#utility.yul\":8331:8343   */\n      and\n        /* \"#utility.yul\":8362:8380   */\n      dup1\n        /* \"#utility.yul\":8352:8433   */\n      tag_251\n      jumpi\n        /* \"#utility.yul\":8418:8422   */\n      0x7f\n        /* \"#utility.yul\":8410:8416   */\n      dup3\n        /* \"#utility.yul\":8406:8423   */\n      and\n        /* \"#utility.yul\":8396:8423   */\n      swap2\n      pop\n        /* \"#utility.yul\":8352:8433   */\n    tag_251:\n        /* \"#utility.yul\":8480:8482   */\n      0x20\n        /* \"#utility.yul\":8472:8478   */\n      dup3\n        /* \"#utility.yul\":8469:8483   */\n      lt\n        /* \"#utility.yul\":8449:8467   */\n      dup2\n        /* \"#utility.yul\":8446:8484   */\n      sub\n        /* \"#utility.yul\":8443:8527   */\n      tag_252\n      jumpi\n        /* \"#utility.yul\":8499:8517   */\n      tag_253\n      tag_143\n      jump\t// in\n    tag_253:\n        /* \"#utility.yul\":8443:8527   */\n    tag_252:\n        /* \"#utility.yul\":8264:8533   */\n      pop\n        /* \"#utility.yul\":8213:8533   */\n      swap2\n      swap1\n      pop\n      jump\t// out\n        /* \"#utility.yul\":8539:8680   */\n    tag_144:\n        /* \"#utility.yul\":8588:8592   */\n      0x00\n        /* \"#utility.yul\":8611:8614   */\n      dup2\n        /* \"#utility.yul\":8603:8614   */\n      swap1\n      pop\n        /* \"#utility.yul\":8634:8637   */\n      dup2\n        /* \"#utility.yul\":8631:8632   */\n      0x00\n        /* \"#utility.yul\":8624:8638   */\n      mstore\n        /* \"#utility.yul\":8668:8672   */\n      0x20\n        /* \"#utility.yul\":8665:8666   */\n      0x00\n        /* \"#utility.yul\":8655:8673   */\n      keccak256\n        /* \"#utility.yul\":8647:8673   */\n      swap1\n      pop\n        /* \"#utility.yul\":8539:8680   */\n      swap2\n      swap1\n      pop\n      jump\t// out\n        /* \"#utility.yul\":8686:8779   */\n    tag_145:\n        /* \"#utility.yul\":8723:8729   */\n      0x00\n        /* \"#utility.yul\":8770:8772   */\n      0x20\n        /* \"#utility.yul\":8765:8767   */\n      0x1f\n        /* \"#utility.yul\":8758:8763   */\n      dup4\n        /* \"#utility.yul\":8754:8768   */\n      add\n        /* \"#utility.yul\":8750:8773   */\n      div\n        /* \"#utility.yul\":8740:8773   */\n      swap1\n      pop\n        /* \"#utility.yul\":8686:8779   */\n      swap2\n      swap1\n      pop\n      jump\t// out\n        /* \"#utility.yul\":8785:8892   */\n    tag_146:\n        /* \"#utility.yul\":8829:8837   */\n      0x00\n        /* \"#utility.yul\":8879:8884   */\n      dup3\n        /* \"#utility.yul\":8873:8877   */\n      dup3\n        /* \"#utility.yul\":8869:8885   */\n      shl\n        /* \"#utility.yul\":8848:8885   */\n      swap1\n      pop\n        /* \"#utility.yul\":8785:8892   */\n      swap3\n      swap2\n      pop\n      pop\n      jump\t// out\n        /* \"#utility.yul\":8898:9291   */\n    tag_147:\n        /* \"#utility.yul\":8967:8973   */\n      0x00\n        /* \"#utility.yul\":9017:9018   */\n      0x08\n        /* \"#utility.yul\":9005:9015   */\n      dup4\n        /* \"#utility.yul\":9001:9019   */\n      mul\n        /* \"#utility.yul\":9040:9137   */\n      tag_258\n        /* \"#utility.yul\":9070:9136   */\n      0xffffffffffffffffffffffffffffffffffffffffffffffffffffffffffffffff\n        /* \"#utility.yul\":9059:9068   */\n      dup3\n        /* \"#utility.yul\":9040:9137   */\n      tag_146\n      jump\t// in\n    tag_258:\n        /* \"#utility.yul\":9158:9197   */\n      tag_259\n        /* \"#utility.yul\":9188:9196   */\n      dup7\n        /* \"#utility.yul\":9177:9186   */\n      dup4\n        /* \"#utility.yul\":9158:9197   */\n      tag_146\n      jump\t// in\n    tag_259:\n        /* \"#utility.yul\":9146:9197   */\n      swap6\n      pop\n        /* \"#utility.yul\":9230:9234   */\n      dup1\n        /* \"#utility.yul\":9226:9235   */\n      not\n        /* \"#utility.yul\":9219:9224   */\n      dup5\n        /* \"#utility.yul\":9215:9236   */\n      and\n        /* \"#utility.yul\":9206:9236   */\n      swap4\n      pop\n        /* \"#utility.yul\":9279:9283   */\n      dup1\n        /* \"#utility.yul\":9269:9277   */\n      dup7\n        /* \"#utility.yul\":9265:9284   */\n      and\n        /* \"#utility.yul\":9258:9263   */\n      dup5\n        /* \"#utility.yul\":9255:9285   */\n      or\n        /* \"#utility.yul\":9245:9285   */\n      swap3\n      pop\n        /* \"#utility.yul\":8974:9291   */\n      pop\n      pop\n        /* \"#utility.yul\":8898:9291   */\n      swap4\n      swap3\n      pop\n      pop\n      pop\n      jump\t// out\n        /* \"#utility.yul\":9297:9357   */\n    tag_148:\n        /* \"#utility.yul\":9325:9328   */\n      0x00\n        /* \"#utility.yul\":9346:9351   */\n      dup2\n        /* \"#utility.yul\":9339:9351   */\n      swap1\n      pop\n        /* \"#utility.yul\":9297:9357   */\n      swap2\n      swap1\n      pop\n      jump\t// out\n        /* \"#utility.yul\":9363:9505   */\n    tag_149:\n        /* \"#utility.yul\":9413:9422   */\n      0x00\n        /* \"#utility.yul\":9446:9499   */\n      tag_262\n        /* \"#utility.yul\":9464:9498   */\n      tag_263\n        /* \"#utility.yul\":9473:9497   */\n      tag_264\n        /* \"#utility.yul\":9491:9496   */\n      dup5\n        /* \"#utility.yul\":9473:9497   */\n      tag_113\n      jump\t// in\n    tag_264:\n        /* \"#utility.yul\":9464:9498   */\n      tag_148\n      jump\t// in\n    tag_263:\n        /* \"#utility.yul\":9446:9499   */\n      tag_113\n      jump\t// in\n    tag_262:\n        /* \"#utility.yul\":9433:9499   */\n      swap1\n      pop\n        /* \"#utility.yul\":9363:9505   */\n      swap2\n      swap1\n      pop\n      jump\t// out\n        /* \"#utility.yul\":9511:9586   */\n    tag_150:\n        /* \"#utility.yul\":9554:9557   */\n      0x00\n        /* \"#utility.yul\":9575:9580   */\n      dup2\n        /* \"#utility.yul\":9568:9580   */\n      swap1\n      pop\n        /* \"#utility.yul\":9511:9586   */\n      swap2\n      swap1\n      pop\n      jump\t// out\n        /* \"#utility.yul\":9592:9861   */\n    tag_151:\n        /* \"#utility.yul\":9702:9741   */\n      tag_267\n        /* \"#utility.yul\":9733:9740   */\n      dup4\n        /* \"#utility.yul\":9702:9741   */\n      tag_149\n      jump\t// in\n    tag_267:\n        /* \"#utility.yul\":9763:9854   */\n      tag_268\n        /* \"#utility.yul\":9812:9853   */\n      tag_269\n        /* \"#utility.yul\":9836:9852   */\n      dup3\n        /* \"#utility.yul\":9812:9853   */\n      tag_150\n      jump\t// in\n    tag_269:\n        /* \"#utility.yul\":9804:9810   */\n      dup5\n        /* \"#utility.yul\":9797:9801   */\n      dup5\n        /* \"#utility.yul\":9791:9802   */\n      sload\n        /* \"#utility.yul\":9763:9854   */\n      tag_147\n      jump\t// in\n    tag_268:\n        /* \"#utility.yul\":9757:9761   */\n      dup3\n        /* \"#utility.yul\":9750:9855   */\n      sstore\n        /* \"#utility.yul\":9668:9861   */\n      pop\n        /* \"#utility.yul\":9592:9861   */\n      pop\n      pop\n      pop\n      jump\t// out\n        /* \"#utility.yul\":9867:9940   */\n    tag_152:\n        /* \"#utility.yul\":9912:9915   */\n      0x00\n        /* \"#utility.yul\":9933:9934   */\n      0x00\n        /* \"#utility.yul\":9926:9934   */\n      swap1\n      pop\n        /* \"#utility.yul\":9867:9940   */\n      swap1\n      jump\t// out\n        /* \"#utility.yul\":9946:10135   */\n    tag_153:\n        /* \"#utility.yul\":10023:10055   */\n      tag_272\n      tag_152\n      jump\t// in\n    tag_272:\n        /* \"#utility.yul\":10064:10129   */\n      tag_273\n        /* \"#utility.yul\":10122:10128   */\n      dup2\n        /* \"#utility.yul\":10114:10120   */\n      dup5\n        /* \"#utility.yul\":10108:10112   */\n      dup5\n        /* \"#utility.yul\":10064:10129   */\n      tag_151\n      jump\t// in\n    tag_273:\n        /* \"#utility.yul\":9999:10135   */\n      pop\n        /* \"#utility.yul\":9946:10135   */\n      pop\n      pop\n      jump\t// out\n        /* \"#utility.yul\":10141:10327   */\n    tag_154:\n        /* \"#utility.yul\":10201:10321   */\n    tag_275:\n        /* \"#utility.yul\":10218:10221   */\n      dup2\n        /* \"#utility.yul\":10211:10216   */\n      dup2\n        /* \"#utility.yul\":10208:10222   */\n      lt\n        /* \"#utility.yul\":10201:10321   */\n      iszero\n      tag_277\n      jumpi\n        /* \"#utility.yul\":10272:10311   */\n      tag_278\n        /* \"#utility.yul\":10309:10310   */\n      0x00\n        /* \"#utility.yul\":10302:10307   */\n      dup3\n        /* \"#utility.yul\":10272:10311   */\n      tag_153\n      jump\t// in\n    tag_278:\n        /* \"#utility.yul\":10245:10246   */\n      0x01\n        /* \"#utility.yul\":10238:10243   */\n      dup2\n        /* \"#utility.yul\":10234:10247   */\n      add\n        /* \"#utility.yul\":10225:10247   */\n      swap1\n      pop\n        /* \"#utility.yul\":10201:10321   */\n      jump(tag_275)\n    tag_277:\n        /* \"#utility.yul\":10141:10327   */\n      pop\n      pop\n      jump\t// out\n        /* \"#utility.yul\":10333:10876   */\n    tag_155:\n        /* \"#utility.yul\":10434:10436   */\n      0x1f\n        /* \"#utility.yul\":10429:10432   */\n      dup3\n        /* \"#utility.yul\":10426:10437   */\n      gt\n        /* \"#utility.yul\":10423:10869   */\n      iszero\n      tag_280\n      jumpi\n        /* \"#utility.yul\":10468:10506   */\n      tag_281\n        /* \"#utility.yul\":10500:10505   */\n      dup2\n        /* \"#utility.yul\":10468:10506   */\n      tag_144\n      jump\t// in\n    tag_281:\n        /* \"#utility.yul\":10552:10581   */\n      tag_282\n        /* \"#utility.yul\":10570:10580   */\n      dup5\n        /* \"#utility.yul\":10552:10581   */\n      tag_145\n      jump\t// in\n    tag_282:\n        /* \"#utility.yul\":10542:10550   */\n      dup2\n        /* \"#utility.yul\":10538:10582   */\n      add\n        /* \"#utility.yul\":10735:10737   */\n      0x20\n        /* \"#utility.yul\":10723:10733   */\n      dup6\n        /* \"#utility.yul\":10720:10738   */\n      lt\n        /* \"#utility.yul\":10717:10766   */\n      iszero\n      tag_283\n      jumpi\n        /* \"#utility.yul\":10756:10764   */\n      dup2\n        /* \"#utility.yul\":10741:10764   */\n      swap1\n      pop\n        /* \"#utility.yul\":10717:10766   */\n    tag_283:\n        /* \"#utility.yul\":10779:10859   */\n      tag_284\n        /* \"#utility.yul\":10835:10857   */\n      tag_285\n        /* \"#utility.yul\":10853:10856   */\n      dup6\n        /* \"#utility.yul\":10835:10857   */\n      tag_145\n      jump\t// in\n    tag_285:\n        /* \"#utility.yul\":10825:10833   */\n      dup4\n        /* \"#utility.yul\":10821:10858   */\n      add\n        /* \"#utility.yul\":10808:10819   */\n      dup3\n        /* \"#utility.yul\":10779:10859   */\n      tag_154\n      jump\t// in\n    tag_284:\n        /* \"#utility.yul\":10438:10869   */\n      pop\n      pop\n        /* \"#utility.yul\":10423:10869   */\n    tag_280:\n        /* \"#utility.yul\":10333:10876   */\n      pop\n      pop\n      pop\n      jump\t// out\n        /* \"#utility.yul\":10882:10999   */\n    tag_156:\n        /* \"#utility.yul\":10936:10944   */\n      0x00\n        /* \"#utility.yul\":10986:10991   */\n      dup3\n        /* \"#utility.yul\":10980:10984   */\n      dup3\n        /* \"#utility.yul\":10976:10992   */\n      shr\n        /* \"#utility.yul\":10955:10992   */\n      swap1\n      pop\n        /* \"#utility.yul\":10882:10999   */\n      swap3\n      swap2\n      pop\n      pop\n      jump\t// out\n        /* \"#utility.yul\":11005:11174   */\n    tag_157:\n        /* \"#utility.yul\":11049:11055   */\n      0x00\n        /* \"#utility.yul\":11082:11133   */\n      tag_288\n        /* \"#utility.yul\":11130:11131   */\n      0x00\n        /* \"#utility.yul\":11126:11132   */\n      not\n        /* \"#utility.yul\":11118:11123   */\n      dup5\n        /* \"#utility.yul\":11115:11116   */\n      0x08\n        /* \"#utility.yul\":11111:11124   */\n      mul\n        /* \"#utility.yul\":11082:11133   */\n      tag_156\n      jump\t// in\n    tag_288:\n        /* \"#utility.yul\":11078:11134   */\n      not\n        /* \"#utility.yul\":11163:11167   */\n      dup1\n        /* \"#utility.yul\":11157:11161   */\n      dup4\n        /* \"#utility.yul\":11153:11168   */\n      and\n        /* \"#utility.yul\":11143:11168   */\n      swap2\n      pop\n        /* \"#utility.yul\":11056:11174   */\n      pop\n        /* \"#utility.yul\":11005:11174   */\n      swap3\n      swap2\n      pop\n      pop\n      jump\t// out\n        /* \"#utility.yul\":11179:11474   */\n    tag_158:\n        /* \"#utility.yul\":11255:11259   */\n      0x00\n        /* \"#utility.yul\":11401:11430   */\n      tag_290\n        /* \"#utility.yul\":11426:11429   */\n      dup4\n        /* \"#utility.yul\":11420:11424   */\n      dup4\n        /* \"#utility.yul\":11401:11430   */\n      tag_157\n      jump\t// in\n    tag_290:\n        /* \"#utility.yul\":11393:11430   */\n      swap2\n      pop\n        /* \"#utility.yul\":11463:11466   */\n      dup3\n        /* \"#utility.yul\":11460:11461   */\n      0x02\n        /* \"#utility.yul\":11456:11467   */\n      mul\n        /* \"#utility.yul\":11450:11454   */\n      dup3\n        /* \"#utility.yul\":11447:11468   */\n      or\n        /* \"#utility.yul\":11439:11468   */\n      swap1\n      pop\n        /* \"#utility.yul\":11179:11474   */\n      swap3\n      swap2\n      pop\n      pop\n      jump\t// out\n        /* \"#utility.yul\":11479:12874   */\n    tag_97:\n        /* \"#utility.yul\":11596:11633   */\n      tag_292\n        /* \"#utility.yul\":11629:11632   */\n      dup3\n        /* \"#utility.yul\":11596:11633   */\n      tag_115\n      jump\t// in\n    tag_292:\n        /* \"#utility.yul\":11698:11716   */\n      0xffffffffffffffff\n        /* \"#utility.yul\":11690:11696   */\n      dup2\n        /* \"#utility.yul\":11687:11717   */\n      gt\n        /* \"#utility.yul\":11684:11740   */\n      iszero\n      tag_293\n      jumpi\n        /* \"#utility.yul\":11720:11738   */\n      tag_294\n      tag_134\n      jump\t// in\n    tag_294:\n        /* \"#utility.yul\":11684:11740   */\n    tag_293:\n        /* \"#utility.yul\":11764:11802   */\n      tag_295\n        /* \"#utility.yul\":11796:11800   */\n      dup3\n        /* \"#utility.yul\":11790:11801   */\n      sload\n        /* \"#utility.yul\":11764:11802   */\n      tag_77\n      jump\t// in\n    tag_295:\n        /* \"#utility.yul\":11849:11916   */\n      tag_296\n        /* \"#utility.yul\":11909:11915   */\n      dup3\n        /* \"#utility.yul\":11901:11907   */\n      dup3\n        /* \"#utility.yul\":11895:11899   */\n      dup6\n        /* \"#utility.yul\":11849:11916   */\n      tag_155\n      jump\t// in\n    tag_296:\n        /* \"#utility.yul\":11943:11944   */\n      0x00\n        /* \"#utility.yul\":11967:11971   */\n      0x20\n        /* \"#utility.yul\":11954:11971   */\n      swap1\n      pop\n        /* \"#utility.yul\":11999:12001   */\n      0x1f\n        /* \"#utility.yul\":11991:11997   */\n      dup4\n        /* \"#utility.yul\":11988:12002   */\n      gt\n        /* \"#utility.yul\":12016:12017   */\n      0x01\n        /* \"#utility.yul\":12011:12629   */\n      dup2\n      eq\n      tag_298\n      jumpi\n        /* \"#utility.yul\":12673:12674   */\n      0x00\n        /* \"#utility.yul\":12690:12696   */\n      dup5\n        /* \"#utility.yul\":12687:12764   */\n      iszero\n      tag_299\n      jumpi\n        /* \"#utility.yul\":12739:12748   */\n      dup3\n        /* \"#utility.yul\":12734:12737   */\n      dup8\n        /* \"#utility.yul\":12730:12749   */\n      add\n        /* \"#utility.yul\":12724:12750   */\n      mload\n        /* \"#utility.yul\":12715:12750   */\n      swap1\n      pop\n        /* \"#utility.yul\":12687:12764   */\n    tag_299:\n        /* \"#utility.yul\":12790:12857   */\n      tag_300\n        /* \"#utility.yul\":12850:12856   */\n      dup6\n        /* \"#utility.yul\":12843:12848   */\n      dup3\n        /* \"#utility.yul\":12790:12857   */\n      tag_158\n      jump\t// in\n    tag_300:\n        /* \"#utility.yul\":12784:12788   */\n      dup7\n        /* \"#utility.yul\":12777:12858   */\n      sstore\n        /* \"#utility.yul\":12646:12868   */\n      pop\n        /* \"#utility.yul\":11981:12868   */\n      jump(tag_297)\n        /* \"#utility.yul\":12011:12629   */\n    tag_298:\n        /* \"#utility.yul\":12063:12067   */\n      0x1f\n        /* \"#utility.yul\":12059:12068   */\n      not\n        /* \"#utility.yul\":12051:12057   */\n      dup5\n        /* \"#utility.yul\":12047:12069   */\n      and\n        /* \"#utility.yul\":12097:12134   */\n      tag_301\n        /* \"#utility.yul\":12129:12133   */\n      dup7\n        /* \"#utility.yul\":12097:12134   */\n      tag_144\n      jump\t// in\n    tag_301:\n        /* \"#utility.yul\":12156:12157   */\n      0x00\n        /* \"#utility.yul\":12170:12378   */\n    tag_302:\n        /* \"#utility.yul\":12184:12191   */\n      dup3\n        /* \"#utility.yul\":12181:12182   */\n      dup2\n        /* \"#utility.yul\":12178:12192   */\n      lt\n        /* \"#utility.yul\":12170:12378   */\n      iszero\n      tag_304\n      jumpi\n        /* \"#utility.yul\":12263:12272   */\n      dup5\n        /* \"#utility.yul\":12258:12261   */\n      dup10\n        /* \"#utility.yul\":12254:12273   */\n      add\n        /* \"#utility.yul\":12248:12274   */\n      mload\n        /* \"#utility.yul\":12240:12246   */\n      dup3\n        /* \"#utility.yul\":12233:12275   */\n      sstore\n        /* \"#utility.yul\":12314:12315   */\n      0x01\n        /* \"#utility.yul\":12306:12312   */\n      dup3\n        /* \"#utility.yul\":12302:12316   */\n      add\n        /* \"#utility.yul\":12292:12316   */\n      swap2\n      pop\n        /* \"#utility.yul\":12361:12363   */\n      0x20\n        /* \"#utility.yul\":12350:12359   */\n      dup6\n        /* \"#utility.yul\":12346:12364   */\n      add\n        /* \"#utility.yul\":12333:12364   */\n      swap5\n      pop\n        /* \"#utility.yul\":12207:12211   */\n      0x20\n        /* \"#utility.yul\":12204:12205   */\n      dup2\n        /* \"#utility.yul\":12200:12212   */\n      add\n        /* \"#utility.yul\":12195:12212   */\n      swap1\n      pop\n        /* \"#utility.yul\":12170:12378   */\n      jump(tag_302)\n    tag_304:\n        /* \"#utility.yul\":12406:12412   */\n      dup7\n        /* \"#utility.yul\":12397:12404   */\n      dup4\n        /* \"#utility.yul\":12394:12413   */\n      lt\n        /* \"#utility.yul\":12391:12570   */\n      iszero\n      tag_305\n      jumpi\n        /* \"#utility.yul\":12464:12473   */\n      dup5\n        /* \"#utility.yul\":12459:12462   */\n      dup10\n        /* \"#utility.yul\":12455:12474   */\n      add\n        /* \"#utility.yul\":12449:12475   */\n      mload\n        /* \"#utility.yul\":12507:12555   */\n      tag_306\n        /* \"#utility.yul\":12549:12553   */\n      0x1f\n        /* \"#utility.yul\":12541:12547   */\n      dup10\n        /* \"#utility.yul\":12537:12554   */\n      and\n        /* \"#utility.yul\":12526:12535   */\n      dup3\n        /* \"#utility.yul\":12507:12555   */\n      tag_157\n      jump\t// in\n    tag_306:\n        /* \"#utility.yul\":12499:12505   */\n      dup4\n        /* \"#utility.yul\":12492:12556   */\n      sstore\n        /* \"#utility.yul\":12414:12570   */\n      pop\n        /* \"#utility.yul\":12391:12570   */\n    tag_305:\n        /* \"#utility.yul\":12616:12617   */\n      0x01\n        /* \"#utility.yul\":12612:12613   */\n      0x02\n        /* \"#utility.yul\":12604:12610   */\n      dup9\n        /* \"#utility.yul\":12600:12614   */\n      mul\n        /* \"#utility.yul\":12596:12618   */\n      add\n        /* \"#utility.yul\":12590:12594   */\n      dup9\n        /* \"#utility.yul\":12583:12619   */\n      sstore\n        /* \"#utility.yul\":12018:12629   */\n      pop\n      pop\n      pop\n        /* \"#utility.yul\":11981:12868   */\n    tag_297:\n      pop\n        /* \"#utility.yul\":11571:12874   */\n      pop\n      pop\n      pop\n        /* \"#utility.yul\":11479:12874   */\n      pop\n      pop\n      jump\t// out\n\n    auxdata: 0xa2646970667358221220d19861c750049548c5a0a7fa5f31db13e9c20c2b9554ae4af23afa08f672841064736f6c634300081e0033\n}\n",
				"bytecode": {
					"linkReferences": {},
					"object": "608060405260075f55600a60015f6101000a81548160ff021916908360ff1602179055507fffffffffffffffffffffffffffffffffffffffffffffffffffffffffffffffff6002556040518060400160405280600f81526020017f4d7920666972737420737472696e6700000000000000000000000000000000008152506003908161008b91906106b5565b507f48656c6c6f2c20576f726c642100000000000000000000000000000000000000600455730fc5025c764ce34df352757e82f7b5c4df39a83660055f6101000a81548173ffffffffffffffffffffffffffffffffffffffff021916908373ffffffffffffffffffffffffffffffffffffffff1602179055506040518060400160405280600181526020016040518060400160405280600f81526020017f48656c6c6f2c205374727563742121000000000000000000000000000000000081525081525060065f820151815f0155602082015181600101908161016e91906106b5565b5050506040518060600160405280600160ff168152602001600260ff168152602001602960ff1681525060089060036101a89291906102bc565b5060405180604001604052806040518060400160405280600581526020017f52616a616e00000000000000000000000000000000000000000000000000000081525081526020016040518060400160405280600481526020017f5375616e00000000000000000000000000000000000000000000000000000000815250815250600990600261023892919061030c565b5060405180604001604052806040518060600160405280600160ff168152602001600260ff168152602001600360ff1681525081526020016040518060600160405280600560ff168152602001600660ff168152602001600760ff16815250815250600b9060026102aa929190610363565b503480156102b6575f5ffd5b50610784565b828054828255905f5260205f209081019282156102fb579160200282015b828111156102fa578251829060ff169055916020019190600101906102da565b5b50905061030891906103bc565b5090565b828054828255905f5260205f20908101928215610352579160200282015b8281111561035157825182908161034191906106b5565b509160200191906001019061032a565b5b50905061035f91906103d7565b5090565b828054828255905f5260205f209081019282156103ab579160200282015b828111156103aa5782518290600361039a9291906102bc565b5091602001919060010190610381565b5b5090506103b891906103fa565b5090565b5b808211156103d3575f815f9055506001016103bd565b5090565b5b808211156103f6575f81816103ed919061041d565b506001016103d8565b5090565b5b80821115610419575f8181610410919061045a565b506001016103fb565b5090565b508054610429906104dc565b5f825580601f1061043a5750610457565b601f0160209004905f5260205f209081019061045691906103bc565b5b50565b5080545f8255905f5260205f209081019061047591906103bc565b50565b5f81519050919050565b7f4e487b71000000000000000000000000000000000000000000000000000000005f52604160045260245ffd5b7f4e487b71000000000000000000000000000000000000000000000000000000005f52602260045260245ffd5b5f60028204905060018216806104f357607f821691505b602082108103610506576105056104af565b5b50919050565b5f819050815f5260205f209050919050565b5f6020601f8301049050919050565b5f82821b905092915050565b5f600883026105687fffffffffffffffffffffffffffffffffffffffffffffffffffffffffffffffff8261052d565b610572868361052d565b95508019841693508086168417925050509392505050565b5f819050919050565b5f819050919050565b5f6105b66105b16105ac8461058a565b610593565b61058a565b9050919050565b5f819050919050565b6105cf8361059c565b6105e36105db826105bd565b848454610539565b825550505050565b5f5f905090565b6105fa6105eb565b6106058184846105c6565b505050565b5b818110156106285761061d5f826105f2565b60018101905061060b565b5050565b601f82111561066d5761063e8161050c565b6106478461051e565b81016020851015610656578190505b61066a6106628561051e565b83018261060a565b50505b505050565b5f82821c905092915050565b5f61068d5f1984600802610672565b1980831691505092915050565b5f6106a5838361067e565b9150826002028217905092915050565b6106be82610478565b67ffffffffffffffff8111156106d7576106d6610482565b5b6106e182546104dc565b6106ec82828561062c565b5f60209050601f83116001811461071d575f841561070b578287015190505b610715858261069a565b86555061077c565b601f19841661072b8661050c565b5f5b828110156107525784890151825560018201915060208501945060208101905061072d565b8683101561076f578489015161076b601f89168261067e565b8355505b6001600288020188555050505b505050505050565b610d28806107915f395ff3fe608060405234801561000f575f5ffd5b50600436106100e8575f3560e01c80637dd6b6bc1161008a578063b28baa1d11610064578063b28baa1d1461024d578063b7a919cb1461026b578063c64f873a14610289578063cc3e57d9146102a7576100e8565b80637dd6b6bc146101d15780639874f5d7146102015780639ae918c71461021d576100e8565b8063311186f3116100c6578063311186f3146101475780634b3e7e0c1461016557806361bc221a146101835780636422c4c8146101a1576100e8565b8063046a2f89146100ec578063209652551461010b57806326b85ee114610129575b5f5ffd5b6100f46102d7565b6040516101029291906106ba565b60405180910390f35b61011361036e565b60405161012091906106e8565b60405180910390f35b61013161037b565b60405161013e9190610740565b60405180910390f35b61014f6103a0565b60405161015c9190610774565b60405180910390f35b61016d6103b2565b60405161017a91906107a5565b60405180910390f35b61018b6103b8565b60405161019891906106e8565b60405180910390f35b6101bb60048036038101906101b691906107f9565b6103bd565b6040516101c89190610824565b60405180910390f35b6101eb60048036038101906101e69190610844565b610463565b6040516101f891906106e8565b60405180910390f35b61021b600480360381019061021691906109ae565b610499565b005b610237600480360381019061023291906107f9565b6104ce565b60405161024491906106e8565b60405180910390f35b6102556104ee565b60405161026291906106e8565b60405180910390f35b6102736104fa565b6040516102809190610824565b60405180910390f35b610291610586565b60405161029e9190610a0d565b60405180910390f35b6102c160048036038101906102bc91906107f9565b61058c565b6040516102ce9190610824565b60405180910390f35b6006805f0154908060010180546102ed90610a53565b80601f016020809104026020016040519081016040528092919081815260200182805461031990610a53565b80156103645780601f1061033b57610100808354040283529160200191610364565b820191905f5260205f20905b81548152906001019060200180831161034757829003601f168201915b5050505050905082565b5f5f600790508091505090565b60055f9054906101000a900473ffffffffffffffffffffffffffffffffffffffff1681565b60015f9054906101000a900460ff1681565b60045481565b5f5481565b600981815481106103cc575f80fd5b905f5260205f20015f9150905080546103e490610a53565b80601f016020809104026020016040519081016040528092919081815260200182805461041090610a53565b801561045b5780601f106104325761010080835404028352916020019161045b565b820191905f5260205f20905b81548152906001019060200180831161043e57829003601f168201915b505050505081565b600b8281548110610472575f80fd5b905f5260205f20018181548110610487575f80fd5b905f5260205f20015f91509150505481565b600a81908060018154018082558091505060019003905f5260205f20015f9091909190915090816104ca9190610c23565b5050565b600881815481106104dd575f80fd5b905f5260205f20015f915090505481565b5f600a80549050905090565b6003805461050790610a53565b80601f016020809104026020016040519081016040528092919081815260200182805461053390610a53565b801561057e5780601f106105555761010080835404028352916020019161057e565b820191905f5260205f20905b81548152906001019060200180831161056157829003601f168201915b505050505081565b60025481565b600a818154811061059b575f80fd5b905f5260205f20015f9150905080546105b390610a53565b80601f01602080910402602001604051908101604052809291908181526020018280546105df90610a53565b801561062a5780601f106106015761010080835404028352916020019161062a565b820191905f5260205f20905b81548152906001019060200180831161060d57829003601f168201915b505050505081565b5f819050919050565b61064481610632565b82525050565b5f81519050919050565b5f82825260208201905092915050565b8281835e5f83830152505050565b5f601f19601f8301169050919050565b5f61068c8261064a565b6106968185610654565b93506106a6818560208601610664565b6106af81610672565b840191505092915050565b5f6040820190506106cd5f83018561063b565b81810360208301526106df8184610682565b90509392505050565b5f6020820190506106fb5f83018461063b565b92915050565b5f73ffffffffffffffffffffffffffffffffffffffff82169050919050565b5f61072a82610701565b9050919050565b61073a81610720565b82525050565b5f6020820190506107535f830184610731565b92915050565b5f60ff82169050919050565b61076e81610759565b82525050565b5f6020820190506107875f830184610765565b92915050565b5f819050919050565b61079f8161078d565b82525050565b5f6020820190506107b85f830184610796565b92915050565b5f604051905090565b5f5ffd5b5f5ffd5b6107d881610632565b81146107e2575f5ffd5b50565b5f813590506107f3816107cf565b92915050565b5f6020828403121561080e5761080d6107c7565b5b5f61081b848285016107e5565b91505092915050565b5f6020820190508181035f83015261083c8184610682565b905092915050565b5f5f6040838503121561085a576108596107c7565b5b5f610867858286016107e5565b9250506020610878858286016107e5565b9150509250929050565b5f5ffd5b5f5ffd5b7f4e487b71000000000000000000000000000000000000000000000000000000005f52604160045260245ffd5b6108c082610672565b810181811067ffffffffffffffff821117156108df576108de61088a565b5b80604052505050565b5f6108f16107be565b90506108fd82826108b7565b919050565b5f67ffffffffffffffff82111561091c5761091b61088a565b5b61092582610672565b9050602081019050919050565b828183375f83830152505050565b5f61095261094d84610902565b6108e8565b90508281526020810184848401111561096e5761096d610886565b5b610979848285610932565b509392505050565b5f82601f83011261099557610994610882565b5b81356109a5848260208601610940565b91505092915050565b5f602082840312156109c3576109c26107c7565b5b5f82013567ffffffffffffffff8111156109e0576109df6107cb565b5b6109ec84828501610981565b91505092915050565b5f819050919050565b610a07816109f5565b82525050565b5f602082019050610a205f8301846109fe565b92915050565b7f4e487b71000000000000000000000000000000000000000000000000000000005f52602260045260245ffd5b5f6002820490506001821680610a6a57607f821691505b602082108103610a7d57610a7c610a26565b5b50919050565b5f819050815f5260205f209050919050565b5f6020601f8301049050919050565b5f82821b905092915050565b5f60088302610adf7fffffffffffffffffffffffffffffffffffffffffffffffffffffffffffffffff82610aa4565b610ae98683610aa4565b95508019841693508086168417925050509392505050565b5f819050919050565b5f610b24610b1f610b1a84610632565b610b01565b610632565b9050919050565b5f819050919050565b610b3d83610b0a565b610b51610b4982610b2b565b848454610ab0565b825550505050565b5f5f905090565b610b68610b59565b610b73818484610b34565b505050565b5b81811015610b9657610b8b5f82610b60565b600181019050610b79565b5050565b601f821115610bdb57610bac81610a83565b610bb584610a95565b81016020851015610bc4578190505b610bd8610bd085610a95565b830182610b78565b50505b505050565b5f82821c905092915050565b5f610bfb5f1984600802610be0565b1980831691505092915050565b5f610c138383610bec565b9150826002028217905092915050565b610c2c8261064a565b67ffffffffffffffff811115610c4557610c4461088a565b5b610c4f8254610a53565b610c5a828285610b9a565b5f60209050601f831160018114610c8b575f8415610c79578287015190505b610c838582610c08565b865550610cea565b601f198416610c9986610a83565b5f5b82811015610cc057848901518255600182019150602085019450602081019050610c9b565b86831015610cdd5784890151610cd9601f891682610bec565b8355505b6001600288020188555050505b50505050505056fea2646970667358221220d19861c750049548c5a0a7fa5f31db13e9c20c2b9554ae4af23afa08f672841064736f6c634300081e0033",
					"opcodes": "PUSH1 0x80 PUSH1 0x40 MSTORE PUSH1 0x7 PUSH0 SSTORE PUSH1 0xA PUSH1 0x1 PUSH0 PUSH2 0x100 EXP DUP2 SLOAD DUP2 PUSH1 0xFF MUL NOT AND SWAP1 DUP4 PUSH1 0xFF AND MUL OR SWAP1 SSTORE POP PUSH32 0xFFFFFFFFFFFFFFFFFFFFFFFFFFFFFFFFFFFFFFFFFFFFFFFFFFFFFFFFFFFFFFFF PUSH1 0x2 SSTORE PUSH1 0x40 MLOAD DUP1 PUSH1 0x40 ADD PUSH1 0x40 MSTORE DUP1 PUSH1 0xF DUP2 MSTORE PUSH1 0x20 ADD PUSH32 0x4D7920666972737420737472696E670000000000000000000000000000000000 DUP2 MSTORE POP PUSH1 0x3 SWAP1 DUP2 PUSH2 0x8B SWAP2 SWAP1 PUSH2 0x6B5 JUMP JUMPDEST POP PUSH32 0x48656C6C6F2C20576F726C642100000000000000000000000000000000000000 PUSH1 0x4 SSTORE PUSH20 0xFC5025C764CE34DF352757E82F7B5C4DF39A836 PUSH1 0x5 PUSH0 PUSH2 0x100 EXP DUP2 SLOAD DUP2 PUSH20 0xFFFFFFFFFFFFFFFFFFFFFFFFFFFFFFFFFFFFFFFF MUL NOT AND SWAP1 DUP4 PUSH20 0xFFFFFFFFFFFFFFFFFFFFFFFFFFFFFFFFFFFFFFFF AND MUL OR SWAP1 SSTORE POP PUSH1 0x40 MLOAD DUP1 PUSH1 0x40 ADD PUSH1 0x40 MSTORE DUP1 PUSH1 0x1 DUP2 MSTORE PUSH1 0x20 ADD PUSH1 0x40 MLOAD DUP1 PUSH1 0x40 ADD PUSH1 0x40 MSTORE DUP1 PUSH1 0xF DUP2 MSTORE PUSH1 0x20 ADD PUSH32 0x48656C6C6F2C2053747275637421210000000000000000000000000000000000 DUP2 MSTORE POP DUP2 MSTORE POP PUSH1 0x6 PUSH0 DUP3 ADD MLOAD DUP2 PUSH0 ADD SSTORE PUSH1 0x20 DUP3 ADD MLOAD DUP2 PUSH1 0x1 ADD SWAP1 DUP2 PUSH2 0x16E SWAP2 SWAP1 PUSH2 0x6B5 JUMP JUMPDEST POP POP POP PUSH1 0x40 MLOAD DUP1 PUSH1 0x60 ADD PUSH1 0x40 MSTORE DUP1 PUSH1 0x1 PUSH1 0xFF AND DUP2 MSTORE PUSH1 0x20 ADD PUSH1 0x2 PUSH1 0xFF AND DUP2 MSTORE PUSH1 0x20 ADD PUSH1 0x29 PUSH1 0xFF AND DUP2 MSTORE POP PUSH1 0x8 SWAP1 PUSH1 0x3 PUSH2 0x1A8 SWAP3 SWAP2 SWAP1 PUSH2 0x2BC JUMP JUMPDEST POP PUSH1 0x40 MLOAD DUP1 PUSH1 0x40 ADD PUSH1 0x40 MSTORE DUP1 PUSH1 0x40 MLOAD DUP1 PUSH1 0x40 ADD PUSH1 0x40 MSTORE DUP1 PUSH1 0x5 DUP2 MSTORE PUSH1 0x20 ADD PUSH32 0x52616A616E000000000000000000000000000000000000000000000000000000 DUP2 MSTORE POP DUP2 MSTORE PUSH1 0x20 ADD PUSH1 0x40 MLOAD DUP1 PUSH1 0x40 ADD PUSH1 0x40 MSTORE DUP1 PUSH1 0x4 DUP2 MSTORE PUSH1 0x20 ADD PUSH32 0x5375616E00000000000000000000000000000000000000000000000000000000 DUP2 MSTORE POP DUP2 MSTORE POP PUSH1 0x9 SWAP1 PUSH1 0x2 PUSH2 0x238 SWAP3 SWAP2 SWAP1 PUSH2 0x30C JUMP JUMPDEST POP PUSH1 0x40 MLOAD DUP1 PUSH1 0x40 ADD PUSH1 0x40 MSTORE DUP1 PUSH1 0x40 MLOAD DUP1 PUSH1 0x60 ADD PUSH1 0x40 MSTORE DUP1 PUSH1 0x1 PUSH1 0xFF AND DUP2 MSTORE PUSH1 0x20 ADD PUSH1 0x2 PUSH1 0xFF AND DUP2 MSTORE PUSH1 0x20 ADD PUSH1 0x3 PUSH1 0xFF AND DUP2 MSTORE POP DUP2 MSTORE PUSH1 0x20 ADD PUSH1 0x40 MLOAD DUP1 PUSH1 0x60 ADD PUSH1 0x40 MSTORE DUP1 PUSH1 0x5 PUSH1 0xFF AND DUP2 MSTORE PUSH1 0x20 ADD PUSH1 0x6 PUSH1 0xFF AND DUP2 MSTORE PUSH1 0x20 ADD PUSH1 0x7 PUSH1 0xFF AND DUP2 MSTORE POP DUP2 MSTORE POP PUSH1 0xB SWAP1 PUSH1 0x2 PUSH2 0x2AA SWAP3 SWAP2 SWAP1 PUSH2 0x363 JUMP JUMPDEST POP CALLVALUE DUP1 ISZERO PUSH2 0x2B6 JUMPI PUSH0 PUSH0 REVERT JUMPDEST POP PUSH2 0x784 JUMP JUMPDEST DUP3 DUP1 SLOAD DUP3 DUP3 SSTORE SWAP1 PUSH0 MSTORE PUSH1 0x20 PUSH0 KECCAK256 SWAP1 DUP2 ADD SWAP3 DUP3 ISZERO PUSH2 0x2FB JUMPI SWAP2 PUSH1 0x20 MUL DUP3 ADD JUMPDEST DUP3 DUP2 GT ISZERO PUSH2 0x2FA JUMPI DUP3 MLOAD DUP3 SWAP1 PUSH1 0xFF AND SWAP1 SSTORE SWAP2 PUSH1 0x20 ADD SWAP2 SWAP1 PUSH1 0x1 ADD SWAP1 PUSH2 0x2DA JUMP JUMPDEST JUMPDEST POP SWAP1 POP PUSH2 0x308 SWAP2 SWAP1 PUSH2 0x3BC JUMP JUMPDEST POP SWAP1 JUMP JUMPDEST DUP3 DUP1 SLOAD DUP3 DUP3 SSTORE SWAP1 PUSH0 MSTORE PUSH1 0x20 PUSH0 KECCAK256 SWAP1 DUP2 ADD SWAP3 DUP3 ISZERO PUSH2 0x352 JUMPI SWAP2 PUSH1 0x20 MUL DUP3 ADD JUMPDEST DUP3 DUP2 GT ISZERO PUSH2 0x351 JUMPI DUP3 MLOAD DUP3 SWAP1 DUP2 PUSH2 0x341 SWAP2 SWAP1 PUSH2 0x6B5 JUMP JUMPDEST POP SWAP2 PUSH1 0x20 ADD SWAP2 SWAP1 PUSH1 0x1 ADD SWAP1 PUSH2 0x32A JUMP JUMPDEST JUMPDEST POP SWAP1 POP PUSH2 0x35F SWAP2 SWAP1 PUSH2 0x3D7 JUMP JUMPDEST POP SWAP1 JUMP JUMPDEST DUP3 DUP1 SLOAD DUP3 DUP3 SSTORE SWAP1 PUSH0 MSTORE PUSH1 0x20 PUSH0 KECCAK256 SWAP1 DUP2 ADD SWAP3 DUP3 ISZERO PUSH2 0x3AB JUMPI SWAP2 PUSH1 0x20 MUL DUP3 ADD JUMPDEST DUP3 DUP2 GT ISZERO PUSH2 0x3AA JUMPI DUP3 MLOAD DUP3 SWAP1 PUSH1 0x3 PUSH2 0x39A SWAP3 SWAP2 SWAP1 PUSH2 0x2BC JUMP JUMPDEST POP SWAP2 PUSH1 0x20 ADD SWAP2 SWAP1 PUSH1 0x1 ADD SWAP1 PUSH2 0x381 JUMP JUMPDEST JUMPDEST POP SWAP1 POP PUSH2 0x3B8 SWAP2 SWAP1 PUSH2 0x3FA JUMP JUMPDEST POP SWAP1 JUMP JUMPDEST JUMPDEST DUP1 DUP3 GT ISZERO PUSH2 0x3D3 JUMPI PUSH0 DUP2 PUSH0 SWAP1 SSTORE POP PUSH1 0x1 ADD PUSH2 0x3BD JUMP JUMPDEST POP SWAP1 JUMP JUMPDEST JUMPDEST DUP1 DUP3 GT ISZERO PUSH2 0x3F6 JUMPI PUSH0 DUP2 DUP2 PUSH2 0x3ED SWAP2 SWAP1 PUSH2 0x41D JUMP JUMPDEST POP PUSH1 0x1 ADD PUSH2 0x3D8 JUMP JUMPDEST POP SWAP1 JUMP JUMPDEST JUMPDEST DUP1 DUP3 GT ISZERO PUSH2 0x419 JUMPI PUSH0 DUP2 DUP2 PUSH2 0x410 SWAP2 SWAP1 PUSH2 0x45A JUMP JUMPDEST POP PUSH1 0x1 ADD PUSH2 0x3FB JUMP JUMPDEST POP SWAP1 JUMP JUMPDEST POP DUP1 SLOAD PUSH2 0x429 SWAP1 PUSH2 0x4DC JUMP JUMPDEST PUSH0 DUP3 SSTORE DUP1 PUSH1 0x1F LT PUSH2 0x43A JUMPI POP PUSH2 0x457 JUMP JUMPDEST PUSH1 0x1F ADD PUSH1 0x20 SWAP1 DIV SWAP1 PUSH0 MSTORE PUSH1 0x20 PUSH0 KECCAK256 SWAP1 DUP2 ADD SWAP1 PUSH2 0x456 SWAP2 SWAP1 PUSH2 0x3BC JUMP JUMPDEST JUMPDEST POP JUMP JUMPDEST POP DUP1 SLOAD PUSH0 DUP3 SSTORE SWAP1 PUSH0 MSTORE PUSH1 0x20 PUSH0 KECCAK256 SWAP1 DUP2 ADD SWAP1 PUSH2 0x475 SWAP2 SWAP1 PUSH2 0x3BC JUMP JUMPDEST POP JUMP JUMPDEST PUSH0 DUP2 MLOAD SWAP1 POP SWAP2 SWAP1 POP JUMP JUMPDEST PUSH32 0x4E487B7100000000000000000000000000000000000000000000000000000000 PUSH0 MSTORE PUSH1 0x41 PUSH1 0x4 MSTORE PUSH1 0x24 PUSH0 REVERT JUMPDEST PUSH32 0x4E487B7100000000000000000000000000000000000000000000000000000000 PUSH0 MSTORE PUSH1 0x22 PUSH1 0x4 MSTORE PUSH1 0x24 PUSH0 REVERT JUMPDEST PUSH0 PUSH1 0x2 DUP3 DIV SWAP1 POP PUSH1 0x1 DUP3 AND DUP1 PUSH2 0x4F3 JUMPI PUSH1 0x7F DUP3 AND SWAP2 POP JUMPDEST PUSH1 0x20 DUP3 LT DUP2 SUB PUSH2 0x506 JUMPI PUSH2 0x505 PUSH2 0x4AF JUMP JUMPDEST JUMPDEST POP SWAP2 SWAP1 POP JUMP JUMPDEST PUSH0 DUP2 SWAP1 POP DUP2 PUSH0 MSTORE PUSH1 0x20 PUSH0 KECCAK256 SWAP1 POP SWAP2 SWAP1 POP JUMP JUMPDEST PUSH0 PUSH1 0x20 PUSH1 0x1F DUP4 ADD DIV SWAP1 POP SWAP2 SWAP1 POP JUMP JUMPDEST PUSH0 DUP3 DUP3 SHL SWAP1 POP SWAP3 SWAP2 POP POP JUMP JUMPDEST PUSH0 PUSH1 0x8 DUP4 MUL PUSH2 0x568 PUSH32 0xFFFFFFFFFFFFFFFFFFFFFFFFFFFFFFFFFFFFFFFFFFFFFFFFFFFFFFFFFFFFFFFF DUP3 PUSH2 0x52D JUMP JUMPDEST PUSH2 0x572 DUP7 DUP4 PUSH2 0x52D JUMP JUMPDEST SWAP6 POP DUP1 NOT DUP5 AND SWAP4 POP DUP1 DUP7 AND DUP5 OR SWAP3 POP POP POP SWAP4 SWAP3 POP POP POP JUMP JUMPDEST PUSH0 DUP2 SWAP1 POP SWAP2 SWAP1 POP JUMP JUMPDEST PUSH0 DUP2 SWAP1 POP SWAP2 SWAP1 POP JUMP JUMPDEST PUSH0 PUSH2 0x5B6 PUSH2 0x5B1 PUSH2 0x5AC DUP5 PUSH2 0x58A JUMP JUMPDEST PUSH2 0x593 JUMP JUMPDEST PUSH2 0x58A JUMP JUMPDEST SWAP1 POP SWAP2 SWAP1 POP JUMP JUMPDEST PUSH0 DUP2 SWAP1 POP SWAP2 SWAP1 POP JUMP JUMPDEST PUSH2 0x5CF DUP4 PUSH2 0x59C JUMP JUMPDEST PUSH2 0x5E3 PUSH2 0x5DB DUP3 PUSH2 0x5BD JUMP JUMPDEST DUP5 DUP5 SLOAD PUSH2 0x539 JUMP JUMPDEST DUP3 SSTORE POP POP POP POP JUMP JUMPDEST PUSH0 PUSH0 SWAP1 POP SWAP1 JUMP JUMPDEST PUSH2 0x5FA PUSH2 0x5EB JUMP JUMPDEST PUSH2 0x605 DUP2 DUP5 DUP5 PUSH2 0x5C6 JUMP JUMPDEST POP POP POP JUMP JUMPDEST JUMPDEST DUP2 DUP2 LT ISZERO PUSH2 0x628 JUMPI PUSH2 0x61D PUSH0 DUP3 PUSH2 0x5F2 JUMP JUMPDEST PUSH1 0x1 DUP2 ADD SWAP1 POP PUSH2 0x60B JUMP JUMPDEST POP POP JUMP JUMPDEST PUSH1 0x1F DUP3 GT ISZERO PUSH2 0x66D JUMPI PUSH2 0x63E DUP2 PUSH2 0x50C JUMP JUMPDEST PUSH2 0x647 DUP5 PUSH2 0x51E JUMP JUMPDEST DUP2 ADD PUSH1 0x20 DUP6 LT ISZERO PUSH2 0x656 JUMPI DUP2 SWAP1 POP JUMPDEST PUSH2 0x66A PUSH2 0x662 DUP6 PUSH2 0x51E JUMP JUMPDEST DUP4 ADD DUP3 PUSH2 0x60A JUMP JUMPDEST POP POP JUMPDEST POP POP POP JUMP JUMPDEST PUSH0 DUP3 DUP3 SHR SWAP1 POP SWAP3 SWAP2 POP POP JUMP JUMPDEST PUSH0 PUSH2 0x68D PUSH0 NOT DUP5 PUSH1 0x8 MUL PUSH2 0x672 JUMP JUMPDEST NOT DUP1 DUP4 AND SWAP2 POP POP SWAP3 SWAP2 POP POP JUMP JUMPDEST PUSH0 PUSH2 0x6A5 DUP4 DUP4 PUSH2 0x67E JUMP JUMPDEST SWAP2 POP DUP3 PUSH1 0x2 MUL DUP3 OR SWAP1 POP SWAP3 SWAP2 POP POP JUMP JUMPDEST PUSH2 0x6BE DUP3 PUSH2 0x478 JUMP JUMPDEST PUSH8 0xFFFFFFFFFFFFFFFF DUP2 GT ISZERO PUSH2 0x6D7 JUMPI PUSH2 0x6D6 PUSH2 0x482 JUMP JUMPDEST JUMPDEST PUSH2 0x6E1 DUP3 SLOAD PUSH2 0x4DC JUMP JUMPDEST PUSH2 0x6EC DUP3 DUP3 DUP6 PUSH2 0x62C JUMP JUMPDEST PUSH0 PUSH1 0x20 SWAP1 POP PUSH1 0x1F DUP4 GT PUSH1 0x1 DUP2 EQ PUSH2 0x71D JUMPI PUSH0 DUP5 ISZERO PUSH2 0x70B JUMPI DUP3 DUP8 ADD MLOAD SWAP1 POP JUMPDEST PUSH2 0x715 DUP6 DUP3 PUSH2 0x69A JUMP JUMPDEST DUP7 SSTORE POP PUSH2 0x77C JUMP JUMPDEST PUSH1 0x1F NOT DUP5 AND PUSH2 0x72B DUP7 PUSH2 0x50C JUMP JUMPDEST PUSH0 JUMPDEST DUP3 DUP2 LT ISZERO PUSH2 0x752 JUMPI DUP5 DUP10 ADD MLOAD DUP3 SSTORE PUSH1 0x1 DUP3 ADD SWAP2 POP PUSH1 0x20 DUP6 ADD SWAP5 POP PUSH1 0x20 DUP2 ADD SWAP1 POP PUSH2 0x72D JUMP JUMPDEST DUP7 DUP4 LT ISZERO PUSH2 0x76F JUMPI DUP5 DUP10 ADD MLOAD PUSH2 0x76B PUSH1 0x1F DUP10 AND DUP3 PUSH2 0x67E JUMP JUMPDEST DUP4 SSTORE POP JUMPDEST PUSH1 0x1 PUSH1 0x2 DUP9 MUL ADD DUP9 SSTORE POP POP POP JUMPDEST POP POP POP POP POP POP JUMP JUMPDEST PUSH2 0xD28 DUP1 PUSH2 0x791 PUSH0 CODECOPY PUSH0 RETURN INVALID PUSH1 0x80 PUSH1 0x40 MSTORE CALLVALUE DUP1 ISZERO PUSH2 0xF JUMPI PUSH0 PUSH0 REVERT JUMPDEST POP PUSH1 0x4 CALLDATASIZE LT PUSH2 0xE8 JUMPI PUSH0 CALLDATALOAD PUSH1 0xE0 SHR DUP1 PUSH4 0x7DD6B6BC GT PUSH2 0x8A JUMPI DUP1 PUSH4 0xB28BAA1D GT PUSH2 0x64 JUMPI DUP1 PUSH4 0xB28BAA1D EQ PUSH2 0x24D JUMPI DUP1 PUSH4 0xB7A919CB EQ PUSH2 0x26B JUMPI DUP1 PUSH4 0xC64F873A EQ PUSH2 0x289 JUMPI DUP1 PUSH4 0xCC3E57D9 EQ PUSH2 0x2A7 JUMPI PUSH2 0xE8 JUMP JUMPDEST DUP1 PUSH4 0x7DD6B6BC EQ PUSH2 0x1D1 JUMPI DUP1 PUSH4 0x9874F5D7 EQ PUSH2 0x201 JUMPI DUP1 PUSH4 0x9AE918C7 EQ PUSH2 0x21D JUMPI PUSH2 0xE8 JUMP JUMPDEST DUP1 PUSH4 0x311186F3 GT PUSH2 0xC6 JUMPI DUP1 PUSH4 0x311186F3 EQ PUSH2 0x147 JUMPI DUP1 PUSH4 0x4B3E7E0C EQ PUSH2 0x165 JUMPI DUP1 PUSH4 0x61BC221A EQ PUSH2 0x183 JUMPI DUP1 PUSH4 0x6422C4C8 EQ PUSH2 0x1A1 JUMPI PUSH2 0xE8 JUMP JUMPDEST DUP1 PUSH4 0x46A2F89 EQ PUSH2 0xEC JUMPI DUP1 PUSH4 0x20965255 EQ PUSH2 0x10B JUMPI DUP1 PUSH4 0x26B85EE1 EQ PUSH2 0x129 JUMPI JUMPDEST PUSH0 PUSH0 REVERT JUMPDEST PUSH2 0xF4 PUSH2 0x2D7 JUMP JUMPDEST PUSH1 0x40 MLOAD PUSH2 0x102 SWAP3 SWAP2 SWAP1 PUSH2 0x6BA JUMP JUMPDEST PUSH1 0x40 MLOAD DUP1 SWAP2 SUB SWAP1 RETURN JUMPDEST PUSH2 0x113 PUSH2 0x36E JUMP JUMPDEST PUSH1 0x40 MLOAD PUSH2 0x120 SWAP2 SWAP1 PUSH2 0x6E8 JUMP JUMPDEST PUSH1 0x40 MLOAD DUP1 SWAP2 SUB SWAP1 RETURN JUMPDEST PUSH2 0x131 PUSH2 0x37B JUMP JUMPDEST PUSH1 0x40 MLOAD PUSH2 0x13E SWAP2 SWAP1 PUSH2 0x740 JUMP JUMPDEST PUSH1 0x40 MLOAD DUP1 SWAP2 SUB SWAP1 RETURN JUMPDEST PUSH2 0x14F PUSH2 0x3A0 JUMP JUMPDEST PUSH1 0x40 MLOAD PUSH2 0x15C SWAP2 SWAP1 PUSH2 0x774 JUMP JUMPDEST PUSH1 0x40 MLOAD DUP1 SWAP2 SUB SWAP1 RETURN JUMPDEST PUSH2 0x16D PUSH2 0x3B2 JUMP JUMPDEST PUSH1 0x40 MLOAD PUSH2 0x17A SWAP2 SWAP1 PUSH2 0x7A5 JUMP JUMPDEST PUSH1 0x40 MLOAD DUP1 SWAP2 SUB SWAP1 RETURN JUMPDEST PUSH2 0x18B PUSH2 0x3B8 JUMP JUMPDEST PUSH1 0x40 MLOAD PUSH2 0x198 SWAP2 SWAP1 PUSH2 0x6E8 JUMP JUMPDEST PUSH1 0x40 MLOAD DUP1 SWAP2 SUB SWAP1 RETURN JUMPDEST PUSH2 0x1BB PUSH1 0x4 DUP1 CALLDATASIZE SUB DUP2 ADD SWAP1 PUSH2 0x1B6 SWAP2 SWAP1 PUSH2 0x7F9 JUMP JUMPDEST PUSH2 0x3BD JUMP JUMPDEST PUSH1 0x40 MLOAD PUSH2 0x1C8 SWAP2 SWAP1 PUSH2 0x824 JUMP JUMPDEST PUSH1 0x40 MLOAD DUP1 SWAP2 SUB SWAP1 RETURN JUMPDEST PUSH2 0x1EB PUSH1 0x4 DUP1 CALLDATASIZE SUB DUP2 ADD SWAP1 PUSH2 0x1E6 SWAP2 SWAP1 PUSH2 0x844 JUMP JUMPDEST PUSH2 0x463 JUMP JUMPDEST PUSH1 0x40 MLOAD PUSH2 0x1F8 SWAP2 SWAP1 PUSH2 0x6E8 JUMP JUMPDEST PUSH1 0x40 MLOAD DUP1 SWAP2 SUB SWAP1 RETURN JUMPDEST PUSH2 0x21B PUSH1 0x4 DUP1 CALLDATASIZE SUB DUP2 ADD SWAP1 PUSH2 0x216 SWAP2 SWAP1 PUSH2 0x9AE JUMP JUMPDEST PUSH2 0x499 JUMP JUMPDEST STOP JUMPDEST PUSH2 0x237 PUSH1 0x4 DUP1 CALLDATASIZE SUB DUP2 ADD SWAP1 PUSH2 0x232 SWAP2 SWAP1 PUSH2 0x7F9 JUMP JUMPDEST PUSH2 0x4CE JUMP JUMPDEST PUSH1 0x40 MLOAD PUSH2 0x244 SWAP2 SWAP1 PUSH2 0x6E8 JUMP JUMPDEST PUSH1 0x40 MLOAD DUP1 SWAP2 SUB SWAP1 RETURN JUMPDEST PUSH2 0x255 PUSH2 0x4EE JUMP JUMPDEST PUSH1 0x40 MLOAD PUSH2 0x262 SWAP2 SWAP1 PUSH2 0x6E8 JUMP JUMPDEST PUSH1 0x40 MLOAD DUP1 SWAP2 SUB SWAP1 RETURN JUMPDEST PUSH2 0x273 PUSH2 0x4FA JUMP JUMPDEST PUSH1 0x40 MLOAD PUSH2 0x280 SWAP2 SWAP1 PUSH2 0x824 JUMP JUMPDEST PUSH1 0x40 MLOAD DUP1 SWAP2 SUB SWAP1 RETURN JUMPDEST PUSH2 0x291 PUSH2 0x586 JUMP JUMPDEST PUSH1 0x40 MLOAD PUSH2 0x29E SWAP2 SWAP1 PUSH2 0xA0D JUMP JUMPDEST PUSH1 0x40 MLOAD DUP1 SWAP2 SUB SWAP1 RETURN JUMPDEST PUSH2 0x2C1 PUSH1 0x4 DUP1 CALLDATASIZE SUB DUP2 ADD SWAP1 PUSH2 0x2BC SWAP2 SWAP1 PUSH2 0x7F9 JUMP JUMPDEST PUSH2 0x58C JUMP JUMPDEST PUSH1 0x40 MLOAD PUSH2 0x2CE SWAP2 SWAP1 PUSH2 0x824 JUMP JUMPDEST PUSH1 0x40 MLOAD DUP1 SWAP2 SUB SWAP1 RETURN JUMPDEST PUSH1 0x6 DUP1 PUSH0 ADD SLOAD SWAP1 DUP1 PUSH1 0x1 ADD DUP1 SLOAD PUSH2 0x2ED SWAP1 PUSH2 0xA53 JUMP JUMPDEST DUP1 PUSH1 0x1F ADD PUSH1 0x20 DUP1 SWAP2 DIV MUL PUSH1 0x20 ADD PUSH1 0x40 MLOAD SWAP1 DUP2 ADD PUSH1 0x40 MSTORE DUP1 SWAP3 SWAP2 SWAP1 DUP2 DUP2 MSTORE PUSH1 0x20 ADD DUP3 DUP1 SLOAD PUSH2 0x319 SWAP1 PUSH2 0xA53 JUMP JUMPDEST DUP1 ISZERO PUSH2 0x364 JUMPI DUP1 PUSH1 0x1F LT PUSH2 0x33B JUMPI PUSH2 0x100 DUP1 DUP4 SLOAD DIV MUL DUP4 MSTORE SWAP2 PUSH1 0x20 ADD SWAP2 PUSH2 0x364 JUMP JUMPDEST DUP3 ADD SWAP2 SWAP1 PUSH0 MSTORE PUSH1 0x20 PUSH0 KECCAK256 SWAP1 JUMPDEST DUP2 SLOAD DUP2 MSTORE SWAP1 PUSH1 0x1 ADD SWAP1 PUSH1 0x20 ADD DUP1 DUP4 GT PUSH2 0x347 JUMPI DUP3 SWAP1 SUB PUSH1 0x1F AND DUP3 ADD SWAP2 JUMPDEST POP POP POP POP POP SWAP1 POP DUP3 JUMP JUMPDEST PUSH0 PUSH0 PUSH1 0x7 SWAP1 POP DUP1 SWAP2 POP POP SWAP1 JUMP JUMPDEST PUSH1 0x5 PUSH0 SWAP1 SLOAD SWAP1 PUSH2 0x100 EXP SWAP1 DIV PUSH20 0xFFFFFFFFFFFFFFFFFFFFFFFFFFFFFFFFFFFFFFFF AND DUP2 JUMP JUMPDEST PUSH1 0x1 PUSH0 SWAP1 SLOAD SWAP1 PUSH2 0x100 EXP SWAP1 DIV PUSH1 0xFF AND DUP2 JUMP JUMPDEST PUSH1 0x4 SLOAD DUP2 JUMP JUMPDEST PUSH0 SLOAD DUP2 JUMP JUMPDEST PUSH1 0x9 DUP2 DUP2 SLOAD DUP2 LT PUSH2 0x3CC JUMPI PUSH0 DUP1 REVERT JUMPDEST SWAP1 PUSH0 MSTORE PUSH1 0x20 PUSH0 KECCAK256 ADD PUSH0 SWAP2 POP SWAP1 POP DUP1 SLOAD PUSH2 0x3E4 SWAP1 PUSH2 0xA53 JUMP JUMPDEST DUP1 PUSH1 0x1F ADD PUSH1 0x20 DUP1 SWAP2 DIV MUL PUSH1 0x20 ADD PUSH1 0x40 MLOAD SWAP1 DUP2 ADD PUSH1 0x40 MSTORE DUP1 SWAP3 SWAP2 SWAP1 DUP2 DUP2 MSTORE PUSH1 0x20 ADD DUP3 DUP1 SLOAD PUSH2 0x410 SWAP1 PUSH2 0xA53 JUMP JUMPDEST DUP1 ISZERO PUSH2 0x45B JUMPI DUP1 PUSH1 0x1F LT PUSH2 0x432 JUMPI PUSH2 0x100 DUP1 DUP4 SLOAD DIV MUL DUP4 MSTORE SWAP2 PUSH1 0x20 ADD SWAP2 PUSH2 0x45B JUMP JUMPDEST DUP3 ADD SWAP2 SWAP1 PUSH0 MSTORE PUSH1 0x20 PUSH0 KECCAK256 SWAP1 JUMPDEST DUP2 SLOAD DUP2 MSTORE SWAP1 PUSH1 0x1 ADD SWAP1 PUSH1 0x20 ADD DUP1 DUP4 GT PUSH2 0x43E JUMPI DUP3 SWAP1 SUB PUSH1 0x1F AND DUP3 ADD SWAP2 JUMPDEST POP POP POP POP POP DUP2 JUMP JUMPDEST PUSH1 0xB DUP3 DUP2 SLOAD DUP2 LT PUSH2 0x472 JUMPI PUSH0 DUP1 REVERT JUMPDEST SWAP1 PUSH0 MSTORE PUSH1 0x20 PUSH0 KECCAK256 ADD DUP2 DUP2 SLOAD DUP2 LT PUSH2 0x487 JUMPI PUSH0 DUP1 REVERT JUMPDEST SWAP1 PUSH0 MSTORE PUSH1 0x20 PUSH0 KECCAK256 ADD PUSH0 SWAP2 POP SWAP2 POP POP SLOAD DUP2 JUMP JUMPDEST PUSH1 0xA DUP2 SWAP1 DUP1 PUSH1 0x1 DUP2 SLOAD ADD DUP1 DUP3 SSTORE DUP1 SWAP2 POP POP PUSH1 0x1 SWAP1 SUB SWAP1 PUSH0 MSTORE PUSH1 0x20 PUSH0 KECCAK256 ADD PUSH0 SWAP1 SWAP2 SWAP1 SWAP2 SWAP1 SWAP2 POP SWAP1 DUP2 PUSH2 0x4CA SWAP2 SWAP1 PUSH2 0xC23 JUMP JUMPDEST POP POP JUMP JUMPDEST PUSH1 0x8 DUP2 DUP2 SLOAD DUP2 LT PUSH2 0x4DD JUMPI PUSH0 DUP1 REVERT JUMPDEST SWAP1 PUSH0 MSTORE PUSH1 0x20 PUSH0 KECCAK256 ADD PUSH0 SWAP2 POP SWAP1 POP SLOAD DUP2 JUMP JUMPDEST PUSH0 PUSH1 0xA DUP1 SLOAD SWAP1 POP SWAP1 POP SWAP1 JUMP JUMPDEST PUSH1 0x3 DUP1 SLOAD PUSH2 0x507 SWAP1 PUSH2 0xA53 JUMP JUMPDEST DUP1 PUSH1 0x1F ADD PUSH1 0x20 DUP1 SWAP2 DIV MUL PUSH1 0x20 ADD PUSH1 0x40 MLOAD SWAP1 DUP2 ADD PUSH1 0x40 MSTORE DUP1 SWAP3 SWAP2 SWAP1 DUP2 DUP2 MSTORE PUSH1 0x20 ADD DUP3 DUP1 SLOAD PUSH2 0x533 SWAP1 PUSH2 0xA53 JUMP JUMPDEST DUP1 ISZERO PUSH2 0x57E JUMPI DUP1 PUSH1 0x1F LT PUSH2 0x555 JUMPI PUSH2 0x100 DUP1 DUP4 SLOAD DIV MUL DUP4 MSTORE SWAP2 PUSH1 0x20 ADD SWAP2 PUSH2 0x57E JUMP JUMPDEST DUP3 ADD SWAP2 SWAP1 PUSH0 MSTORE PUSH1 0x20 PUSH0 KECCAK256 SWAP1 JUMPDEST DUP2 SLOAD DUP2 MSTORE SWAP1 PUSH1 0x1 ADD SWAP1 PUSH1 0x20 ADD DUP1 DUP4 GT PUSH2 0x561 JUMPI DUP3 SWAP1 SUB PUSH1 0x1F AND DUP3 ADD SWAP2 JUMPDEST POP POP POP POP POP DUP2 JUMP JUMPDEST PUSH1 0x2 SLOAD DUP2 JUMP JUMPDEST PUSH1 0xA DUP2 DUP2 SLOAD DUP2 LT PUSH2 0x59B JUMPI PUSH0 DUP1 REVERT JUMPDEST SWAP1 PUSH0 MSTORE PUSH1 0x20 PUSH0 KECCAK256 ADD PUSH0 SWAP2 POP SWAP1 POP DUP1 SLOAD PUSH2 0x5B3 SWAP1 PUSH2 0xA53 JUMP JUMPDEST DUP1 PUSH1 0x1F ADD PUSH1 0x20 DUP1 SWAP2 DIV MUL PUSH1 0x20 ADD PUSH1 0x40 MLOAD SWAP1 DUP2 ADD PUSH1 0x40 MSTORE DUP1 SWAP3 SWAP2 SWAP1 DUP2 DUP2 MSTORE PUSH1 0x20 ADD DUP3 DUP1 SLOAD PUSH2 0x5DF SWAP1 PUSH2 0xA53 JUMP JUMPDEST DUP1 ISZERO PUSH2 0x62A JUMPI DUP1 PUSH1 0x1F LT PUSH2 0x601 JUMPI PUSH2 0x100 DUP1 DUP4 SLOAD DIV MUL DUP4 MSTORE SWAP2 PUSH1 0x20 ADD SWAP2 PUSH2 0x62A JUMP JUMPDEST DUP3 ADD SWAP2 SWAP1 PUSH0 MSTORE PUSH1 0x20 PUSH0 KECCAK256 SWAP1 JUMPDEST DUP2 SLOAD DUP2 MSTORE SWAP1 PUSH1 0x1 ADD SWAP1 PUSH1 0x20 ADD DUP1 DUP4 GT PUSH2 0x60D JUMPI DUP3 SWAP1 SUB PUSH1 0x1F AND DUP3 ADD SWAP2 JUMPDEST POP POP POP POP POP DUP2 JUMP JUMPDEST PUSH0 DUP2 SWAP1 POP SWAP2 SWAP1 POP JUMP JUMPDEST PUSH2 0x644 DUP2 PUSH2 0x632 JUMP JUMPDEST DUP3 MSTORE POP POP JUMP JUMPDEST PUSH0 DUP2 MLOAD SWAP1 POP SWAP2 SWAP1 POP JUMP JUMPDEST PUSH0 DUP3 DUP3 MSTORE PUSH1 0x20 DUP3 ADD SWAP1 POP SWAP3 SWAP2 POP POP JUMP JUMPDEST DUP3 DUP2 DUP4 MCOPY PUSH0 DUP4 DUP4 ADD MSTORE POP POP POP JUMP JUMPDEST PUSH0 PUSH1 0x1F NOT PUSH1 0x1F DUP4 ADD AND SWAP1 POP SWAP2 SWAP1 POP JUMP JUMPDEST PUSH0 PUSH2 0x68C DUP3 PUSH2 0x64A JUMP JUMPDEST PUSH2 0x696 DUP2 DUP6 PUSH2 0x654 JUMP JUMPDEST SWAP4 POP PUSH2 0x6A6 DUP2 DUP6 PUSH1 0x20 DUP7 ADD PUSH2 0x664 JUMP JUMPDEST PUSH2 0x6AF DUP2 PUSH2 0x672 JUMP JUMPDEST DUP5 ADD SWAP2 POP POP SWAP3 SWAP2 POP POP JUMP JUMPDEST PUSH0 PUSH1 0x40 DUP3 ADD SWAP1 POP PUSH2 0x6CD PUSH0 DUP4 ADD DUP6 PUSH2 0x63B JUMP JUMPDEST DUP2 DUP2 SUB PUSH1 0x20 DUP4 ADD MSTORE PUSH2 0x6DF DUP2 DUP5 PUSH2 0x682 JUMP JUMPDEST SWAP1 POP SWAP4 SWAP3 POP POP POP JUMP JUMPDEST PUSH0 PUSH1 0x20 DUP3 ADD SWAP1 POP PUSH2 0x6FB PUSH0 DUP4 ADD DUP5 PUSH2 0x63B JUMP JUMPDEST SWAP3 SWAP2 POP POP JUMP JUMPDEST PUSH0 PUSH20 0xFFFFFFFFFFFFFFFFFFFFFFFFFFFFFFFFFFFFFFFF DUP3 AND SWAP1 POP SWAP2 SWAP1 POP JUMP JUMPDEST PUSH0 PUSH2 0x72A DUP3 PUSH2 0x701 JUMP JUMPDEST SWAP1 POP SWAP2 SWAP1 POP JUMP JUMPDEST PUSH2 0x73A DUP2 PUSH2 0x720 JUMP JUMPDEST DUP3 MSTORE POP POP JUMP JUMPDEST PUSH0 PUSH1 0x20 DUP3 ADD SWAP1 POP PUSH2 0x753 PUSH0 DUP4 ADD DUP5 PUSH2 0x731 JUMP JUMPDEST SWAP3 SWAP2 POP POP JUMP JUMPDEST PUSH0 PUSH1 0xFF DUP3 AND SWAP1 POP SWAP2 SWAP1 POP JUMP JUMPDEST PUSH2 0x76E DUP2 PUSH2 0x759 JUMP JUMPDEST DUP3 MSTORE POP POP JUMP JUMPDEST PUSH0 PUSH1 0x20 DUP3 ADD SWAP1 POP PUSH2 0x787 PUSH0 DUP4 ADD DUP5 PUSH2 0x765 JUMP JUMPDEST SWAP3 SWAP2 POP POP JUMP JUMPDEST PUSH0 DUP2 SWAP1 POP SWAP2 SWAP1 POP JUMP JUMPDEST PUSH2 0x79F DUP2 PUSH2 0x78D JUMP JUMPDEST DUP3 MSTORE POP POP JUMP JUMPDEST PUSH0 PUSH1 0x20 DUP3 ADD SWAP1 POP PUSH2 0x7B8 PUSH0 DUP4 ADD DUP5 PUSH2 0x796 JUMP JUMPDEST SWAP3 SWAP2 POP POP JUMP JUMPDEST PUSH0 PUSH1 0x40 MLOAD SWAP1 POP SWAP1 JUMP JUMPDEST PUSH0 PUSH0 REVERT JUMPDEST PUSH0 PUSH0 REVERT JUMPDEST PUSH2 0x7D8 DUP2 PUSH2 0x632 JUMP JUMPDEST DUP2 EQ PUSH2 0x7E2 JUMPI PUSH0 PUSH0 REVERT JUMPDEST POP JUMP JUMPDEST PUSH0 DUP2 CALLDATALOAD SWAP1 POP PUSH2 0x7F3 DUP2 PUSH2 0x7CF JUMP JUMPDEST SWAP3 SWAP2 POP POP JUMP JUMPDEST PUSH0 PUSH1 0x20 DUP3 DUP5 SUB SLT ISZERO PUSH2 0x80E JUMPI PUSH2 0x80D PUSH2 0x7C7 JUMP JUMPDEST JUMPDEST PUSH0 PUSH2 0x81B DUP5 DUP3 DUP6 ADD PUSH2 0x7E5 JUMP JUMPDEST SWAP2 POP POP SWAP3 SWAP2 POP POP JUMP JUMPDEST PUSH0 PUSH1 0x20 DUP3 ADD SWAP1 POP DUP2 DUP2 SUB PUSH0 DUP4 ADD MSTORE PUSH2 0x83C DUP2 DUP5 PUSH2 0x682 JUMP JUMPDEST SWAP1 POP SWAP3 SWAP2 POP POP JUMP JUMPDEST PUSH0 PUSH0 PUSH1 0x40 DUP4 DUP6 SUB SLT ISZERO PUSH2 0x85A JUMPI PUSH2 0x859 PUSH2 0x7C7 JUMP JUMPDEST JUMPDEST PUSH0 PUSH2 0x867 DUP6 DUP3 DUP7 ADD PUSH2 0x7E5 JUMP JUMPDEST SWAP3 POP POP PUSH1 0x20 PUSH2 0x878 DUP6 DUP3 DUP7 ADD PUSH2 0x7E5 JUMP JUMPDEST SWAP2 POP POP SWAP3 POP SWAP3 SWAP1 POP JUMP JUMPDEST PUSH0 PUSH0 REVERT JUMPDEST PUSH0 PUSH0 REVERT JUMPDEST PUSH32 0x4E487B7100000000000000000000000000000000000000000000000000000000 PUSH0 MSTORE PUSH1 0x41 PUSH1 0x4 MSTORE PUSH1 0x24 PUSH0 REVERT JUMPDEST PUSH2 0x8C0 DUP3 PUSH2 0x672 JUMP JUMPDEST DUP2 ADD DUP2 DUP2 LT PUSH8 0xFFFFFFFFFFFFFFFF DUP3 GT OR ISZERO PUSH2 0x8DF JUMPI PUSH2 0x8DE PUSH2 0x88A JUMP JUMPDEST JUMPDEST DUP1 PUSH1 0x40 MSTORE POP POP POP JUMP JUMPDEST PUSH0 PUSH2 0x8F1 PUSH2 0x7BE JUMP JUMPDEST SWAP1 POP PUSH2 0x8FD DUP3 DUP3 PUSH2 0x8B7 JUMP JUMPDEST SWAP2 SWAP1 POP JUMP JUMPDEST PUSH0 PUSH8 0xFFFFFFFFFFFFFFFF DUP3 GT ISZERO PUSH2 0x91C JUMPI PUSH2 0x91B PUSH2 0x88A JUMP JUMPDEST JUMPDEST PUSH2 0x925 DUP3 PUSH2 0x672 JUMP JUMPDEST SWAP1 POP PUSH1 0x20 DUP2 ADD SWAP1 POP SWAP2 SWAP1 POP JUMP JUMPDEST DUP3 DUP2 DUP4 CALLDATACOPY PUSH0 DUP4 DUP4 ADD MSTORE POP POP POP JUMP JUMPDEST PUSH0 PUSH2 0x952 PUSH2 0x94D DUP5 PUSH2 0x902 JUMP JUMPDEST PUSH2 0x8E8 JUMP JUMPDEST SWAP1 POP DUP3 DUP2 MSTORE PUSH1 0x20 DUP2 ADD DUP5 DUP5 DUP5 ADD GT ISZERO PUSH2 0x96E JUMPI PUSH2 0x96D PUSH2 0x886 JUMP JUMPDEST JUMPDEST PUSH2 0x979 DUP5 DUP3 DUP6 PUSH2 0x932 JUMP JUMPDEST POP SWAP4 SWAP3 POP POP POP JUMP JUMPDEST PUSH0 DUP3 PUSH1 0x1F DUP4 ADD SLT PUSH2 0x995 JUMPI PUSH2 0x994 PUSH2 0x882 JUMP JUMPDEST JUMPDEST DUP2 CALLDATALOAD PUSH2 0x9A5 DUP5 DUP3 PUSH1 0x20 DUP7 ADD PUSH2 0x940 JUMP JUMPDEST SWAP2 POP POP SWAP3 SWAP2 POP POP JUMP JUMPDEST PUSH0 PUSH1 0x20 DUP3 DUP5 SUB SLT ISZERO PUSH2 0x9C3 JUMPI PUSH2 0x9C2 PUSH2 0x7C7 JUMP JUMPDEST JUMPDEST PUSH0 DUP3 ADD CALLDATALOAD PUSH8 0xFFFFFFFFFFFFFFFF DUP2 GT ISZERO PUSH2 0x9E0 JUMPI PUSH2 0x9DF PUSH2 0x7CB JUMP JUMPDEST JUMPDEST PUSH2 0x9EC DUP5 DUP3 DUP6 ADD PUSH2 0x981 JUMP JUMPDEST SWAP2 POP POP SWAP3 SWAP2 POP POP JUMP JUMPDEST PUSH0 DUP2 SWAP1 POP SWAP2 SWAP1 POP JUMP JUMPDEST PUSH2 0xA07 DUP2 PUSH2 0x9F5 JUMP JUMPDEST DUP3 MSTORE POP POP JUMP JUMPDEST PUSH0 PUSH1 0x20 DUP3 ADD SWAP1 POP PUSH2 0xA20 PUSH0 DUP4 ADD DUP5 PUSH2 0x9FE JUMP JUMPDEST SWAP3 SWAP2 POP POP JUMP JUMPDEST PUSH32 0x4E487B7100000000000000000000000000000000000000000000000000000000 PUSH0 MSTORE PUSH1 0x22 PUSH1 0x4 MSTORE PUSH1 0x24 PUSH0 REVERT JUMPDEST PUSH0 PUSH1 0x2 DUP3 DIV SWAP1 POP PUSH1 0x1 DUP3 AND DUP1 PUSH2 0xA6A JUMPI PUSH1 0x7F DUP3 AND SWAP2 POP JUMPDEST PUSH1 0x20 DUP3 LT DUP2 SUB PUSH2 0xA7D JUMPI PUSH2 0xA7C PUSH2 0xA26 JUMP JUMPDEST JUMPDEST POP SWAP2 SWAP1 POP JUMP JUMPDEST PUSH0 DUP2 SWAP1 POP DUP2 PUSH0 MSTORE PUSH1 0x20 PUSH0 KECCAK256 SWAP1 POP SWAP2 SWAP1 POP JUMP JUMPDEST PUSH0 PUSH1 0x20 PUSH1 0x1F DUP4 ADD DIV SWAP1 POP SWAP2 SWAP1 POP JUMP JUMPDEST PUSH0 DUP3 DUP3 SHL SWAP1 POP SWAP3 SWAP2 POP POP JUMP JUMPDEST PUSH0 PUSH1 0x8 DUP4 MUL PUSH2 0xADF PUSH32 0xFFFFFFFFFFFFFFFFFFFFFFFFFFFFFFFFFFFFFFFFFFFFFFFFFFFFFFFFFFFFFFFF DUP3 PUSH2 0xAA4 JUMP JUMPDEST PUSH2 0xAE9 DUP7 DUP4 PUSH2 0xAA4 JUMP JUMPDEST SWAP6 POP DUP1 NOT DUP5 AND SWAP4 POP DUP1 DUP7 AND DUP5 OR SWAP3 POP POP POP SWAP4 SWAP3 POP POP POP JUMP JUMPDEST PUSH0 DUP2 SWAP1 POP SWAP2 SWAP1 POP JUMP JUMPDEST PUSH0 PUSH2 0xB24 PUSH2 0xB1F PUSH2 0xB1A DUP5 PUSH2 0x632 JUMP JUMPDEST PUSH2 0xB01 JUMP JUMPDEST PUSH2 0x632 JUMP JUMPDEST SWAP1 POP SWAP2 SWAP1 POP JUMP JUMPDEST PUSH0 DUP2 SWAP1 POP SWAP2 SWAP1 POP JUMP JUMPDEST PUSH2 0xB3D DUP4 PUSH2 0xB0A JUMP JUMPDEST PUSH2 0xB51 PUSH2 0xB49 DUP3 PUSH2 0xB2B JUMP JUMPDEST DUP5 DUP5 SLOAD PUSH2 0xAB0 JUMP JUMPDEST DUP3 SSTORE POP POP POP POP JUMP JUMPDEST PUSH0 PUSH0 SWAP1 POP SWAP1 JUMP JUMPDEST PUSH2 0xB68 PUSH2 0xB59 JUMP JUMPDEST PUSH2 0xB73 DUP2 DUP5 DUP5 PUSH2 0xB34 JUMP JUMPDEST POP POP POP JUMP JUMPDEST JUMPDEST DUP2 DUP2 LT ISZERO PUSH2 0xB96 JUMPI PUSH2 0xB8B PUSH0 DUP3 PUSH2 0xB60 JUMP JUMPDEST PUSH1 0x1 DUP2 ADD SWAP1 POP PUSH2 0xB79 JUMP JUMPDEST POP POP JUMP JUMPDEST PUSH1 0x1F DUP3 GT ISZERO PUSH2 0xBDB JUMPI PUSH2 0xBAC DUP2 PUSH2 0xA83 JUMP JUMPDEST PUSH2 0xBB5 DUP5 PUSH2 0xA95 JUMP JUMPDEST DUP2 ADD PUSH1 0x20 DUP6 LT ISZERO PUSH2 0xBC4 JUMPI DUP2 SWAP1 POP JUMPDEST PUSH2 0xBD8 PUSH2 0xBD0 DUP6 PUSH2 0xA95 JUMP JUMPDEST DUP4 ADD DUP3 PUSH2 0xB78 JUMP JUMPDEST POP POP JUMPDEST POP POP POP JUMP JUMPDEST PUSH0 DUP3 DUP3 SHR SWAP1 POP SWAP3 SWAP2 POP POP JUMP JUMPDEST PUSH0 PUSH2 0xBFB PUSH0 NOT DUP5 PUSH1 0x8 MUL PUSH2 0xBE0 JUMP JUMPDEST NOT DUP1 DUP4 AND SWAP2 POP POP SWAP3 SWAP2 POP POP JUMP JUMPDEST PUSH0 PUSH2 0xC13 DUP4 DUP4 PUSH2 0xBEC JUMP JUMPDEST SWAP2 POP DUP3 PUSH1 0x2 MUL DUP3 OR SWAP1 POP SWAP3 SWAP2 POP POP JUMP JUMPDEST PUSH2 0xC2C DUP3 PUSH2 0x64A JUMP JUMPDEST PUSH8 0xFFFFFFFFFFFFFFFF DUP2 GT ISZERO PUSH2 0xC45 JUMPI PUSH2 0xC44 PUSH2 0x88A JUMP JUMPDEST JUMPDEST PUSH2 0xC4F DUP3 SLOAD PUSH2 0xA53 JUMP JUMPDEST PUSH2 0xC5A DUP3 DUP3 DUP6 PUSH2 0xB9A JUMP JUMPDEST PUSH0 PUSH1 0x20 SWAP1 POP PUSH1 0x1F DUP4 GT PUSH1 0x1 DUP2 EQ PUSH2 0xC8B JUMPI PUSH0 DUP5 ISZERO PUSH2 0xC79 JUMPI DUP3 DUP8 ADD MLOAD SWAP1 POP JUMPDEST PUSH2 0xC83 DUP6 DUP3 PUSH2 0xC08 JUMP JUMPDEST DUP7 SSTORE POP PUSH2 0xCEA JUMP JUMPDEST PUSH1 0x1F NOT DUP5 AND PUSH2 0xC99 DUP7 PUSH2 0xA83 JUMP JUMPDEST PUSH0 JUMPDEST DUP3 DUP2 LT ISZERO PUSH2 0xCC0 JUMPI DUP5 DUP10 ADD MLOAD DUP3 SSTORE PUSH1 0x1 DUP3 ADD SWAP2 POP PUSH1 0x20 DUP6 ADD SWAP5 POP PUSH1 0x20 DUP2 ADD SWAP1 POP PUSH2 0xC9B JUMP JUMPDEST DUP7 DUP4 LT ISZERO PUSH2 0xCDD JUMPI DUP5 DUP10 ADD MLOAD PUSH2 0xCD9 PUSH1 0x1F DUP10 AND DUP3 PUSH2 0xBEC JUMP JUMPDEST DUP4 SSTORE POP JUMPDEST PUSH1 0x1 PUSH1 0x2 DUP9 MUL ADD DUP9 SSTORE POP POP POP JUMPDEST POP POP POP POP POP POP JUMP INVALID LOG2 PUSH5 0x6970667358 0x22 SLT KECCAK256 DATALOADN 0x9861 0xC7 POP DIV SWAP6 BASEFEE 0xC5 LOG0 0xA7 STATICCALL PUSH0 BALANCE 0xDB SGT 0xE9 0xC2 0xC 0x2B SWAP6 SLOAD 0xAE BLOBBASEFEE CALLCODE GASPRICE STATICCALL ADDMOD 0xF6 PUSH19 0x841064736F6C634300081E0033000000000000 "
				},
				"gasEstimates": {
					"creation": {
						"codeDepositCost": "673600",
						"executionCost": "infinite",
						"totalCost": "infinite"
					},
					"external": {
						"addString(string)": "infinite",
						"arrayCount()": "2462",
						"counter()": "2491",
						"getValue()": "390",
						"my2DArray(uint256,uint256)": "infinite",
						"myAddress()": "2576",
						"myArray(uint256)": "infinite",
						"myBytes32()": "2470",
						"myStruck()": "infinite",
						"signerInteger()": "2491",
						"stringArray(uint256)": "infinite",
						"stringExample()": "infinite",
						"uintArray(uint256)": "infinite",
						"uintOf8()": "2489"
					}
				},
				"methodIdentifiers": {
					"addString(string)": "9874f5d7",
					"arrayCount()": "b28baa1d",
					"counter()": "61bc221a",
					"getValue()": "20965255",
					"my2DArray(uint256,uint256)": "7dd6b6bc",
					"myAddress()": "26b85ee1",
					"myArray(uint256)": "cc3e57d9",
					"myBytes32()": "4b3e7e0c",
					"myStruck()": "046a2f89",
					"signerInteger()": "c64f873a",
					"stringArray(uint256)": "6422c4c8",
					"stringExample()": "b7a919cb",
					"uintArray(uint256)": "9ae918c7",
					"uintOf8()": "311186f3"
				}
			},
			"storageLayout": {
				"storage": [
					{
						"astId": 4,
						"contract": "contracts/MyContract.sol:MyContract",
						"label": "counter",
						"offset": 0,
						"slot": "0",
						"type": "t_uint256"
					},
					{
						"astId": 7,
						"contract": "contracts/MyContract.sol:MyContract",
						"label": "uintOf8",
						"offset": 0,
						"slot": "1",
						"type": "t_uint8"
					},
					{
						"astId": 11,
						"contract": "contracts/MyContract.sol:MyContract",
						"label": "signerInteger",
						"offset": 0,
						"slot": "2",
						"type": "t_int256"
					},
					{
						"astId": 14,
						"contract": "contracts/MyContract.sol:MyContract",
						"label": "stringExample",
						"offset": 0,
						"slot": "3",
						"type": "t_string_storage"
					},
					{
						"astId": 17,
						"contract": "contracts/MyContract.sol:MyContract",
						"label": "myBytes32",
						"offset": 0,
						"slot": "4",
						"type": "t_bytes32"
					},
					{
						"astId": 20,
						"contract": "contracts/MyContract.sol:MyContract",
						"label": "myAddress",
						"offset": 0,
						"slot": "5",
						"type": "t_address"
					},
					{
						"astId": 32,
						"contract": "contracts/MyContract.sol:MyContract",
						"label": "myStruck",
						"offset": 0,
						"slot": "6",
						"type": "t_struct(Structure)25_storage"
					},
					{
						"astId": 51,
						"contract": "contracts/MyContract.sol:MyContract",
						"label": "uintArray",
						"offset": 0,
						"slot": "8",
						"type": "t_array(t_uint256)dyn_storage"
					},
					{
						"astId": 57,
						"contract": "contracts/MyContract.sol:MyContract",
						"label": "stringArray",
						"offset": 0,
						"slot": "9",
						"type": "t_array(t_string_storage)dyn_storage"
					},
					{
						"astId": 60,
						"contract": "contracts/MyContract.sol:MyContract",
						"label": "myArray",
						"offset": 0,
						"slot": "10",
						"type": "t_array(t_string_storage)dyn_storage"
					},
					{
						"astId": 94,
						"contract": "contracts/MyContract.sol:MyContract",
						"label": "my2DArray",
						"offset": 0,
						"slot": "11",
						"type": "t_array(t_array(t_uint256)dyn_storage)dyn_storage"
					}
				],
				"types": {
					"t_address": {
						"encoding": "inplace",
						"label": "address",
						"numberOfBytes": "20"
					},
					"t_array(t_array(t_uint256)dyn_storage)dyn_storage": {
						"base": "t_array(t_uint256)dyn_storage",
						"encoding": "dynamic_array",
						"label": "uint256[][]",
						"numberOfBytes": "32"
					},
					"t_array(t_string_storage)dyn_storage": {
						"base": "t_string_storage",
						"encoding": "dynamic_array",
						"label": "string[]",
						"numberOfBytes": "32"
					},
					"t_array(t_uint256)dyn_storage": {
						"base": "t_uint256",
						"encoding": "dynamic_array",
						"label": "uint256[]",
						"numberOfBytes": "32"
					},
					"t_bytes32": {
						"encoding": "inplace",
						"label": "bytes32",
						"numberOfBytes": "32"
					},
					"t_int256": {
						"encoding": "inplace",
						"label": "int256",
						"numberOfBytes": "32"
					},
					"t_string_storage": {
						"encoding": "bytes",
						"label": "string",
						"numberOfBytes": "32"
					},
					"t_struct(Structure)25_storage": {
						"encoding": "inplace",
						"label": "struct MyContract.Structure",
						"members": [
							{
								"astId": 22,
								"contract": "contracts/MyContract.sol:MyContract",
								"label": "myUint",
								"offset": 0,
								"slot": "0",
								"type": "t_uint256"
							},
							{
								"astId": 24,
								"contract": "contracts/MyContract.sol:MyContract",
								"label": "myString",
								"offset": 0,
								"slot": "1",
								"type": "t_string_storage"
							}
						],
						"numberOfBytes": "64"
					},
					"t_uint256": {
						"encoding": "inplace",
						"label": "uint256",
						"numberOfBytes": "32"
					},
					"t_uint8": {
						"encoding": "inplace",
						"label": "uint8",
						"numberOfBytes": "1"
					}
				}
			},
			"userdoc": {
				"kind": "user",
				"methods": {},
				"version": 1
			}
		}
	}
}